:020000040800F2
:1000000000500020E1670008590C00085B0C000854
:100010005D0C00085F0C0008610C00080000000087
:10002000000000000000000000000000F15900087E
:10003000630C000800000000915A0008D55A00081F
:10004000296800082968000829680008296800084C
:10005000296800082968000829680008296800083C
:1000600029680008650C000829680008296800084C
:100070002968000829680008710C0008810C000834
:10008000296800082968000829680008296800080C
:1000900029680008296800082968000829680008FC
:1000A00029680008296800082968000829680008EC
:1000B000910C0008A10C0008B10C00082968000888
:1000C00029680008296800082968000829680008CC
:1000D00029680008296800082968000829680008BC
:1000E000C10C000829680008296800080000000009
:1000F0000000000000000000000000000000000000
:0C01000000000000000000005FF808F1A3
:1001100010B5054C237833B9044B13B10448AFF341
:1001200000800123237010BD180100200000000092
:100130000C8A000808B5034B1BB103490348AFF311
:10014000008008BD000000001C0100200C8A00088F
:1001500080F0004002E000BF81F0004142001FBF7C
:100160005FEA410392EA030F7FEA226C7FEA236C85
:100170006AD04FEA1262D2EB1363C1BFD21841407A
:1001800048404140B8BF5B42192B88BF704710F010
:10019000004F40F4000020F07F4018BF404211F0B3
:1001A000004F41F4000121F07F4118BF494292EA1B
:1001B000030F3FD0A2F1010241FA03FC10EB0C0047
:1001C000C3F1200301FA03F100F0004302D54942D4
:1001D00060EB4000B0F5000F13D3B0F1807F06D381
:1001E00040084FEA310102F10102FE2A51D2B1F179
:1001F000004F40EBC25008BF20F0010040EA03006E
:100200007047490040EB0000013A28BFB0F5000FED
:10021000EDD2B0FA80FCACF1080CB2EB0C0200FAA3
:100220000CF0AABF00EBC25052421843BCBFD040F2
:100230001843704792F0000F81F4000106BF80F46C
:1002400000000132013BB5E74FEA41037FEA226C2F
:1002500018BF7FEA236C21D092EA030F04D092F0FA
:10026000000F08BF0846704790EA010F1CBF00202E
:10027000704712F07F4F04D1400028BF40F000408B
:10028000704712F100723CBF00F50000704700F0AB
:10029000004343F0FE4040F4000070477FEA2262D2
:1002A00016BF08467FEA23630146420206BF5FEAA3
:1002B000412390EA010F40F4800070474FF00003A3
:1002C00004E000BF10F0004348BF40425FEA000C6A
:1002D00008BF704743F0964301464FF000001CE012
:1002E00050EA010208BF70474FF000030AE000BF68
:1002F00050EA010208BF704711F0004302D54042A6
:1003000061EB41015FEA010C02BF84460146002017
:1003100043F0B64308BFA3F18053A3F50003BCFA32
:100320008CF2083AA3EBC25310DB01FA02FC6344DF
:1003300000FA02FCC2F12002BCF1004F20FA02F2E6
:1003400043EB020008BF20F00100704702F12002D9
:1003500001FA02FCC2F1200250EA4C0021FA02F23A
:1003600043EB020008BF20EADC7070474FF0FF0C3F
:100370001CEAD0521EBF1CEAD15392EA0C0F93EA3A
:100380000C0F6FD01A4480EA010C400218BF5FEADC
:1003900041211ED04FF0006343EA501043EA51114F
:1003A000A0FB01310CF00040B1F5000F3EBF490049
:1003B00041EAD3715B0040EA010062F17F02FD2A4D
:1003C0001DD8B3F1004F40EBC25008BF20F0010030
:1003D000704790F0000F0CF0004C08BF49024CEA47
:1003E000502040EA51207F3AC2BFD2F1FF0340EAD9
:1003F000C250704740F400004FF00003013A5DDC4A
:1004000012F1190FDCBF00F000407047C2F100028A
:10041000410021FA02F1C2F1200200FA02FC5FEA77
:10042000310040F1000053EA4C0308BF20EADC70C1
:10043000704792F0000F00F0004C02BF400010F433
:10044000000F013AF9D040EA0C0093F0000F01F0E0
:10045000004C02BF490011F4000F013BF9D041EA02
:100460000C018FE70CEAD15392EA0C0F18BF93EA04
:100470000C0F0AD030F0004C18BF31F0004CD8D12E
:1004800080EA010000F00040704790F0000F17BFB5
:1004900090F0004F084691F0000F91F0004F14D0FB
:1004A00092EA0C0F01D142020FD193EA0C0F03D153
:1004B0004B0218BF084608D180EA010000F0004056
:1004C00040F0FE4040F40000704740F0FE4040F431
:1004D000400070474FF0FF0C1CEAD0521EBF1CEAD0
:1004E000D15392EA0C0F93EA0C0F69D0A2EB0302EE
:1004F00080EA010C49024FEA402037D04FF0805388
:1005000043EA111143EA10130CF000408B4238BF4C
:100510005B0042F17D024FF4000C8B4224BF5B1A5A
:1005200040EA0C00B3EB510F24BFA3EB510340EAA8
:100530005C00B3EB910F24BFA3EB910340EA9C0056
:10054000B3EBD10F24BFA3EBD10340EADC001B01C6
:1005500018BF5FEA1C1CE0D1FD2A3FF650AF8B426A
:1005600040EBC25008BF20F0010070470CF0004C77
:100570004CEA50207F32C2BFD2F1FF0340EAC250A2
:10058000704740F400004FF00003013A37E792F063
:10059000000F00F0004C02BF400010F4000F013AC1
:1005A000F9D040EA0C0093F0000F01F0004C02BFBC
:1005B000490011F4000F013BF9D041EA0C0195E725
:1005C0000CEAD15392EA0C0F08D142027FF47DAFBE
:1005D00093EA0C0F7FF470AF084676E793EA0C0FAE
:1005E00004D14B023FF44CAF08466EE730F0004CAC
:1005F00018BF31F0004CCAD130F000427FF45CAF3C
:1006000031F000437FF43CAF5FE700BF4FF0FF3CA9
:1006100006E000BF4FF0010C02E000BF4FF0010CFC
:100620004DF804CD4FEA40024FEA41037FEA226CC5
:1006300018BF7FEA236C11D001B052EA530C18BFE7
:1006400090EA010F58BFB2EB030088BFC81738BF4C
:100650006FEAE17018BF40F0010070477FEA226C3A
:1006600002D15FEA402C05D17FEA236CE4D15FEA36
:10067000412CE1D05DF8040B704700BF844608466A
:100680006146FFE70FB5FFF7C9FF002848BF10F12B
:10069000000F0FBD4DF808EDFFF7F4FF0CBF012070
:1006A00000205DF808FB00BF4DF808EDFFF7EAFFFA
:1006B00034BF012000205DF808FB00BF4DF808EDB5
:1006C000FFF7E0FF94BF012000205DF808FB00BFAA
:1006D0004DF808EDFFF7D2FF94BF012000205DF830
:1006E00008FB00BF4DF808EDFFF7C8FF34BF01203D
:1006F00000205DF808FB00BF4FEA40024FEA4103CB
:100700007FEA226C02D15FEA402C08D17FEA236C99
:1007100002D15FEA412C02D14FF0000070474FF048
:10072000010070474FEA4002B2F1FE4F0FD34FF085
:100730009E03B3EB12620DD94FEA002343F000434E
:1007400010F0004F23FA02F018BF404270474FF0FC
:100750000000704712F1610F01D1420205D110F083
:10076000004008BF6FF0004070474FF00000704736
:1007700042000ED2B2F1FE4F0BD34FF09E03B3EB0B
:10078000126209D44FEA002343F0004323FA02F037
:1007900070474FF00000704712F1610F01D1420223
:1007A00002D14FF0FF3070474FF00000704700BF9C
:1007B00010B504460268314B9A4204D02368B3F165
:1007C000804F03D010BD00F0CFFCF7E72C4B1B7817
:1007D000012B24D02B4A1278022A25D0284B1B78D3
:1007E000022B2AD0274A1278052A2BD0244B1B78BB
:1007F000032B30D0234A1278022A31D0204B1B78A9
:10080000042B36D01F4A1278022ADBD1042BD9D10F
:100810001C4B00221A701A4B05221A70D2E7194994
:100820000A7801320A70D5E7012BD7D1154B002287
:100830001A70134B02221A70D0E712490A7801325B
:100840000A70CFE7022BD1D10E4B00221A700C4B4D
:1008500003221A70CAE70B490A7801320A70C9E705
:10086000032BCBD1074B00221A70054B04221A70C0
:10087000C4E704490A7801320A70C3E7000800405F
:10088000D03800203401002072B6FEE700B591B0E8
:100890002822002106A806F009F8002301930293FC
:1008A000039304930593012206924FF48033079338
:1008B0000A9202220D920E934FF4E0130F9306A8B2
:1008C00000F08EFC80B90F230193022102910023D6
:1008D00003934FF480620492059301A800F0B2FEE6
:1008E00020B911B05DF804FBFFF7CEFFFFF7CCFF96
:1008F00008B500F027FCFFF7C9FF00F015F802F07B
:10090000C9FB00F0E1F800F0BDF805F08FFA05F042
:1009100077FB05F0C7FA05F04FFA05F017FA04F077
:1009200059F805F095F9FEE72DE9F04389B0002468
:1009300004940594069407944E4B9A6942F0100271
:100940009A619A6902F010020092009A9A6942F044
:1009500020029A619A6902F020020192019A9A6932
:1009600042F004029A619A6902F004020292029A29
:100970009A6942F008029A619B6903F008030393A5
:10098000039B3D4D22460121284601F06EF80122CD
:1009900041F60601284601F068F8384F224640210A
:1009A000384601F062F84FF00308CDF810801123AB
:1009B00005930694CDF81C8004A9284600F03CFF5E
:1009C00004230493012605960694CDF81C8004A9FF
:1009D000284600F031FF10230493DFF8A490CDF8EF
:1009E00014900223069304A9284600F025FF4FF433
:1009F000C053049305960696CDF81C8004A928469A
:100A000000F01AFF4FF400430493CDF814900694BD
:100A100004A9284600F010FF08230493CDF8149091
:100A2000069404A9384600F007FF40230493059676
:100A30000694079604A9384600F0FEFE802304932E
:100A40000594069604A9384600F0F6FE22460521D4
:100A5000092001F009F9092001F03EF9224605219B
:100A6000282001F001F9282001F036F909B0BDE88D
:100A7000F08300BF0010024000080140000C01405C
:100A80000000111008B50E480E4B03604FF482733E
:100A9000436000238360C360036143614FF40072CD
:100AA00082612022C2610362436283620A23C362BD
:100AB00000F0C2F900B908BDFFF7E6FEFBE700BF92
:100AC000C00100200030014008B50F480F4B036003
:100AD0004FF48273436000238360C360022202618B
:100AE000012242614FF4007282612822C2610362D6
:100AF000436283620A23C36200F09EF900B908BD15
:100B0000FFF7C2FEFBE700BF1802002000380040DC
:100B100070B588B000230493059306930793036888
:100B2000444A934205D00446434A934229D008B030
:100B300070BD424B9A6942F480529A619A6902F4FC
:100B400080520092009A9A6942F004029A619B696D
:100B500003F004030193019BA02304930223059354
:100B600003230793364C04A9204600F065FE40237A
:100B7000049300230593069304A9204600F05CFE2D
:100B8000D5E72E4BDA6942F48042DA61DA6902F481
:100B900080420292029A9A6942F008029A619B6925
:100BA00003F008030393039B4FF4204304930223B1
:100BB000059303230793234E04A9304600F03CFE1F
:100BC0004FF48043049300250595069504A930460B
:100BD00000F032FE1C481D4B036045608560802399
:100BE000C3600561456185614FF44053C36100F006
:100BF00051FFC0B9144BE3645C621548154B0360A8
:100C000010234360002383608022C260036143613C
:100C100083614FF40053C36100F03CFF30B90C4BCB
:100C2000A3645C6283E7FFF72FFEE3E7FFF72CFE88
:100C3000F5E700BF003001400038004000100240DE
:100C400000080140000C014038010020440002402F
:100C50007C01002058000240FEE7FEE7FEE7FEE7C9
:100C6000FEE7704708B5082000F006FF08BD000049
:100C700008B5024800F044FF08BD00BF380100205D
:100C800008B5024800F03CFF08BD00BF7C01002011
:100C900008B5024801F093F808BD00BF20390020D4
:100CA00008B5024801F08BF808BD00BF6839002084
:100CB00008B5024801F083F808BD00BFA03B002042
:100CC00008B54FF4004000F0D7FE08BD00B583B072
:100CD000114B9A6942F001029A619A6902F001028D
:100CE0000092009ADA6942F08052DA61DB6903F01F
:100CF00080530193019B00220F216FF0010000F04F
:100D0000B3FF064A536823F0E06343F00073536077
:100D100003B05DF804FB00BF00100240000001407A
:100D20002DE9F04782B00546884617461E4600F07A
:100D300027FA0A9B1B1A03EB060900F021FA8246E8
:100D40002B4B1B68C3F3CB3309FB03F301932B68D5
:100D50009C6838EA04030CBF4FF0010C4FF0000C04
:100D6000BC4540D0B6F1FF3FF1D000F009FAA0EB4E
:100D70000A0048450AD2B9F1000F07D0019A02B122
:100D80004A46019B013B01939146E0E72A6853687C
:100D900023F0E00353606B68B3F5827F0BD0AB6A3E
:100DA000B3F5005F14D0012385F85130002385F896
:100DB0005030032018E0AB68B3F5004F02D0B3F514
:100DC000806FECD12A68136823F040031360E6E7D4
:100DD0002A68136823F4005313602A68136843F4E5
:100DE00000531360DFE7002002B0BDE8F08700BFCA
:100DF0000800002070B582B006460C4615460092E9
:100E00000B4601220221FFF78BFF48B900952346CC
:100E1000002280213046FFF783FF38B902B070BD51
:100E2000736D43F0200373650320F7E7736D43F0A0
:100E3000200373650320F1E7002856D010B504465F
:100E4000436A33B94368B3F5827F05D00023C36199
:100E500002E00023036143610023A36294F8513050
:100E6000002B3CD0022384F851302268136823F011
:100E700040031360636803F48273A26802F40442BF
:100E80001343E26802F400621343226902F0020293
:100E90001343626902F001021343A26902F4007273
:100EA0001343E26902F038021343226A02F080021F
:100EB0001343A26A02F40052216813430B60638B50
:100EC000226803F0040353602268D36923F40063AB
:100ED000D36100206065012384F8513010BD84F88F
:100EE00050302046FFF714FEBCE7012070472DE983
:100EF000F04383B00446884691461F460A9D00F0A1
:100F00003FF9064694F85130DBB26268012B0AD0F3
:100F1000B2F5827F40F00581A268002A40F0058189
:100F2000042B40F00481B8F1000F00F00281B9F108
:100F3000000F00F00081002F00F0FF8094F8503087
:100F4000012B00F0FC80012384F8503094F85130DC
:100F5000DBB2042B02D0052384F8513000236365F3
:100F6000C4F83890E787A787C4F83080E786A7865B
:100F70002364636423681A6812F0400F03D11A686F
:100F800042F040021A60E368B3F5006F11D0636865
:100F90000BB1012F0BD1226B236812781A73236BCC
:100FA00001332363E38E9BB2013B9BB2E3860127AF
:100FB00071E063680BB1012F0BD1226B236812889B
:100FC000DA60236B02332363E38E9BB2013B9BB257
:100FD000E38601271BE023689A6812F0010F0ED008
:100FE000E28F92B25AB1DA68A36B1A80A36B023314
:100FF000A363E38F9BB2013B9BB2E387012700F021
:10100000BFF8801BA84202D3B5F1FF3F1ED1E38E8B
:101010009BB21BB9E38F9BB2002B62D023689A6806
:1010200012F0020FD7D0E28E92B2002AD3D0002F56
:10103000D1D0226B1288DA60236B02332363E38EF4
:101040009BB2013B9BB2E3860027C4E7012384F8EF
:101050005130002384F85030032063E023689A68FD
:1010600012F0010F0ED0E28F92B25AB1DA68A36B80
:101070001A70A36B0133A363E38F9BB2013B9BB256
:10108000E387012700F07CF8831BAB4202D3B5F164
:10109000FF3F1ED1EDB1E38E9BB213B9E38F9BB23C
:1010A000FBB123689A6812F0020FD7D0E28E92B299
:1010B000002AD3D0002FD1D0226B12781A73236B61
:1010C00001332363E38E9BB2013B9BB2E38600278F
:1010D000C4E7012384F85130002384F85030032002
:1010E00020E0324629462046FFF784FE90B9A368E7
:1010F00033B901932368DA6801929B680193019BDD
:10110000012384F85130002384F85030636D4BB1D3
:10111000012007E020236365002384F8503001207C
:1011200000E0022003B0BDE8F0830220FAE70220CD
:10113000F8E70120F6E70120F4E70120F2E70220BA
:10114000F0E7000008B5074A136843F01003136086
:10115000032000F077FD0F2005F0E4FAFFF7B6FD5D
:10116000002008BD00200240034A1168034B1B7891
:101170000B441360704700BF700200200000002085
:10118000014B1868704700BF7002002038B5044654
:10119000FFF7F6FF0546B4F1FF3F02D0044B1B7882
:1011A0001C44FFF7EDFF401BA042FAD338BD00BF3F
:1011B0000000002082B0084B1B68084AA2FB0323F2
:1011C0005B0A00FB03F3019300BF019B5A1E0192CF
:1011D000002BF9D102B0704708000020D34D6210F7
:1011E000002800F0F18170B582B00446036813F066
:1011F000010F2CD0994B5B6803F00C03042B1DD01E
:10120000964B5B6803F00C03082B12D06368B3F5B0
:10121000803F41D0002B55D103F1804303F50433C7
:101220001A6822F480321A601A6822F480221A6046
:1012300037E08A4B5B6813F4803FE7D0874B1B682D
:1012400013F4003F03D06368002B00F0BF812368D4
:1012500013F0020F75D0814B5B6813F00C0F5FD059
:101260007E4B5B6803F00C03082B54D02369002BE2
:1012700000F08A807A4B01221A60FFF781FF054651
:10128000764B1B6813F0020F75D1FFF779FF401BF7
:101290000228F5D903209EE1704A136843F4803395
:1012A0001360636843B3FFF76BFF05466B4B1B6826
:1012B00013F4003FCBD1FFF763FF401B6428F5D93F
:1012C000032088E1B3F5A02F09D0644B1A6822F4FB
:1012D00080321A601A6822F480221A60E1E703F172
:1012E0008043A3F53C331A6842F480221A601A68DE
:1012F00042F480321A60D4E7FFF742FF0546574BAD
:101300001B6813F4003FA2D0FFF73AFF401B64288C
:10131000F5D903205FE1514B5B6813F4803FA5D101
:101320004E4B1B6813F0020F03D02369012B40F0D2
:101330004F814A4A136823F0F803616943EAC10305
:101340001360236813F0080F33D0A369002B5CD01F
:10135000434B0122C3F88024FFF712FF05463F4BA1
:101360005B6A13F0020F21D1FFF70AFF401B02282E
:10137000F5D903202FE1394A136823F0F803616996
:1013800043EAC1031360DCE7354B00221A60FFF724
:10139000F7FE0546314B1B6813F0020FD1D0FFF763
:1013A000EFFE401B0228F5D9032014E10120FFF7CE
:1013B00001FF236813F0040F00F09680274BDB69D0
:1013C00013F0805F34D1254BDA6942F08052DA6144
:1013D000DB6903F080530193019B0125214B1B68BE
:1013E00013F4807F26D0E368012B3DD0002B53D12E
:1013F00003F1804303F504331A6A22F001021A62F2
:101400001A6A22F004021A6233E0154B0022C3F874
:101410008024FFF7B5FE0546104B5B6A13F0020F00
:10142000C7D0FFF7ADFE401B0228F5D90320D2E05C
:101430000025D3E70B4A136843F480731360FFF76A
:101440009FFE0646074B1B6813F4807FCBD1FFF746
:1014500097FE801B6428F5D90320BCE000100240F1
:1014600000004242007000405F4A136A43F00103EB
:101470001362E36833B3FFF783FE06465A4B1B6AD9
:1014800013F0020F2FD1FFF77BFE801B41F2883350
:101490009842F3D903209EE0052B09D0524B1A6ADB
:1014A00022F001021A621A6A22F004021A62E0E7CC
:1014B0004D4B1A6A42F004021A621A6A42F00102A3
:1014C0001A62D6E7FFF75CFE0646474B1B6A13F02D
:1014D000020F08D0FFF754FE801B41F28833984278
:1014E000F3D9032077E0E5B9E369002B72D03E4AD7
:1014F000526802F00C02082A56D0022B17D03B4B40
:1015000000221A66FFF73CFE0446374B1B6813F0B7
:10151000007F47D0FFF734FE001B0228F5D90320D7
:1015200059E0314AD36923F08053D361DCE72F4B74
:1015300000221A66FFF724FE05462B4B1B6813F0AA
:10154000007F06D0FFF71CFE401B0228F5D90320C0
:1015500041E0236AB3F5803F1AD023494B6823F456
:101560007413226A606A024313434B601F4B0122CB
:101570001A66FFF705FE04461B4B1B6813F0007F3D
:101580000ED1FFF7FDFD001B0228F5D9032022E054
:10159000154A536823F40033A1680B435360DCE71A
:1015A000002018E0002016E0012B16D00E4B5B68DF
:1015B00003F48031226A914211D103F47013626AFC
:1015C00093420ED1002006E001207047012002E086
:1015D000012000E0002002B070BD0120FBE70120E7
:1015E000F9E70120F7E700BF001002400000424287
:1015F0000F4B5B6803F00C02082A01D00D487047BE
:10160000C3F383420C49885C13F4803F0BD0084B32
:101610005B68C3F34043094AD35C064A02FB00F00F
:10162000B0FBF3F07047064B03FB00F0704700BFC0
:101630000010024000127A00988A0008A88A000868
:1016400000093D00002800F0A08070B50D4604465A
:10165000524B1B6803F007038B420BD24F4A1368AF
:1016600023F007030B431360136803F007038B4257
:1016700040F08D80236813F0020F17D013F0040F91
:1016800004D0474A536843F4E0635360236813F07F
:10169000080F04D0424A536843F460535360404AF1
:1016A000536823F0F003A1680B435360236813F0E1
:1016B000010F31D06368012B20D0022B25D0384A8E
:1016C000126812F0020F64D035494A6822F0030212
:1016D00013434B60FFF754FD0646314B5B6803F044
:1016E0000C036268B3EB820F16D0FFF749FD801B35
:1016F00041F288339842F0D9032045E0284A126825
:1017000012F4003FE0D101203EE0254A126812F0B9
:10171000007FD9D1012037E0204B1B6803F007037D
:10172000AB420AD91D4A136823F007032B43136009
:10173000136803F00703AB422DD1236813F0040FA5
:1017400006D0174A536823F4E063E1680B43536003
:10175000236813F0080F07D0114A536823F460532D
:10176000216943EAC1035360FFF742FF0C4B5B68FA
:10177000C3F303130B4AD35CD8400B4B18600B4BDD
:10178000186804F0CFFF002070BD012070470120D1
:10179000FAE70120F8E70120F6E700BF0020024049
:1017A00000100240AC8A000808000020040000205D
:1017B000014B1868704700BF0800002008B5FFF70C
:1017C000F7FF044B5B68C3F30223034AD35CD840A2
:1017D00008BD00BF00100240BC8A000808B5FFF732
:1017E000E7FF044B5B68C3F3C223034AD35CD840D2
:1017F00008BD00BF00100240BC8A00080F23036030
:101800000B4B5A6802F0030242605A6802F0F00281
:1018100082605A6802F4E062C2605B68DB0803F42D
:10182000E0630361034B1B6803F007030B60704721
:10183000001002400020024070B582B00024A4468F
:10184000A6E0804DAA4210D007D97F4DAA420CD005
:1018500005F58035AA4208D013E0A5F58015AA4207
:1018600003D005F57025AA4207D18A68002A58D00E
:10187000012A51D04361082403E0A5F58015AA424E
:10188000F3D0BEF1FF0F4ED80646BEF1FF0F4CD885
:101890004FEA8C0233680F25954023EA050304FACA
:1018A00002F2134333604B6813F0805F6ED0674BD6
:1018B0009A6942F001029A619B6903F00103019366
:1018C000019B4FEA9C02951C614B53F825600CF07C
:1018D00003039D000F23AB4026EA03065D4B9842AD
:1018E00029D003F58063984200F08E8003F5806371
:1018F000984200F08B8003F58063984219D004234E
:101900001AE0CC68BDE7CC680434BAE7CC68083488
:10191000B7E7CC680C34B4E703610824B1E70024CE
:10192000AFE70424ADE7061DAFE7ACF10802920073
:10193000B0E7032300E00023AB4033430232444DC1
:1019400045F822304B6813F4801F61D0424A9368F7
:1019500043EA0E0393604B6813F4001F5ED03E4AC7
:10196000D36843EA0E03D3604B6813F4003F5BD0A7
:10197000394A536843EA0E0353604B6813F4803FBF
:1019800058D0354A136843EA0E0313600CF1010C7A
:101990000A6832FA0CF353D0012303FA0CF302EA7B
:1019A000030E33EA0202F1D14A68122A3FF649AF28
:1019B000122A3FF666AF01A555F822F06B18000811
:1019C000031900080D1900081F19000883180008E2
:1019D000831800088318000883180008831800087B
:1019E000831800088318000883180008831800086B
:1019F000831800088318000883180008831800085B
:101A00000719000813190008012395E7022393E73B
:101A1000114A936823EA0E0393609CE70E4AD36849
:101A200023EA0E03D3609FE70B4A536823EA0E03B1
:101A30005360A2E7084A136823EA0E031360A5E780
:101A400002B070BD000022100000311000100240F2
:101A50000000014000080140000401408368194271
:101A600001D001207047002070470AB10161704722
:101A7000090401617047000008B5054B5B6903422A
:101A800000D108BD024B586104F08CFAF9E700BFA1
:101A90000004014060B310B402460168154B0B44CA
:101AA0001548A0FB03031B099B001364134BD3636E
:101AB000022382F82130086820F47F5020F03000A3
:101AC000536894682343D4682343146923435469B7
:101AD000234394692343D469234303430B600020C9
:101AE0009063012382F8213082F8200010BC7047F7
:101AF00001207047F8FFFDBFCDCCCCCC00000240E8
:101B000038B5C36B1A6804682568016C04238B40E0
:101B1000134235D015F0040F32D0236813F0200F94
:101B200003D1236823F0040323600368434A9342EC
:101B300014D01432934218D01432934217D0143276
:101B4000934217D01432934217D01432934202D0EA
:101B50004FF0806203E04FF4800200E00422384B33
:101B60005A60C36A03B1984738BD4022F7E74FF483
:101B70008062F4E74FF48042F1E74FF48022EEE711
:101B800002238B4013423CD015F0020F39D023685A
:101B900013F0200F06D1236823F00A0323600123EA
:101BA00080F821300368254A934214D014329342BE
:101BB0001CD0143293421BD0143293421BD01432E7
:101BC00093421BD01432934202D04FF0007203E0D4
:101BD0004FF4001200E00222194B5A60002380F8F3
:101BE0002030836A002BBFD09847BDE72022F3E75F
:101BF0004FF40072F0E74FF40052EDE74FF400327B
:101C0000EAE7082303FA01F11142ADD015F0080FFD
:101C1000AAD0236823F00E032360026CC16B01235A
:101C200003FA02F24A60836380F82130002380F8CF
:101C30002030036B002B97D0984795E708000240AF
:101C400000000240074AD36823F4E0631B041B0C26
:101C5000000200F4E060034343F0BF6343F4003349
:101C6000D360704700ED00E000B5194BDB68C3F3AB
:101C70000223C3F1070CBCF1040F28BF4FF0040C82
:101C800003F1040EBEF1060F18D9033B4FF0FF3EDF
:101C90000EFA0CFC21EA0C0199400EFA03F322EA39
:101CA0000303194300280BDB0901C9B200F16040AE
:101CB00000F5614080F800135DF804FB0023E5E7C0
:101CC00000F00F000901C9B2024B1954F4E700BF3C
:101CD00000ED00E014ED00E0002807DB00F01F023B
:101CE000400901239340024A42F82030704700BF68
:101CF00000E100E010B4036A046A24F00104046205
:101D0000846924F0F00C4CEA021223F00A030B431E
:101D10008261036210BC704710B4036A046A24F045
:101D200010040462846924F4704C4CEA023223F0FB
:101D3000A00343EA01138261036210BC7047836809
:101D400023F070030B4343F00703836070470000E8
:101D500090F83D30DBB2012B27D1022380F83D30D3
:101D60000268D36843F00103D3600368114A9342C9
:101D700010D0B3F1804F0DD0A2F59432934209D028
:101D800002F58062934205D01A6842F001021A609F
:101D9000002070479A6802F00702062A07D01A68E6
:101DA00042F001021A6000207047012070470020B5
:101DB000704700BF002C014070477047704770B5F6
:101DC00004460368DE681D6915F0020F10D016F096
:101DD000020F0DD06FF002021A610123037703682E
:101DE0009B6913F0030F5ED004F0ECFC0023237713
:101DF00015F0040F12D016F0040F0FD023686FF007
:101E000004021A610223237723689B6913F4407F3D
:101E10004FD0204604F0D6FC0023237715F0080F9E
:101E200012D016F0080F0FD023686FF008021A6165
:101E3000042323772368DB6913F0030F40D0204687
:101E400004F0C0FC0023237715F0100F12D016F019
:101E5000100F0FD023686FF010021A610823237748
:101E60002368DB6913F4407F31D0204604F0AAFCDC
:101E70000023237715F0010F02D016F0010F2DD1AA
:101E800015F0800F02D016F0800F2FD115F0400F03
:101E900002D016F0400F31D115F0200F02D016F00D
:101EA000200F33D170BDFFF787FF2046FFF785FF76
:101EB0009CE72046FFF780FF2046FFF77EFFABE759
:101EC0002046FFF779FF2046FFF777FFBAE7204665
:101ED000FFF772FF2046FFF770FFC9E723686FF036
:101EE00001021A612046FEF763FCC9E723686FF020
:101EF00080021A61204600F042F9C7E723686FF0BC
:101F000040021A612046FFF759FFC5E723686FF0CA
:101F100020021A61204600F031F9C3E703681F4A26
:101F200090420AD0B0F1804F07D0A2F5943290428F
:101F300003D002F58062904203D123F070034A6817
:101F40001343164A90420AD0B0F1804F07D0A2F551
:101F50009432904203D002F58062904203D123F480
:101F60004073CA68134323F080034A691343036034
:101F70008B68C3620B688362084B98420AD00123C6
:101F80004361036913F0010F03D0036923F00103D8
:101F9000036170470B690363F1E700BF002C014048
:101FA00040B310B5044690F83D30F3B1022384F8F5
:101FB0003D30214651F8040BFFF7B0FF012384F8B0
:101FC000463084F83E3084F83F3084F8403084F85E
:101FD000413084F8423084F8433084F8443084F847
:101FE000453084F83D30002010BD80F83C3003F0CF
:101FF00091FFDBE70120704710B4846824F47F4C24
:1020000042EA03220A4342EA0C02826010BC704793
:1020100090F83C30012B78D010B50446012380F8AD
:102020003C30022380F83D300268936823F47F43FC
:1020300023F0770393600B68602B4CD029D8402B9A
:1020400054D00CD9502B22D1CA6849680068FFF7D8
:1020500051FE50212068FFF772FE002005E0202B82
:102060000DD009D9302B0AD00120012384F83D304E
:10207000002384F83C3010BD0BB1102B05D119465C
:102080002068FFF75CFE0020EFE70120EDE701206C
:10209000EBE7B3F5805F34D0B3F5005F0CD1CB68CC
:1020A0004A6889680068FFF7A7FF2268936843F4CD
:1020B000804393600020D8E7702B24D1CB684A6816
:1020C00089680068FFF798FF2268936843F07703F8
:1020D00093600020C9E7CA6849680068FFF71CFEE2
:1020E00060212068FFF72BFE0020BEE7CA68496820
:1020F0000068FFF7FFFD40212068FFF720FE002069
:10210000B3E70020B1E70120AFE7022070470000ED
:1021100090F83C30012B2CD010B4012380F83C30D7
:10212000022380F83D3003685A689C6822F0700CE6
:102130000A6842EA0C025A6003680F4A93420AD0C6
:10214000B3F1804F07D0A2F59432934203D002F549
:102150008062934204D124F080044A6814439C6056
:10216000012380F83D30002380F83C30184610BC35
:1021700070470220704700BF002C01407047704735
:102180007047000010B503460C4A0D490D48006821
:1021900040B10C4800680344521A934206D8094AD9
:1021A000136010BD0748084C0460F2E704F03EFBE2
:1021B0000C2303604FF0FF30F3E700BF0050002016
:1021C0000004000074020020003C002010B50C4602
:1021D00000F028FA204600F025FA10BD10B50C4694
:1021E00040F0800000F01EFA552000F01BFA20702D
:1021F00010BD38B50D46144640F0800000F012FACC
:1022000006E0552000F00EFA05F8010B013CE4B29F
:10221000002CF6D138BD0000F8B500F0DBF98020C5
:1022200000F000FA552000F0FDF9552000F0FAF911
:1022300000F0DAF9962000F0A5F900F0CBF9802043
:1022400000F0F0F9552000F0EDF9552000F0EAF922
:1022500000F0CAF9962000F095F900F0BBF9B6211C
:102260007E20FFF7B3FF00F0BFF9502000F0A6F981
:1022700000F0B0F9802000F0D5F9552000F0D2F937
:10228000552000F0CFF900F0AFF9962000F07AF970
:1022900000F0A0F9802000F0C5F9552000F0C2F947
:1022A000552000F0BFF9044600F09EF9962000F09A
:1022B00069F91E2C32D10024052C2DD800F08AF9A2
:1022C000174A04EB4403D1184E78D55C31462846B2
:1022D000FFF77CFF00F088F9962000F053F900F03A
:1022E00079F945F0800000F09DF9552000F09AF949
:1022F000552000F097F9054600F076F9962000F099
:1023000041F9AE4202D10134E4B2D5E704EB44070F
:10231000034B1F44B87800E00020F8BDFF20FCE725
:10232000C48A0008F0B583B000248DF8074000F09F
:1023300065F90DF107012046FFF750FF00F068F93D
:10234000962000F01FF900F059F90DF10701204621
:10235000FFF744FF00F05CF9962000F013F900F05D
:102360004DF9B6211420FFF731FF00F051F950204C
:1023700000F024F900F042F90DF107012046FFF7C3
:102380002DFF00F045F9962000F0FCF800F036F93A
:102390000DF107012046FFF721FF00F039F99620E3
:1023A00000F0F0F89DF807300F2B2ED1052C29D81E
:1023B00000F024F9164A04EB4403D1184D78D65C9A
:1023C00029463046FFF702FF00F022F9962000F080
:1023D000D9F800F013F90DF107013046FFF7FEFEC2
:1023E00000F016F9962000F0CDF89DF807309D42D8
:1023F00002D10134E4B2D9E704EB4407044B1F4493
:10240000B87800E0002003B0F0BDFF20FBE700BF7C
:10241000D88A000810B500F0B3F800F0B2F8FFF762
:10242000FBFE0446FFF77EFF2043C0B210BD000054
:1024300070B582B004464E4B93E803000090ADF8AF
:102440000410090C8DF8061000258DF8075000F0D7
:10245000C1F8922000F0E6F8062269461220FFF744
:10246000C8FE00F0C1F89DF801301B021BB29DF8B8
:1024700000001843FDF726FF3E4E3168FDF776FF5A
:1024800020609DF803301B021BB29DF802003668E5
:102490001843FDF717FF3146FDF768FF60609DF8B0
:1024A00005301B021BB29DF804001843FDF70AFF1C
:1024B0003146FDF75BFFA06000F0A0F808226946F6
:1024C0002846FFF796FE00F0A3F89DF800300F2B8A
:1024D00023D000F07FF8A22000F0A4F80222694681
:1024E0002220FFF786FE00F07FF89DF800309DF86F
:1024F0000100400940EAC300B0F5806F01DBA0F5A0
:102500000060FDF7DFFE4FF07851FDF72FFF1A490D
:10251000FDF724FEE06102B070BD9DF803301B02A0
:102520001BB29DF80200154A15681843FDF7CAFE54
:102530002946FDF71BFFE0609DF805301B021BB22A
:102540009DF804001843FDF7BDFE2946FDF70EFF78
:1025500020619DF807301B021BB29DF8060018434E
:10256000FDF7B0FE2946FDF701FF6061B1E700BF4E
:10257000248A00080C0000200000B8411000002050
:102580007047704710B44FF0E0235C694FF0A80C1F
:102590000CFB00FC9B69002104E0E01A024411449A
:1025A000614509D21A464FF0E0239B699A42FAD05E
:1025B000F3D9D21A1144F3E710BC704710B504E008
:1025C0004FF47A70FFF7DEFF2046431E9CB20028CE
:1025D000F6D110BD08B500224FF400610148FFF7A5
:1025E00044FA08BD0008014008B501224FF400611B
:1025F0000148FFF73AFA08BD0008014008B500227B
:102600004FF480510148FFF730FA08BD000801403F
:1026100008B501224FF480510148FFF726FA08BDA2
:102620000008014000B587B08DF80F004FF47A73B1
:10263000009301230DF117020DF10F010348FEF77E
:1026400056FC9DF8170007B05DF804FB1802002047
:10265000F0B58BB006460024079408940994002333
:10266000049305934FF07E530693019402940394D0
:1026700017E02D4D2846FFF7DBFE29680798FDF788
:102680006DFD079069680898FDF768FD0890A968D6
:102690000998FDF763FD09900120FEF777FD0134ED
:1026A000E4B2632CE5D900240BE00AAB03EB84050C
:1026B0001E4955F80C0CFDF70DFF45F80C0C0134C4
:1026C000E4B2022CF1D907A801F0F4FB04A907A891
:1026D00001F051FC04F016FA044601AA04A907A867
:1026E00001F01AFC01A801F0E5FB4FF07C512046F7
:1026F000FDF73CFE054604F093F9306000240FE03E
:102700000AAB03EB840353F8247C284604F0C0F999
:10271000014601343846FDF729FE46F82400E4B2AC
:10272000012CEDD90BB0F0BD780200200000C842AA
:102730002DE9F04F8FB004468A4693460569944BC5
:1027400019682846FDF708FD20F000409149FDF783
:10275000C9FFC8B9904B19686069FDF7FDFC20F00E
:1027600000408C49FDF7BEFF70B98C4B1968A06919
:10277000FDF7F2FC20F000408649FDF7B3FF18B9E1
:102780002378002B00F0888085492846FDF7A2FEBB
:1027900006F0ECF8814682496069FDF79BFE06F081
:1027A000E5F880467E49A069FDF794FE06F0DEF864
:1027B00001907B492069FDF78DFE06F08BF80546F8
:1027C00077496069FDF786FE06F084F8064674498D
:1027D000A069FDF77FFE06F07DF80746019948469F
:1027E000FDF7C4FD029031462846FDF7BFFD39468E
:1027F000FDF7BCFD01460298FDF7B0FC694B18607F
:1028000029464046FDF7B2FD674B186039464846F9
:10281000FDF7ACFD039029460198FDF7A7FD049054
:102820003146FDF7A3FD01460398FDF795FC5F4B8C
:10283000186031464846FDF799FD3946FDF796FD8B
:102840000499FDF789FC5A4B186041464846FDF74C
:102850008DFD584B186005F100403946FDF786FDA7
:10286000054631460298FDF781FD01462846FDF7F1
:1028700073FC514B186008F100403946FDF776FDB6
:102880004E4B18604E4B1E6001994046FDF76EFDA1
:102890004C4B18600023237000250FE0AE0004EBC2
:1028A000850359685AF82500FDF760FD06F13803E5
:1028B0000DEB030646F80C0C0135EDB2022DEDD9F7
:1028C0000B9D384B1B68019319462846FDF74EFDBA
:1028D00006460C9F344B1B68029319463846FDF799
:1028E00045FD01463046FDF739FC80460D9E2F4BD5
:1028F0001B68039319463046FDF738FD01464046F4
:10290000FDF72CFCCAF80000294B1B6804931946FC
:102910002846FDF72BFD8046264B1B68059319467C
:102920003846FDF723FD01464046FDF717FC80467B
:10293000214B1B68069319463046FDF717FD0146EB
:102940004046FDF70BFCCAF804001C4B1B680793BC
:1029500019462846FDF70AFD0546194BD3F80090A5
:1029600049463846FDF702FD01462846FDF7F6FBCD
:102970000546144BD3F8008041463046FDF7F6FC7F
:1029800001462846FDF7EAFBCAF80800002324E0C8
:102990007C0300206F12833A740300207803002028
:1029A000E12E6542480300204C0300205003002024
:1029B00054030020580300205C0300206003002023
:1029C00064030020680300205BF823100EAA02EBCA
:1029D000830242F8181C0133DBB2022BF4D9089FA2
:1029E00039460198FDF7C2FC0546099E314602981A
:1029F000FDF7BCFC01462846FDF7B0FB82460A9D68
:102A000029460398FDF7B2FC01465046FDF7A6FBA8
:102A1000CBF8000039460498FDF7A8FC8246314601
:102A20000598FDF7A3FC01465046FDF797FB82464B
:102A300029460698FDF79AFC01465046FDF78EFBA5
:102A4000CBF8040039460798FDF790FC074631465D
:102A50004846FDF78BFC01463846FDF77FFB0646EE
:102A600029464046FDF782FC01463046FDF776FBDD
:102A7000CBF808002269054B1A606269044B1A60A2
:102A8000A269044B1A600FB0BDE8F08F7C030020F0
:102A900074030020780300201A4B93F878300BB1B0
:102AA00019487047F0B587B0164F012487F8784071
:102AB000FFF7B0FC15481023C361FEF7BDF9144BB6
:102AC0004FF07E555D609D60DD6000261E615E6199
:102AD0009E611C700024029403940494059402A83F
:102AE000FFF7B6FD019600950A4B0B4A0B4902A869
:102AF00000F0BCFE0A4BBB620A4B1B685C620248DA
:102B000007B0F0BDC8020020180300201802002002
:102B1000AC020020002474496F12833A0000204167
:102B200096430B3C203900202DE9F04F83B0054639
:102B30000E461446976839463846FDF717FC01469D
:102B40004FF07C50FDF708FB8146D4F80C804146DD
:102B50004046FDF70BFC01464846FDF7FDFA2968A3
:102B6000FDF704FC0190D4F804B059463846FDF74F
:102B7000FDFB8146D4F800A051464046FDF7F6FB28
:102B800001464846FDF7E8FA6968FDF7EFFB0146A4
:102B90000198FDF7E3FA814659464046FDF7E6FB0A
:102BA000804651463846FDF7E1FB01464046FDF7B9
:102BB000D5FAA968FDF7DAFB01464846FDF7CEFADB
:102BC0000146FDF7CBFA30606768D4F808B0594683
:102BD0003846FDF7CBFB8146D4F800A0D4F80C8032
:102BE00041465046FDF7C2FB01464846FDF7B6FA9E
:102BF0002968FDF7BBFB019039463846FDF7B6FB67
:102C000001464FF07C50FDF7A7FA81464146404609
:102C1000FDF7ACFB01464846FDF79EFA6968FDF7F3
:102C2000A5FB01460198FDF799FA814641465846B1
:102C3000FDF79CFB804651463846FDF797FB014661
:102C40004046FDF789FAA968FDF790FB0146484622
:102C5000FDF784FA0146FDF781FA70606768D4F8E1
:102C60000C9049463846FDF781FB8046D4F800A019
:102C7000A46821465046FDF779FB01464046FDF722
:102C80006BFA2968FDF772FB804621464846FDF73E
:102C90006DFB814651463846FDF768FB01464846C4
:102CA000FDF75CFA6968FDF761FB01464046FDF7F8
:102CB00055FA804639463846FDF758FB01464FF035
:102CC0007C50FDF749FA074621462046FDF74EFBAA
:102CD00001463846FDF740FAA968FDF747FB014673
:102CE0004046FDF73BFA0146FDF738FAB06003B005
:102CF000BDE8F08F2DE9F04F83B005460E4614462F
:102D0000976839463846FDF731FB01464FF07C5055
:102D1000FDF722FA8146D4F80C8041464046FDF783
:102D200025FB01464846FDF717FA2968FDF71EFB0B
:102D30000190D4F804B059463846FDF717FB814698
:102D4000D4F800A051464046FDF710FB0146484626
:102D5000FDF704FA6968FDF709FB01460198FDF7E4
:102D6000FDF9814659464046FDF700FB8046514635
:102D70003846FDF7FBFA01464046FDF7EDF9A96834
:102D8000FDF7F4FA01464846FDF7E8F90146FDF77C
:102D9000E5F930606768D4F808B059463846FDF761
:102DA000E5FA8146D4F800A0D4F80C80414650469C
:102DB000FDF7DCFA01464846FDF7CEF92968FDF734
:102DC000D5FA019039463846FDF7D0FA01464FF062
:102DD0007C50FDF7C1F9814641464046FDF7C6FAF1
:102DE00001464846FDF7B8F96968FDF7BFFA0146A4
:102DF0000198FDF7B3F9814641465846FDF7B6FA0A
:102E0000804651463846FDF7B1FA01464046FDF787
:102E1000A5F9A968FDF7AAFA01464846FDF79EF90B
:102E20000146FDF79BF970606768D4F80C9049463D
:102E30003846FDF79BFA8046D4F800A0A4682146E6
:102E40005046FDF793FA01464046FDF787F9296899
:102E5000FDF78CFA804621464846FDF787FA814601
:102E600051463846FDF782FA01464846FDF774F9A7
:102E70006968FDF77BFA01464046FDF76FF9804629
:102E800039463846FDF772FA01464FF07C50FDF79F
:102E900063F9074621462046FDF768FA01463846A1
:102EA000FDF75AF9A968FDF761FA01464046FDF7BA
:102EB00055F90146FDF752F9B06003B0BDE8F08F57
:102EC0002DE9F0438BB0002307930893604B0993DF
:102ED000604B1B68586A604B1860604B1B689842D7
:102EE0004FD9C01AFDF7EAF95D49FDF7F3FA5D4BDA
:102EF00018605D4C5B4E31682068FDF72FF920604B
:102F00005A4D2846FFF794FA2B68594CE3656B68D5
:102F10002366AB686366EB6823652B6963656B6941
:102F2000A36504F15C0204F150015248FFF700FC74
:102F300033680293636E0193236E0093E36DA26D79
:102F4000616D206D00F002FD4B4B0FCB84E80F004C
:102F5000224604F12C014948FFF7E6FD224604F120
:102F600038014748FFF7E0FD224604F14401454897
:102F7000FFF7DAFD224604A907A8FFF7BBFE0024ED
:102F80003CE0C01A00F51C501030FDF797F93449A9
:102F9000FDF7A0FA334B1860ABE7354D04F116038B
:102FA00005EB83030AAA02EB840252F8181C586846
:102FB000FDF7D2F82B4B1E683146FDF7D7F90746CF
:102FC000D5F8288041463046FDF7C8F80646014648
:102FD0003846FDF77FFA074604F1040955F8291031
:102FE0004046FDF7C3F93146FDF774FA014638460D
:102FF000FDF7B4F845F829000134E4B2022CCCD92D
:103000001B4C224604F11C0104F11000FFF78CFD5B
:103010001D4BD3F8A8212267D3F8A421E266D3F888
:10302000A021A266D3F8AC31636700231A4621467B
:103030001648006801F0ECFD154A1368013313606F
:10304000054B1A68054B1A600BB0BDE8F08300BF52
:10305000C3F51C41203900204403002080030020D8
:1030600000401C46700300208403002078020020EA
:10307000C8020020AC02002068050020EC8A00088D
:10308000F88A0008048B000818040020943B0020F4
:103090006C03002000B583B00E4B5A6942F0010268
:1030A0005A615B6903F001030193019B0022052132
:1030B0000E20FEF7D9FD0E20FEF70EFE00220521A0
:1030C0000F20FEF7D1FD0F20FEF706FE03B05DF8DE
:1030D00004FB00BF0010024010B504464FF07C51C5
:1030E000FDF744F901462346094CA4EB630420464E
:1030F000FDF73CF901462046FDF738F901464FF04F
:103100007F50FDF729F801462046FDF72FF910BD45
:10311000865A375F2DE9F84F0546D0F8EC301F6826
:10312000694A17605E68694A1660D3F80880684A81
:10313000C2F80080D3F80C90664BC3F80090394673
:103140003846FDF713F9044631463046FDF70EF9CF
:1031500001462046FDF702F8044641464046FDF789
:1031600005F901462046FCF7F9FF04464946484662
:10317000FDF7FCF801462046FCF7F0FFFFF7ACFF37
:103180008246554B186000240AE0D5F8ECB0514651
:103190005BF82400FDF7EAF84BF824000134E4B2B0
:1031A000032CF2D94D4CD4F8BC113046FDF7DEF8B3
:1031B000D5F800A14FF07C51FDF7D8F8CAF81000FF
:1031C000D4F8BC114046FDF7D1F8D5F800A14FF076
:1031D0007C51FDF7CBF8CAF8140007F10047D4F88A
:1031E000BC113846FDF7C2F8D5F800A14FF07C516C
:1031F000FDF7BCF8CAF82800D4F8BC114846FDF722
:10320000B5F8D5F800A14FF07C51FDF7AFF8CAF83A
:103210002C0009F10040D4F8BC11FDF7A7F8D5F84F
:1032200000914FF07C51FDF7A1F8C9F84000D4F8A7
:10323000BC113846FDF79AF8D5F800714FF07C5173
:10324000FDF794F87864D4F8BC114046FDF78EF889
:10325000D5F800714FF07C51FDF788F8B86506F19C
:103260000040D4F8BC11FDF781F8D5F800614FF0AB
:103270007C51FDF77BF8F065D5F8F860D4F8D011F3
:10328000306FFDF727F93067D5F8F860D4F8D01122
:10329000D6F88C00FDF71EF9C6F88C00D5F8F8407A
:1032A0000F49206FFDF71EFA08B10D4B2367D5F8C3
:1032B000F8400B49D4F88C00FDF714FA10B1084B14
:1032C000C4F88C30BDE8F88F1C06002024060020CE
:1032D0002C060020340600203806002018040020A8
:1032E00000401C4638B504469022D0F8F810084833
:1032F00003F0CEFA48252A46D4F81C11054803F0FD
:10330000C7FA2A46D4F80C11034803F0C1FA38BDB5
:1033100014000020D0030020880300202DE9F04F86
:1033200083B0044600F1780600F1800B5946304620
:1033300004F08AFF84F8C800B4F87830A4F8A83004
:10334000B4F85A30A4F8AA3004F15803019304F1F8
:10335000A8052A461946304605F040F884F8C8000A
:10336000B4F8A830A4F8B030B4F88230A4F8B23081
:1033700004F1B00A52465946284605F02FF884F861
:10338000C800B4F89030A4F8A030B4F89230A4F893
:10339000A23004F1A006324604F19001504605F037
:1033A00027FA84F8C8005146304605F0CBF884F877
:1033B000C800D4F8EC30D3F80090B34AC2F80090BB
:1033C000D3F80480B14AC2F800809F68B04A176001
:1033D000DE68B04B1E60B4F87830A4F8B830012332
:1033E000A4F8BA3031464046FCF7C0FF0090394699
:1033F0004846FCF7BBFF01460098FCF7ADFE0146CE
:10340000D4F82C310093FCF7A9FE009B18604146CC
:103410004846FCF7ABFF009031463846FCF7A6FF64
:1034200001460098FCF79AFE0146D4F82C3100932F
:10343000FCF794FE009B586049464846FCF796FF0F
:10344000814641464046FCF791FF01464846FCF75D
:1034500083FE804639463846FCF788FF01464046E1
:10346000FCF77AFE074631463046FCF77FFF0146FF
:10347000D4F82C613846FCF771FEB06000260FE0EE
:10348000D4F82C3153F8260020F0004003F03AFB2A
:1034900006F16002804B03EB820358600136F6B2FE
:1034A000022EEDD9B4F84830A4F8C0304FF001082E
:1034B000A4F8C28004F1B80604F1C0073A463146C8
:1034C00004F1480004F018FF84F8C800B4F8C030D4
:1034D000A4F8A830A4F8AA802A463946504604F039
:1034E0007DFF84F8C800A4F8B880B4F8C030A4F810
:1034F000BA303146384604F0A7FE84F8C800DFF839
:10350000988108F5E0722946304604F067FF84F898
:10351000C800D8F8C891D8F8CC814FF07C5140460B
:10352000FCF724FF01464846FDF7BEF818B15A4B98
:10353000012283F8382141464846FDF7D3F8002898
:1035400045D0554B93F83831002B40D0524B93F86F
:103550003931DBB1504AD2F84031D2F8441101334D
:1035600041F10001C2F84031C2F844114A4BD3F88E
:103570004021D3F84431332A73F100030CD30023E4
:10358000454A82F8383184F82C304BE0424B002019
:103590000021C3E95001E9E7227B404D2B8803FB62
:1035A00002F2D4F8EC10D4F8E80003F071F9227BB1
:1035B0002B8802FB03F303FB02F2D4F8FC10D4F8CF
:1035C000F80003F065F9012384F82C30AEE03449AB
:1035D0004046FCF7CBFE01464846FDF783F8A0B114
:1035E0002D4B93F8383183B149464046FCF7B4FD82
:1035F00081462C494046FCF7B9FE01464846FCF797
:1036000069FF254BC3F89C0104E0234B4FF07E5229
:10361000C3F89C21204B00200021C3E95001002366
:1036200084F82C30B4F85830A4F8A830B4F88230BC
:10363000A4F8AA302A465946019804F0CFFE84F82F
:10364000C80004F1980842465146284604F0C6FED8
:1036500084F8C80000250CE0D4F81C910E4BD3F878
:103660009C1159F82500FCF781FE49F82500013529
:10367000EDB2B4F89830B4F89A2002FB03F39D42FF
:10368000EADB4FF0040913E01806002020060020B2
:103690002806002030060020180400203E060020E6
:1036A000CDCCCC3D6666663F09F101095FFA89F928
:1036B000B9F1050F1AD80025022DF5D8D4F81CB1A0
:1036C00009EB490AAA4409F15C03314A02EB83037E
:1036D00030495868FCF7FEFE01465BF82A00FCF70B
:1036E00045FE4BF82A000135EDB2E5E7B4F8983015
:1036F000A4F8B8300123A4F8BA303246394640461F
:1037000004F06CFE84F8C800214B93F83831002B8C
:103710003BD1D4F8BC300022DA6004F130023146EB
:1037200004F1380005F064F884F8C80003B0BDE87F
:10373000F08F0135EDB2052DEBD8D4F8BC904FEAEF
:10374000850859F825A01449114BD3F8BC01FCF7A2
:103750000DFE074601465046FCF7C4FF08B149F884
:103760002570D4F8BC9059F808A00C49084BD3F840
:10377000BC01FCF7FBFD074601465046FCF794FFF1
:103780000028D6D049F80870D3E70425D3E700BF56
:1037900018040020DA0FC93F0AD7233C0AD723BCFC
:1037A0002DE9F0410446D0F8EC6030680146FCF7A2
:1037B000D5FC0746284B186070680146FCF7CEFC24
:1037C0000546264B1860B0680146FCF7C7FC8046EA
:1037D000234B1860F0680146FCF7C0FC0646214BFD
:1037E0001860A27B204B1B8802FB03F3227B03FBA8
:1037F00002F20021D4F80C0103F058F8D4F80C219F
:1038000008F100431360D4F80C215660D4F80C2161
:1038100007F100419160D4F80C21D560D4F80C2157
:103820009561D4F80C21D761D4F80C211662D4F834
:103830000C21C2F82480D4F80C211763D4F80C2191
:1038400005F100455563D4F80C219363D4F80C318D
:10385000DE63BDE8F08100BFFC050020000600200B
:1038600004060020080600203E06002070B505462C
:10387000049E2E4C01202070C4F8B011C4F8B4216D
:10388000C4F8B8312A4BC4F8CC31002384F838315D
:1038900000220023C4E95023C4E952234FF07E5193
:1038A0003046FCF71FFF08B14FF07E561F4CC4F89E
:1038B000D061059BC4F89031032300220621201D0E
:1038C00000F0F4FB04F5E4730122114604F5E07006
:1038D00004F08AFF002307E0144AD2F8EC2055F8E0
:1038E000231042F823100133032BF5DD0F4C114B4D
:1038F000C4F8D030104BC4F8D430104BC4F8D830D2
:103900000F4BC4F8DC30012384F82E3084F82F30BC
:1039100090252A460B49D4F8040102F0B9FF2A4643
:103920000949D4F8FC0002F0B3FF70BD1804002070
:1039300077CC2B32E532000815310008A13700089A
:103940001D330008108B0008140000202DE9F84FEB
:103950000D4693461F46DDF82890DDF82C800C9E1E
:103960009A4CC4F8BC61D4F86011FCF7F5FB8246B0
:10397000C4F86C01D4F864112846FCF7EDFB054649
:10398000C4F87001D4F868115846FCF7E5FB83468B
:10399000C4F874014FF07C515046FCF7E7FC314607
:1039A000FCF7E4FC82468A4B18604FF07C512846B5
:1039B000FCF7DCFC3146FCF7D9FC0546854B18606A
:1039C0004FF07C515846FCF7D1FC3146FCF7CEFC59
:1039D0000646814B186090228049D4F8040102F019
:1039E00057FFD4F804210AF100435360D4F80421AE
:1039F00005F100419160D4F8040106F10042C26073
:103A0000D4F80401C0F818A0D4F804010662D4F870
:103A100004014162D4F804110D63D4F804114A631F
:103A2000D4F80421C2F83CA0D4F804219664D4F858
:103A30000421D564D4F804211365D4F84821D4F8BE
:103A40004C31134305D1C4F87871C4F87C91C4F8A3
:103A500080815E4CD4F890B15946D4F87801FCF7D7
:103A600085FC0646D4F8BCA151465846FCF776FBC7
:103A7000054601463046FCF72DFD064639465046C0
:103A8000FCF774FC2946FCF725FD01463046FCF79F
:103A900065FB0646C4F87801D4F87C115846FCF75B
:103AA00065FC2946FCF716FD074649465046FCF7DB
:103AB0005DFC2946FCF70EFD01463846FCF74EFB3F
:103AC0000746C4F87C01D4F880115846FCF74EFC38
:103AD0002946FCF7FFFC814641465046FCF746FC70
:103AE0002946FCF7F7FC01464846FCF737FB05463C
:103AF000C4F8800131463046FCF738FC04463946AC
:103B00003846FCF733FC01462046FCF727FB044609
:103B100029462846FCF72AFC01462046FCF71EFBF6
:103B2000FFF7DAFA05462E4B186000240CE0274B0D
:103B300004F15E029E6853F822102846FCF716FC3A
:103B400046F824000134E4B2022CF0D91F4CD4F81A
:103B50006C010146FCF70AFC0646D4F870010146E8
:103B6000FCF704FC01463046FCF7F8FA0646D4F8A8
:103B700074010146FCF7FAFB01463046FCF7EEFA09
:103B8000FFF7AAFA01464FF07E50FCF7A3FC064669
:103B9000C4F8940129464FF07E50FCF79BFC054683
:103BA000C4F898010F493046FCF77EFD00B30E497A
:103BB0002846FCF797FDD8B10C492846FCF774FD60
:103BC000B0B1012284F8392116E000BF18040020AA
:103BD0000C0600201006002014060020108B0008A0
:103BE000F80500209A99993ECDCC1441CDCC2441C2
:103BF0008E4B002283F839218C4CD4F81851D4F81C
:103C0000BC11D4F8B001FCF7B1FB2860D4F818510E
:103C1000D4F8BC11D4F8B001FCF7A8FBE861D4F8E3
:103C20001851D4F8BC11D4F8B001FCF79FFBA8637D
:103C3000D4F81851D4F8BC11D4F8B001FCF796FBB5
:103C40006865D4F81851D4F8BC11D4F8B401FCF765
:103C50008DFB2867D4F81851D4F8BC11D4F8B401FE
:103C6000FCF784FBC5F88C00D4F81C21D4F8B831DB
:103C70001360D4F81C211361D4F81C31D4F8B82196
:103C80001A62201D00F098FD63681F68C4F8507127
:103C90005E68C4F85461D3F80880C4F85881D968C4
:103CA000C4F85C111A69C4F860215B69C4F8643116
:103CB0000023C4F868313846FCF758FB05464146F6
:103CC0003046FCF753FB01462846FCF747FA054609
:103CD00039463846FCF74AFB074631463046FCF782
:103CE00045FB01463846FCF739FA0146FCF736FA3F
:103CF0004FF07E51FCF730FA064629462846FCF77D
:103D00002DFA314602F03EFF4949FCF72FFBC4F87B
:103D1000A801D4F85061D4F854113046FCF726FBC2
:103D20000546D4F85C713946D4F85801FCF71EFBFF
:103D300001462846FCF712FA054631463046FCF7A4
:103D400015FB064639463846FCF710FB014630465F
:103D5000FCF704FA0146FCF701FA4FF07E51FCF73C
:103D6000FBF9064629462846FCF7F8F9314602F0E9
:103D700009FF2F49FCF7FAFAC4F8A001D4F85C1146
:103D8000D4F85401FCF7F2FA0546D4F85811D4F8E7
:103D90005001FCF7EBFA01462846FCF7DDF94FF03D
:103DA0004041FCF7E3FA02F0CDFE2149FCF7DEFAD0
:103DB000C4F8A401D4F8A851D4F8D8112846FCF7C7
:103DC000CBF904461B49FCF78DFC10B3174AB2F936
:103DD000D431013BA2F8D431144CB4F9D401FCF72E
:103DE00071FA1549FCF7C2FA01462846FCF7B6F904
:103DF000C4F8AC01C4F8D851D4F84831D4F84C21F7
:103E0000013342F10002C4F84831C4F84C21BDE846
:103E1000F88F0A492046FCF747FC0028DCD0034A0B
:103E2000B2F9D4310133A2F8D431D5E71804002017
:103E3000E12E6542000034430000B443000034C367
:103E4000F8B507460021FCF739FC00282ED14FF0C9
:103E50007C513846FCF78AFA044615493846FCF787
:103E600085FA064621462046FCF780FA3946FCF7DB
:103E700073F9054621462046FCF770F901462846AD
:103E8000FCF728FB01462046FCF766F90446294664
:103E90003046FCF709FC0028E4D106F10040294631
:103EA000FCF720FC0028DDD12046F8BD0024FBE70C
:103EB0006F12833A2DE9F0410446D0F80080414664
:103EC0004046FCF753FA0546676839463846FCF722
:103ED0004DFA01462846FCF741F90546A6683146E9
:103EE0003046FCF743FA01462846FCF737F9FFF75E
:103EF000A7FF054601464046FCF7ECFA206029463C
:103F00003846FCF7E7FA606029463046FCF7E2FAEB
:103F1000A0602046BDE8F081F8B504460D4616467F
:103F200089684068FCF722FA07466968A068FCF7D0
:103F30001DFA01463846FCF70FF930602968A06881
:103F4000FCF714FA0746A9682068FCF70FFA014647
:103F50003846FCF701F9706069682068FCF706FADA
:103F6000074629686068FCF701FA01463846FCF705
:103F7000F3F8B060F8BD70B504460D4609680068F6
:103F8000FCF7F4F9064669686068FCF7EFF901464A
:103F90003046FCF7E3F80646A968A068FCF7E6F9A6
:103FA00001463046FCF7DAF870BD0000F8B504466B
:103FB00000250574827B3C4E338803FB02F2416886
:103FC000D0F8F40002F064FCA27B338803FB02F219
:103FD0002946606802F06AFCA27B338802FB03F387
:103FE00003FB02F22946D4F8180102F05FFC227BA1
:103FF000338802FB03F3A27B03FB02F22946D4F8C9
:104000000C0102F053FC01E00135EDB2A37BAB42A1
:1040100023D9D4F8F46056F8257000213846FCF70F
:1040200039FB0028F0D1237C46F82370626A237C98
:10403000D554A169D4F80C21207B267C63695B5D93
:1040400006FB003303F18043013B51F8251042F891
:104050002310237C01332374D6E700230CE0E069AE
:10406000616ACD5CD4F8181102FB033250F82500C8
:1040700041F822000133DBB2227C9A42EFD892B29F
:10408000A4F87820237BA4F87A30A4F88030A4F830
:104090008220A4F89020A4F89220A4F89830A4F8E4
:1040A0009A20A4F84820F8BD3E0600202DE9F047EC
:1040B00004460D4691461E46DFF8B0830423A8F857
:1040C0000030EB4B08221A80017380F80D90867344
:1040D00000270774304602F0D3FB60613246394650
:1040E00002F0E4FBB8F800A006FB0AFA504602F022
:1040F000C7FBA0615246394602F0D8FBB8F800A0D1
:1041000006FB0AFA504602F0BBFBE0615246394614
:1041100002F0CCFBB8F800A005FB0AFA504602F00A
:10412000AFFB20625246394602F0C0FB304602F037
:10413000A7FB60623246394602F0B8FBB8F80000CF
:1041400005FB00F002F09CFB2060B8F8002005FBA6
:1041500002F2394602F0AAFBB8F800A006FB0AFA00
:10416000504602F08DFB60605246394602F09EFBDD
:10417000B8F800A009FB0AFA504602F081FBA060E3
:104180005246394602F092FBB8F800A005FB0AFA45
:10419000504602F075FBC4F8E8005246394602F07A
:1041A00085FBD4F8E8300122217B04F1300004F0D3
:1041B0001BFBB8F8008005FB08F8404602F060FBE6
:1041C000C4F8EC004246394602F070FBD4F8EC30FB
:1041D0000122217B04F1380004F006FBB9F1000F45
:1041E00040F04C81DFF88482B8F8007006FB07F7D6
:1041F000384602F045FBC4F8F4003A46002102F0CC
:1042000055FBD4F8F4300122A17B04F1480004F0FE
:10421000EBFAB8F8007005FB07F705FB07F738461F
:1042200002F02EFBC4F8F8003A46002102F03EFBF3
:10423000217BD4F8F8300A4604F1500004F0D4FA97
:10424000B8F8007005FB07F705FB07F7384602F0E2
:1042500017FBC4F8FC003A46002102F027FB217B43
:10426000D4F8FC300A4604F1580004F0BDFAB8F85E
:10427000007005FB07F705FB07F7384602F000FB67
:104280008246C4F80001384602F0FAFAC4F8040184
:104290003A460021504602F009FBB8F8002005FB21
:1042A00002F205FB02F20021D4F8040102F0FEFA4A
:1042B000217BD4F800310A4604F1600004F094FA3E
:1042C000217BD4F804310A4604F1680004F08CFA2A
:1042D000B9F1000F40F0E880644FB7F800A00AFB86
:1042E00006F909FB05F9484602F0CAFA8046C4F807
:1042F0000C010AFB05F006FB00F002F0C1FAC4F85D
:1043000010014A460021404602F0D0FA3A8805FBE7
:1043100002F206FB02F20021D4F8100102F0C6FA04
:10432000D4F80C31227BA17B04F1780004F05CFA14
:10433000D4F81031A27B217B04F1800004F054FA00
:10434000B7F8008005FB08F808FB05F8404602F0C6
:1043500097FAC4F814014246002102F0A7FA217B23
:10436000D4F814310A4604F1880004F03DFAB7F895
:10437000008006FB08F808FB06F8404602F080FAC9
:10438000C4F818014246002102F090FAA17BD4F84B
:1043900018310A4604F1900004F026FA398801FB2E
:1043A00005F505FB06F6304602F06AFAC4F81C0172
:1043B0003246002102F07AFAD4F81C31A27B217B2C
:1043C00004F1980004F010FA267B3F8806FB07F7FB
:1043D00007FB06F5284602F053FA8046C4F8200190
:1043E000284602F04DFAC4F82401284602F048FAA3
:1043F000C4F82801384602F043FAC4F82C013846C4
:1044000002F03EFAC4F83001B1B243460A4604F164
:10441000A00004F0E9F9217BD4F824310A4604F124
:10442000A80004F0E1F9217BD4F828310A4604F110
:10443000B00004F0D9F9D4F82C310122217B04F129
:10444000B80004F0D1F9D4F830310122217B04F115
:10445000C00004F0C9F9002384F8283084F829301A
:1044600084F82A3084F82B3004E000BF3E06002098
:104470003C06002084F82C30BDE8F087164B1F88DE
:1044800009FB07F7384602F0FBF9C4F8F0003A469A
:10449000002102F00BFAD4F8F0300122617B04F124
:1044A000400004F0A1F99DE6B8F8002005FB02F2F7
:1044B00002FB09F9484602F0E3F9C4F808014A464C
:1044C000002102F0F3F9D4F80831627B217B04F17A
:1044D000700004F089F9FFE63E06002038B5044676
:1044E000C37B63B1FFF762FD627B0E4B1B8803FB4E
:1044F00002F2A168D4F8F00002F0CAF938BD827B5C
:10450000084D2B8803FB02F24168D0F8F40002F05A
:10451000BFF9A27B2B8803FB02F20021606802F046
:10452000C5F9E1E73E06002090F82830B3BB70B52E
:104530000446437B43B3037BA0F8B8300126A0F8C0
:10454000BA6000F1B8052A4600F13001603003F08E
:1045500045FF84F8C800237BA4F8C030A4F8C260EB
:1045600004F1C006324604F1400104F1700003F08A
:1045700035FF84F8C80004F138023146284604F0BB
:1045800037F984F8C80070BD00F1380200F130013D
:10459000603003F023FF84F8C800F4E77047F8B5F3
:1045A00090F8293003B1F8BD044600F1600600F12F
:1045B00068073946304603F047FE84F8C80004F126
:1045C00058052A4604F15001304603F007FF84F8ED
:1045D000C800B4F85830A4F8A830B4F86A30A4F889
:1045E000AA3004F1A80632463946284603F0F6FE02
:1045F00084F8C8002A4604F18801304604F0F8F82F
:1046000084F8C800CFE72DE9F84390F82A300BB1C1
:10461000BDE8F883044600F1780600F180073946CA
:10462000304603F011FE84F8C800B4F87830A4F8DE
:10463000A830B4F85A30A4F8AA3004F1580804F1AC
:10464000A8052A464146304603F0C8FE84F8C80053
:10465000B4F8A830A4F8B030B4F88230A4F8B2307E
:1046600004F1B00632463946284603F0B7FE84F816
:10467000C800B4F89030A4F8A030B4F89230A4F890
:10468000A23004F1A0094A4604F19001304604F03A
:10469000AFF884F8C8003146484603F053FF84F869
:1046A000C800B4F85830A4F8A830B4F88230A4F8A0
:1046B000AA302A463946404603F090FE84F8C800E6
:1046C00004F198023146284603F088FE84F8C800B9
:1046D0009EE790F82B3003B170472DE9F041044676
:1046E000B0F87830A0F8B8300126A0F8BA6000F130
:1046F000380700F1B8052A463946783003F06EFED7
:1047000084F8C800B4F84830A4F8C030A4F8C260F7
:1047100004F1C0084246294604F1480003F0ECFDCC
:1047200084F8C800B4F89830A4F8B830A4F8BA6097
:104730002A46414604F1980003F050FE84F8C80070
:1047400004F130022946384604F052F884F8C800D3
:10475000BDE8F081F8B590F82C3003B1F8BD0446FF
:10476000B0F89830A0F8A830B0F87A20A0F8AA20C5
:10477000A0F8B030B0F85A30A0F8B23000F1A80775
:104780003A4600F17801983003F028FE84F8C8001A
:1047900004F1580504F1B00632462946384603F0C4
:1047A0001DFE84F8C80004F150023146284603F08B
:1047B000A3FD84F8C800D1E72DE9F0410546FFF7D5
:1047C0008DFED5F8CC300BB1284698472846FFF728
:1047D000ABFED5F8D0300BB1284698472846FFF7F6
:1047E000DEFED5F8D4300BB1284698472B7C0BB9A8
:1047F000EB7BCBB92846FFF706FFD5F8D8300BB1D5
:10480000284698472846FFF764FFD5F8DC300BB1FF
:10481000284698472846FFF79DFFD5F8E0300BB1B2
:1048200028469847002419E02A7B1F4C238803FB65
:1048300002F2D5F8EC10D5F8E80002F029F82A7B4E
:10484000238802FB03F303FB02F2D5F8FC10D5F832
:10485000F80002F01DF8E0E70134E4B22E7BA64236
:1048600010D9D5F8F87006FB04462B6A53F824805B
:10487000414657F82600FBF717FF0028ECD047F811
:104880002680E9E7084A128806FB02F2D5F8E8100C
:10489000286801F0FDFFD5F8E4300BB128469847B1
:1048A0002868BDE8F08100BF3E06002038B5054607
:1048B0000C46FBF717FF00B1254604F100442946DA
:1048C0002046FBF70FFF00B92C46204638BDDDF827
:1048D00004C0C0F820C0DDF800C0C0F828C00160E6
:1048E000426083600023C362C36003614362C361AB
:1048F00043618361012380F83030029B436370473A
:104900002DE9F84304460D4690F83030012B42D093
:104910006561E1692846FBF721FC0746E0612169F2
:104920002846FBF719FC0646A06129462068FBF7DC
:104930001DFD8046D4F8209061683846FBF716FDCF
:104940004946FFF7B3FF01464046FBF707FC074621
:10495000A1683046FBF70AFD01463846FBF7FEFB2F
:104960006062A66A3146FBF7BDFE00B1666206F1E1
:1049700000463146606AFBF797FE00B1666225612A
:10498000284601F0E6FC616BFBF78EFE08B10023C0
:104990006362BDE8F8832161E160002380F8303074
:1049A000B6E7000008B5044B186801F08BF96420E5
:1049B00001F08DF9F7E700BF40060020034B0360CC
:1049C000034B0B6080231360704700BF4408002036
:1049D0004406002010B588B00DF1040C074C0FCC34
:1049E000ACE80F0094E807008CE80700002101A85C
:1049F00001F033F9024B186008B010BD2C8A000892
:104A00004006002000F1080343604FF0FF3282604F
:104A1000C360036100230360704700230361704794
:104A200043684B609A688A605160996008610368C6
:104A300001330360704730B40D68B5F1FF3F11D00A
:104A400000F108031C465B681A68AA42FAD9636839
:104A50004B6099608C60616008610368013303609A
:104A600030BC70470469F2E70369416882688A6074
:104A7000416851605A68824206D0002202611A6879
:104A8000013A1A601868704782685A60F5E770B595
:104A900004461546866B026C5AB903681BB10020A8
:104AA0000136A66370BD806800F0E2FD0023A360BC
:104AB000F6E76DB9406801F0EBFE226C63681344C1
:104AC0006360A268934219D3236863602846E7E7CE
:104AD000C06801F0DDFE226C5142E3689B1AE3607E
:104AE0002268934202D2A3680B44E360022D01D0F6
:104AF0000020D5E726B1013E0020D1E72846CFE7C8
:104B00000020CDE708B50346026C62B10846D968BB
:104B10001144D960D3F808C0614501D31968D96040
:104B2000D96801F0B5FE08BD38B5E0B10D460446C0
:104B300000F070FF2368E26B216C01FB0230A06083
:104B40000020A0636360013A02FB0133E360FF23AE
:104B500084F8443084F84530FDB9236963B900F026
:104B60007BFF012038BD4FF0500383F31188BFF362
:104B70006F8FBFF34F8FFEE704F1100000F032FD9E
:104B80000028ECD04FF0E0234FF08052C3F8042D02
:104B9000BFF34F8FBFF36F8FE1E704F11000FFF712
:104BA00031FF04F12400FFF72DFFD8E710B50346CD
:104BB00002980C4631B90060C36304640121FFF719
:104BC000B3FF10BD0260F7E740B94FF0500383F325
:104BD0001188BFF36F8FBFF34F8FFEE7F0B583B03F
:104BE0000D461446064601FB00F0483000F0FEFD7D
:104BF000074650B1002380F846300090234600F16C
:104C0000480229463046FFF7D1FF384603B0F0BDD1
:104C10002DE9F84390B10F4616461C460546B1B142
:104C2000022C20D1EB6B012B1DD04FF0500383F3EE
:104C30001188BFF36F8FBFF34F8FFEE74FF0500324
:104C400083F31188BFF36F8FBFF34F8FFEE7036CC1
:104C5000002BE5D04FF0500383F31188BFF36F8F23
:104C6000BFF34F8FFEE700F0BFFFEFF311894FF066
:104C7000500383F31188BFF36F8FBFF34F8FAA6B7D
:104C8000EB6B9A4206D3022C04D0002089F31188E2
:104C9000BDE8F88395F845804FFA88F8AB6B22465B
:104CA00039462846FFF7F3FEB8F1FF3F06D008F17A
:104CB00001035BB285F845300120E7E76B6A0BB969
:104CC0000120E3E705F1240000F08CFC18B126B1C7
:104CD00001203060DAE70120D8E70120D6E72DE98E
:104CE000F843B0B10D4616460446D9B100F07CFF3A
:104CF000EFF311884FF0500383F31188BFF36F8FE8
:104D0000BFF34F8FA76BCFB9002088F31188BDE8A0
:104D1000F8834FF0500383F31188BFF36F8FBFF315
:104D20004F8FFEE7036C002BE0D04FF0500383F36E
:104D30001188BFF36F8FBFF34F8FFEE794F8449055
:104D40004FFA89F929462046FFF7DCFE013FA763A9
:104D5000B9F1FF3F06D009F101035BB284F844309A
:104D60000120D2E723690BB90120CEE704F110003E
:104D700000F038FC18B126B101203060C5E70120F1
:104D8000C3E70120C1E70000084B1B681B6823B97B
:104D9000074B4FF0FF321A607047044B1B68DB680B
:104DA000DB685A68024B1A60704700BF9C080020FD
:104DB000700900202DE9F04707469846089DDDF868
:104DC00024900A9C266B02F18042013A06EB82068F
:104DD00026F0070600293AD08E464FF0000CBCF1B1
:104DE0000F0F0BD81EF80C2004EB0C0383F83420B3
:104DF0001EF80C3013B10CF1010CF0E7002384F81D
:104E00004330062D00D90625E56265644FF0000A9F
:104E1000C4F848A0201DFFF700FE04F11800FFF7BA
:104E2000FCFD2461C5F10705A5616462C4F84CA0CE
:104E300084F850A042463946304600F0C3FD206059
:104E4000B9F1000F01D0C9F80040BDE8F087002398
:104E500084F83430D5E7000038B5002407E004EBCF
:104E6000840293000E481844FFF7CCFD0134062C51
:104E7000F5D90C4D2846FFF7C5FD0B4C2046FFF732
:104E8000C1FD0A48FFF7BEFD0948FFF7BBFD094811
:104E9000FFF7B8FD084B1D60084B1C6038BD00BF14
:104EA000A408002044090020580900207C090020A3
:104EB000A8090020940900209C080020A0080020D8
:104EC00010B5044600F0A6FD214A136801331360B3
:104ED000204B1B685BB1204B1B686BB91D4B1B68DB
:104EE000DA6AE36A9A4207D81A4B1C6004E0194B4D
:104EF0001C601368012B28D0184A13680133136013
:104F0000E06A01238340164A11680B43136000EBEB
:104F10008000211D134B03EB8000FFF781FD00F0A3
:104F20009BFD0D4B1B687BB10A4B1B68DA6AE36A79
:104F30009A4209D24FF0E0234FF08052C3F8042D7B
:104F4000BFF34F8FBFF36F8F10BDFFF785FFD3E720
:104F50003009002098080020900900203C0900201A
:104F600040090020A408002010B5044690F85130F4
:104F700063B1012B11D0022B0ED04FF0500383F3FD
:104F80001188BFF36F8FBFF34F8FFEE7006B00F008
:104F9000ABFC204600F0A8FC10BD00F0A5FCFBE730
:104FA0000F4B1B68D3B110B500F034FD0D4BDB681F
:104FB000DC68201DFFF758FD0B4A1368013B1360A6
:104FC000074A1368013B136000F046FD2046FFF7D7
:104FD000CBFF034B1B68002BE6D110BD704700BF11
:104FE00034090020A80900203009002008B5FFF787
:104FF000D7FF074B1B68012BF9D94FF0E0234FF087
:105000008052C3F8042DBFF34F8FBFF36F8FEEE7CD
:10501000A408002070B504460D461D4B1E681D4BAC
:1050200018680430FFF720FD50B91A4B1B68DA6A84
:10503000012303FA02F218490B6823EA02030B600A
:10504000B4F1FF3F0DD03444124B1B685C60A642A4
:1050500010D9124B18680F4B19680431FFF7EBFC9D
:1050600070BD002DEFD00B4B196804310C48FFF7D1
:10507000D7FCF5E70B4B1868064B19680431FFF7AE
:10508000DAFC094B1B68A342EAD9074B1C60E7E72F
:10509000BC0900209808002040090020A00800203A
:1050A000940900209C0800207009002030B587B0CA
:1050B0000B9C7CB10C9DB5B154250495049D542DD9
:1050C0001AD04FF0500383F31188BFF36F8FBFF3F3
:1050D0004F8FFEE74FF0500383F31188BFF36F8FBC
:1050E000BFF34F8FFEE74FF0500383F31188BFF3F8
:1050F0006F8FBFF34F8FFEE7049D0C9D2C6302243E
:1051000085F8514000240394029505AC01940A9C53
:105110000094FFF74FFE0C98FFF7D2FE059807B0FA
:1051200030BD2DE9F04385B00746884614461E463B
:10513000900000F05BFB00B38146542000F056FB6A
:105140000546B0B1C0F83090E5B1002385F8513084
:10515000039302950D9B01930C9B009333462246CB
:1051600041463846FFF726FE2846FFF7A9FE0120F4
:1051700005E0484600F0B8FBE6E74FF0FF3005B029
:10518000BDE8F0834FF0FF30F9E7000038B5044682
:1051900000F040FC002C33D0251D2846FFF764FCAE
:1051A00068B9E26A02EB82039B002749CB5833B906
:1051B0000123934025490A6822EA03020A60A36A90
:1051C0001BB104F11800FFF74FFC214A13680133AB
:1051D0001360204B1B68A34215D01F4A1368013B84
:1051E00013602046FFF7C0FEFFF7CEFD00F034FC51
:1051F0001A4B1B681BB1174B1B68A3420CD038BD60
:10520000144B1C68C8E729461548FFF709FC154AE6
:10521000136801331360E9E7134B1B6843B14FF088
:10522000500383F31188BFF36F8FBFF34F8FFEE7F7
:105230004FF0E0234FF08052C3F8042DBFF34F8F9F
:10524000BFF36F8FDBE700BFA408002040090020F8
:105250003C09002098080020300900209009002017
:10526000A8090020340900203809002010B588B0B2
:1052700000240594069407AA06A905A8FFF79EFB3B
:10528000059B0293069B019300942346079A0E49BF
:105290000E48FFF70BFF0E4B186090B14FF0500314
:1052A00083F31188BFF36F8FBFF34F8F094B4FF01C
:1052B000FF321A60084B01221A60084B1C6000F094
:1052C00033FC08B010BD00BFAC8B0008ED4F0008E8
:1052D0006C0900207009002090090020BC09002002
:1052E000024A136801331360704700BF3809002079
:1052F000F8B53A4B1B68002B69D1394B1D68013555
:105300001D60C5B9374B1B681B6843B14FF0500394
:1053100083F31188BFF36F8FBFF34F8FFEE7314ADE
:105320001168314B186810601960304A13680133F6
:105330001360FFF729FD2E4B1B68AB423DD90027B8
:105340002C4B1B68DB6A03EB83039A002A4B9B58A8
:10535000012B00D90127294B1B68002B3CD00127CA
:105360003AE001271F4B1B681B6843B31D4B1B68AA
:10537000DB68DC6863689D4226D3261D3046FFF754
:1053800073FBA36A1BB104F11800FFF76DFBE36A1E
:1053900001229A401A49086802430A6003EB83031A
:1053A0009A00314614481044FFF73AFBE26A114B69
:1053B0001B68DB6A9A42D4D2D4E70027D2E70C4BB1
:1053C0004FF0FF321A60BBE7094A1360B8E70D4A95
:1053D00013680133136000273846F8BD38090020F0
:1053E000BC0900209C080020A008002074090020AF
:1053F0007009002098080020A4080020C00900209F
:10540000400900207809002038B5354B1B6843B9A6
:105410004FF0500383F31188BFF36F8FBFF34F8FAB
:10542000FEE700F0F7FA2E4B1A68013A1A601B6883
:10543000002B4FD12B4B1B680BB900244BE00024F1
:10544000294B1B681BB3284BDB68DC6804F1180090
:10545000FFF70AFB251D2846FFF706FBE06A01233C
:105460008340224A11680B43136000EB80002946F9
:105470001F4B03EB8000FFF7D3FAE26A1D4B1B685A
:10548000DB6A9A42DCD31C4B01221A60D8E70CB1CC
:10549000FFF77AFC194B1C6884B9174B1C68D4B110
:1054A0004FF0E0234FF08052C3F8042DBFF34F8F2D
:1054B000BFF36F8F01240EE0013C07D0FFF718FF08
:1054C0000028F9D00C4B01221A60F5E70B4B0022A3
:1054D0001A60E2E7002400F0BFFA204638BD00BFA2
:1054E00038090020300900207C09002040090020F4
:1054F000A408002098080020C00900207809002096
:1055000010B5A8B10446104B1B6843B14FF05003CF
:1055100083F31188BFF36F8FBFF34F8FFEE7FFF761
:10552000DFFE00212046FFF775FDFFF76DFF48B94C
:105530004FF0E0234FF08052C3F8042DBFF34F8F9C
:10554000BFF36F8F10BD00BF38090020204B1B68D0
:105550001BB1204B01221A6070471E4B00221A60BB
:105560001D4B1B68B3FA83F3DBB2C3F11F0303EBDC
:1055700083018A0019498A5842B94FF0500383F3D6
:105580001188BFF36F8FBFF34F8FFEE7134903EB13
:10559000830082000A4450684068506003EB830C2B
:1055A0004FEA8C0208321144884209D003EB83038E
:1055B0009A000A4B13445B68DA68094B1A6070471B
:1055C000406862469100054A0A445060EEE700BF19
:1055D00038090020C009002040090020A40800204C
:1055E0009808002038B5C368DC6824B304F11805B6
:1055F0002846FFF739FA184B1B682BBB251D284698
:10560000FFF732FAE06A01238340144A11680B4322
:10561000136000EB80002946114B03EB8000FFF77D
:10562000FFF9E26A0F4B1B68DB6A9A4211D901202D
:105630000D4B186038BD4FF0500383F31188BFF352
:105640006F8FBFF34F8FFEE729460848FFF7E8F951
:10565000E7E70020EEE700BF3809002040090020FE
:10566000A408002098080020C00900207C09002020
:1056700000284CD038B50446274B1B68834208D01D
:105680004FF0500383F31188BFF36F8FBFF34F8F39
:10569000FEE7836C43B94FF0500383F31188BFF3E7
:1056A0006F8FBFF34F8FFEE7013B8364C16A426C8B
:1056B00091422ED00BB1002038BD051D2846FFF7C2
:1056C000D3F970B9E26A02EB82039B001349CB580D
:1056D0003BB9012303FA02F211490B6823EA0203E2
:1056E0000B60606CE062C0F10703A361012404FA5F
:1056F00000F30B4A11680B43136000EB800029464E
:10570000064B03EB8000FFF78BF92046D4E700201F
:1057100070470020D0E700BF98080020A4080020B0
:1057200040090020134A12F0070F1FD0D11D21F0AD
:105730000701C1F53B53203313440A460E4802606B
:10574000002141601344083B23F007030B4803602A
:1057500059601960991A51601360094B1960094B1F
:105760001960094B4FF000421A60704742F6E0633F
:10577000E4E700BFC8090020BC380020C4090020AD
:10578000B0380020AC380020A8380020154B1A464D
:105790001B688342FBD3516802EB010C844509D09E
:1057A000416800EB010C634509D00360904218D0BA
:1057B000106070474068014451601046F0E710B433
:1057C000094C2468A3420AD05B68194441601368FD
:1057D0001B680360904200D0106010BC70470460EA
:1057E000F8E77047BC380020C409002070B50546B2
:1057F000FFF776FD364B1B68A3B1364B1B681D4285
:105800004ED135B1083515F0070F02D025F0070548
:105810000835002D46D0304B1B68AB4251D32F4A80
:10582000146804E0FFF77EFFE7E722461C46636842
:10583000AB4202D22368002BF7D1254B1B68A34251
:1058400041D0166808362368136063685B1B102B11
:1058500010D9601910F0070F08D04FF0500383F3F0
:105860001188BFF36F8FBFF34F8FFEE74360656012
:10587000FFF78CFF626818490B689B1A0B60184988
:1058800009688B4201D216490B60124B1B68134307
:10589000636000232360134A13680133136002E03E
:1058A000002600E00026FFF7AFFD16F0070F0CD032
:1058B0004FF0500383F31188BFF36F8FBFF34F8F07
:1058C000FEE70026EFE70026EDE7304670BD00BF9B
:1058D000C4090020A8380020AC380020BC380020C3
:1058E000B0380020B4380020002834D038B5044641
:1058F000A0F1080550F8043C174A1268134208D179
:105900004FF0500383F31188BFF36F8FBFF34F8FB6
:10591000FEE750F8081C41B14FF0500383F31188A3
:10592000BFF36F8FBFF34F8FFEE723EA020340F808
:10593000043CFFF7D5FC54F8041C084A13680B44D8
:1059400013602846FFF722FF054A136801331360EE
:10595000FFF75AFD38BD7047A8380020AC3800204A
:10596000B838002082B0002301930D4B1B68B3F1BF
:10597000FF3F08D04FF0500383F31188BFF36F8FC0
:10598000BFF34F8FFEE74FF0500383F31188BFF34F
:105990006F8FBFF34F8F019B002BFCD002B070477D
:1059A000A400002006480068006880F3088862B6FA
:1059B00061B6BFF34F8FBFF36F8F00DF00BF0000F2
:1059C00008ED00E04FF0807340F8043C21F0010145
:1059D00040F8081C034B40F80C3C40F8202C4038A1
:1059E000704700BF6559000800000000000000007B
:1059F000074B19680868B0E8F00F80F30988BFF317
:105A00006F8F4FF0000080F311884EF00D0E70473D
:105A1000980800204FF0500383F31188BFF36F8F75
:105A2000BFF34F8F0B4A136801331360012B00D073
:105A300070474FF0E023D3F8043D13F0FF0FF7D089
:105A40004FF0500383F31188BFF36F8FBFF34F8F75
:105A5000FEE700BFA4000020094B1B6843B94FF0CC
:105A6000500383F31188BFF36F8FBFF34F8FFEE7AF
:105A7000013B034A13600BB983F31188704700BFE1
:105A8000A400002000000000000000000000000052
:105A9000EFF30980BFF36F8F0D4B1A6820E9F00F09
:105AA00010602DE908404FF0500080F31188FFF797
:105AB0004DFD4FF0000080F31188BDE808401968E3
:105AC0000868B0E8F00F80F30988BFF36F8F704764
:105AD0009808002008B54FF0500383F31188BFF3F6
