:020000040800F2
:100000000050002059560008050B0008070B000897
:10001000090B00080B0B00080D0B00080000000086
:10002000000000000000000000000000D1520008A5
:100030000F0B00080000000071530008B5530008C2
:10004000A1560008A1560008A1560008A1560008B4
:10005000A1560008A1560008A1560008A1560008A4
:10006000A1560008110B0008A1560008A15600086F
:10007000A1560008A15600081D0B00082D0B000812
:10008000A1560008A1560008A1560008A156000874
:10009000A1560008A1560008A1560008A156000864
:1000A000A1560008A1560008A1560008A156000854
:1000B0003D0B0008A15600084D0B0008A156000892
:1000C000A1560008A1560008A1560008A156000834
:1000D000A1560008A1560008A1560008A156000824
:1000E0005D0B0008A1560008A156000800000000A2
:1000F0000000000000000000000000000000000000
:0C01000000000000000000005FF808F1A3
:1001100010B5054C237833B9044B13B10448AFF341
:1001200000800123237010BD10010020000000009A
:100130008478000808B5034B1BB103490348AFF3AB
:10014000008008BD00000000140100208478000831
:1001500080F0004002E000BF81F0004142001FBF7C
:100160005FEA410392EA030F7FEA226C7FEA236C85
:100170006AD04FEA1262D2EB1363C1BFD21841407A
:1001800048404140B8BF5B42192B88BF704710F010
:10019000004F40F4000020F07F4018BF404211F0B3
:1001A000004F41F4000121F07F4118BF494292EA1B
:1001B000030F3FD0A2F1010241FA03FC10EB0C0047
:1001C000C3F1200301FA03F100F0004302D54942D4
:1001D00060EB4000B0F5000F13D3B0F1807F06D381
:1001E00040084FEA310102F10102FE2A51D2B1F179
:1001F000004F40EBC25008BF20F0010040EA03006E
:100200007047490040EB0000013A28BFB0F5000FED
:10021000EDD2B0FA80FCACF1080CB2EB0C0200FAA3
:100220000CF0AABF00EBC25052421843BCBFD040F2
:100230001843704792F0000F81F4000106BF80F46C
:1002400000000132013BB5E74FEA41037FEA226C2F
:1002500018BF7FEA236C21D092EA030F04D092F0FA
:10026000000F08BF0846704790EA010F1CBF00202E
:10027000704712F07F4F04D1400028BF40F000408B
:10028000704712F100723CBF00F50000704700F0AB
:10029000004343F0FE4040F4000070477FEA2262D2
:1002A00016BF08467FEA23630146420206BF5FEAA3
:1002B000412390EA010F40F4800070474FF00003A3
:1002C00004E000BF10F0004348BF40425FEA000C6A
:1002D00008BF704743F0964301464FF000001CE012
:1002E00050EA010208BF70474FF000030AE000BF68
:1002F00050EA010208BF704711F0004302D54042A6
:1003000061EB41015FEA010C02BF84460146002017
:1003100043F0B64308BFA3F18053A3F50003BCFA32
:100320008CF2083AA3EBC25310DB01FA02FC6344DF
:1003300000FA02FCC2F12002BCF1004F20FA02F2E6
:1003400043EB020008BF20F00100704702F12002D9
:1003500001FA02FCC2F1200250EA4C0021FA02F23A
:1003600043EB020008BF20EADC7070474FF0FF0C3F
:100370001CEAD0521EBF1CEAD15392EA0C0F93EA3A
:100380000C0F6FD01A4480EA010C400218BF5FEADC
:1003900041211ED04FF0006343EA501043EA51114F
:1003A000A0FB01310CF00040B1F5000F3EBF490049
:1003B00041EAD3715B0040EA010062F17F02FD2A4D
:1003C0001DD8B3F1004F40EBC25008BF20F0010030
:1003D000704790F0000F0CF0004C08BF49024CEA47
:1003E000502040EA51207F3AC2BFD2F1FF0340EAD9
:1003F000C250704740F400004FF00003013A5DDC4A
:1004000012F1190FDCBF00F000407047C2F100028A
:10041000410021FA02F1C2F1200200FA02FC5FEA77
:10042000310040F1000053EA4C0308BF20EADC70C1
:10043000704792F0000F00F0004C02BF400010F433
:10044000000F013AF9D040EA0C0093F0000F01F0E0
:10045000004C02BF490011F4000F013BF9D041EA02
:100460000C018FE70CEAD15392EA0C0F18BF93EA04
:100470000C0F0AD030F0004C18BF31F0004CD8D12E
:1004800080EA010000F00040704790F0000F17BFB5
:1004900090F0004F084691F0000F91F0004F14D0FB
:1004A00092EA0C0F01D142020FD193EA0C0F03D153
:1004B0004B0218BF084608D180EA010000F0004056
:1004C00040F0FE4040F40000704740F0FE4040F431
:1004D000400070474FF0FF0C1CEAD0521EBF1CEAD0
:1004E000D15392EA0C0F93EA0C0F69D0A2EB0302EE
:1004F00080EA010C49024FEA402037D04FF0805388
:1005000043EA111143EA10130CF000408B4238BF4C
:100510005B0042F17D024FF4000C8B4224BF5B1A5A
:1005200040EA0C00B3EB510F24BFA3EB510340EAA8
:100530005C00B3EB910F24BFA3EB910340EA9C0056
:10054000B3EBD10F24BFA3EBD10340EADC001B01C6
:1005500018BF5FEA1C1CE0D1FD2A3FF650AF8B426A
:1005600040EBC25008BF20F0010070470CF0004C77
:100570004CEA50207F32C2BFD2F1FF0340EAC250A2
:10058000704740F400004FF00003013A37E792F063
:10059000000F00F0004C02BF400010F4000F013AC1
:1005A000F9D040EA0C0093F0000F01F0004C02BFBC
:1005B000490011F4000F013BF9D041EA0C0195E725
:1005C0000CEAD15392EA0C0F08D142027FF47DAFBE
:1005D00093EA0C0F7FF470AF084676E793EA0C0FAE
:1005E00004D14B023FF44CAF08466EE730F0004CAC
:1005F00018BF31F0004CCAD130F000427FF45CAF3C
:1006000031F000437FF43CAF5FE700BF4FF0FF3CA9
:1006100006E000BF4FF0010C02E000BF4FF0010CFC
:100620004DF804CD4FEA40024FEA41037FEA226CC5
:1006300018BF7FEA236C11D001B052EA530C18BFE7
:1006400090EA010F58BFB2EB030088BFC81738BF4C
:100650006FEAE17018BF40F0010070477FEA226C3A
:1006600002D15FEA402C05D17FEA236CE4D15FEA36
:10067000412CE1D05DF8040B704700BF844608466A
:100680006146FFE70FB5FFF7C9FF002848BF10F12B
:10069000000F0FBD4DF808EDFFF7F4FF0CBF012070
:1006A00000205DF808FB00BF4DF808EDFFF7EAFFFA
:1006B00034BF012000205DF808FB00BF4DF808EDB5
:1006C000FFF7E0FF94BF012000205DF808FB00BFAA
:1006D0004DF808EDFFF7D2FF94BF012000205DF830
:1006E00008FB00BF4DF808EDFFF7C8FF34BF01203D
:1006F00000205DF808FB00BF4FEA40024FEA4103CB
:100700007FEA226C02D15FEA402C08D17FEA236C99
:1007100002D15FEA412C02D14FF0000070474FF048
:10072000010070474FEA4002B2F1FE4F0FD34FF085
:100730009E03B3EB12620DD94FEA002343F000434E
:1007400010F0004F23FA02F018BF404270474FF0FC
:100750000000704712F1610F01D1420205D110F083
:10076000004008BF6FF0004070474FF00000704736
:1007700042000ED2B2F1FE4F0BD34FF09E03B3EB0B
:10078000126209D44FEA002343F0004323FA02F037
:1007900070474FF00000704712F1610F01D1420223
:1007A00002D14FF0FF3070474FF00000704700BF9C
:1007B00008B50268034B9A4200D008BD00F022FC45
:1007C000FBE700BF0008004072B6FEE700B591B03D
:1007D0002822002106A804F0A5FF0023019302931C
:1007E000039304930593012206924FF480330793F9
:1007F0000A9202220D920E934FF4E0130F9306A873
:1008000000F03CFC80B90F230193022102910023E8
:1008100003934FF480630493059301A800F060FEF6
:1008200020B911B05DF804FBFFF7CEFFFFF7CCFF56
:1008300008B500F0D5FBFFF7C9FF00F00FF802F094
:1008400059FB00F097F800F075F804F0ABFE04F0E7
:10085000A3FE03F06DFF04F03DFEFEE770B588B027
:10086000002404940594069407942E4B9A6942F050
:1008700010029A619A6902F010020092009A9A6935
:1008800042F020029A619A6902F020020192019AD4
:100890009A6942F004029A619A6902F00402029293
:1008A000029A9A6942F008029A619B6903F0080370
:1008B0000393039B1C4D01224FF4C051284601F0C5
:1008C0000BF84FF4C05304930123059306930323BD
:1008D000079304A9284600F0EDFE4FF4004304936B
:1008E000124E0596069404A9284600F0E3FE08235C
:1008F00004930596069404A90D4800F0DBFE2246F9
:100900000521092001F0E8F8092001F01DF922462F
:100910000521282001F0E0F8282001F015F908B0A1
:1009200070BD00BF0010024000080140000011101F
:10093000000C014008B50D480D4B03604FF4827365
:10094000436000238360C360036143614FF400721E
:100950008261C3610362436283620A23C36200F05F
:10096000B9F900B908BDFFF72FFFFBE7B40100207C
:100970000030014008B50F480F4B03604FF48273FD
:10098000436000238360C36002220261012242614E
:100990004FF4007282612822C26103624362836263
:1009A0000A23C36200F096F900B908BDFFF70CFFF7
:1009B000FBE700BF0C0200200038004070B588B093
:1009C000002304930593069307930368444A9342D4
:1009D00005D00446434A934229D008B070BD424B2B
:1009E0009A6942F480529A619A6902F480520092A4
:1009F000009A9A6942F004029A619B6903F0040329
:100A00000193019BA02304930223059303230793DF
:100A1000364C04A9204600F04DFE402304930023E9
:100A20000593069304A9204600F044FED5E72E4B1B
:100A3000DA6942F48042DA61DA6902F480420292B1
:100A4000029A9A6942F008029A619B6903F00803CE
:100A50000393039B4FF42043049302230593032342
:100A60000793234E04A9304600F024FE4FF4804340
:100A7000049300250595069504A9304600F01AFE5A
:100A80001C481D4B0360456085608023C360056181
:100A9000456185614FF44053C36100F033FFC0B935
:100AA000144BE3645C621548154B036010234360EC
:100AB000002383608022C2600361436183614FF43D
:100AC0000053C36100F01EFF30B90C4BA3645C629D
:100AD00083E7FFF779FEE3E7FFF776FEF5E700BF70
:100AE0000030014000380040001002400008014082
:100AF000000C01402C010020440002407001002045
:100B000058000240FEE7FEE7FEE7FEE7FEE770471B
:100B100008B5082000F0E8FE08BD000008B502484E
:100B200000F026FF08BD00BF2C01002008B50248D8
:100B300000F01EFF08BD00BF7001002008B502488C
:100B400001F076F808BD00BFA021002008B50248DA
:100B500001F06EF808BD00BF9008002008B54FF402
:100B6000004000F0C1FE08BD00B583B0114B9A698A
:100B700042F001029A619A6902F001020092009A21
:100B8000DA6942F08052DA61DB6903F08053019345
:100B9000019B00220F216FF0010000F09DFF064A2B
:100BA000536823F0E06343F00073536003B05DF8D3
:100BB00004FB00BF00100240000001402DE9F04797
:100BC00082B00546884617461E4600F027FA0A9B63
:100BD0001B1A03EB060900F021FA82462B4B1B6817
:100BE000C3F3CB3309FB03F301932B689C6838EA0A
:100BF00004030CBF4FF0010C4FF0000CBC4540D07B
:100C0000B6F1FF3FF1D000F009FAA0EB0A00484529
:100C10000AD2B9F1000F07D0019A02B14A46019BEE
:100C2000013B01939146E0E72A68536823F0E00313
:100C300053606B68B3F5827F0BD0AB6AB3F5005F8E
:100C400014D0012385F85130002385F8503003205B
:100C500018E0AB68B3F5004F02D0B3F5806FECD16C
:100C60002A68136823F040031360E6E72A681368D4
:100C700023F4005313602A68136843F4005313608D
:100C8000DFE7002002B0BDE8F08700BF08000020C9
:100C900070B582B006460C46154600920B460122FE
:100CA0000221FFF78BFF48B90095234600228021DF
:100CB0003046FFF783FF38B902B070BD736D43F063
:100CC000200373650320F7E7736D43F0200373651A
:100CD0000320F1E7002856D010B50446436A33B923
:100CE0004368B3F5827F05D00023C36102E000238F
:100CF000036143610023A36294F85130002B3CD080
:100D0000022384F851302268136823F040031360F3
:100D1000636803F48273A26802F404421343E26836
:100D200002F400621343226902F002021343626973
:100D300002F001021343A26902F400721343E26954
:100D400002F038021343226A02F080021343A26ABF
:100D500002F40052216813430B60638B226803F096
:100D6000040353602268D36923F40063D361002035
:100D70006065012384F8513010BD84F8503020465E
:100D8000FFF71CFEBCE7012070472DE9F04383B05C
:100D90000446884691461F460A9D00F03FF90646E4
:100DA00094F85130DBB26268012B0AD0B2F5827F31
:100DB00040F00581A268002A40F00581042B40F034
:100DC0000481B8F1000F00F00281B9F1000F00F0CA
:100DD0000081002F00F0FF8094F85030012B00F0CC
:100DE000FC80012384F8503094F85130DBB2042B9E
:100DF00002D0052384F8513000236365C4F838908D
:100E0000E787A787C4F83080E786A78623646364F2
:100E100023681A6812F0400F03D11A6842F04002AA
:100E20001A60E368B3F5006F11D063680BB1012F4E
:100E30000BD1226B236812781A73236B013323635F
:100E4000E38E9BB2013B9BB2E386012771E06368AE
:100E50000BB1012F0BD1226B23681288DA60236B50
:100E600002332363E38E9BB2013B9BB2E3860127EF
:100E70001BE023689A6812F0010F0ED0E28F92B245
:100E80005AB1DA68A36B1A80A36B0233A363E38FB2
:100E90009BB2013B9BB2E387012700F0BFF8801BA8
:100EA000A84202D3B5F1FF3F1ED1E38E9BB21BB91E
:100EB000E38F9BB2002B62D023689A6812F0020F76
:100EC000D7D0E28E92B2002AD3D0002FD1D0226B9D
:100ED0001288DA60236B02332363E38E9BB2013BFB
:100EE0009BB2E3860027C4E7012384F85130002336
:100EF00084F85030032063E023689A6812F0010FF1
:100F00000ED0E28F92B25AB1DA68A36B1A70A36B5B
:100F10000133A363E38F9BB2013B9BB2E3870127BD
:100F200000F07CF8831BAB4202D3B5F1FF3F1ED12A
:100F3000EDB1E38E9BB213B9E38F9BB2FBB1236893
:100F40009A6812F0020FD7D0E28E92B2002AD3D064
:100F5000002FD1D0226B12781A73236B01332363D5
:100F6000E38E9BB2013B9BB2E3860027C4E70123DB
:100F700084F85130002384F85030032020E03246BA
:100F800029462046FFF784FE90B9A36833B9019340
:100F90002368DA6801929B680193019B012384F81E
:100FA0005130002384F85030636D4BB1012007E0CD
:100FB00020236365002384F85030012000E00220E4
:100FC00003B0BDE8F0830220FAE70220F8E7012031
:100FD000F6E70120F4E70120F2E70220F0E7000045
:100FE00008B5074A136843F010031360032000F0AC
:100FF00061FD0F2003F0B4FBFFF7B6FD002008BD34
:1010000000200240034A1168034B1B780B44136015
:10101000704700BF6402002000000020014B1868E8
:10102000704700BF6402002038B50446FFF7F6FFA2
:101030000546B4F1FF3F02D0044B1B781C44FFF778
:10104000EDFF401BA042FAD338BD00BF00000020D6
:1010500082B0084B1B68084AA2FB03235B0A00FB13
:1010600003F3019300BF019B5A1E0192002BF9D19B
:1010700002B0704708000020D34D6210002800F035
:10108000F18170B582B00446036813F0010F2CD0D3
:10109000994B5B6803F00C03042B1DD0964B5B68E7
:1010A00003F00C03082B12D06368B3F5803F41D0E6
:1010B000002B55D103F1804303F504331A6822F461
:1010C00080321A601A6822F480221A6037E08A4B54
:1010D0005B6813F4803FE7D0874B1B6813F4003F35
:1010E00003D06368002B00F0BF81236813F0020F68
:1010F00075D0814B5B6813F00C0F5FD07E4B5B6843
:1011000003F00C03082B54D02369002B00F08A80D5
:101110007A4B01221A60FFF781FF0546764B1B6868
:1011200013F0020F75D1FFF779FF401B0228F5D9A4
:1011300003209EE1704A136843F4803313606368B0
:1011400043B3FFF76BFF05466B4B1B6813F4003F7F
:10115000CBD1FFF763FF401B6428F5D9032088E15A
:10116000B3F5A02F09D0644B1A6822F480321A60BC
:101170001A6822F480221A60E1E703F18043A3F5A4
:101180003C331A6842F480221A601A6842F48032B2
:101190001A60D4E7FFF742FF0546574B1B6813F46C
:1011A000003FA2D0FFF73AFF401B6428F5D9032087
:1011B0005FE1514B5B6813F4803FA5D14E4B1B6838
:1011C00013F0020F03D02369012B40F04F814A4AEC
:1011D000136823F0F803616943EAC10313602368CD
:1011E00013F0080F33D0A369002B5CD0434B0122CE
:1011F000C3F88024FFF712FF05463F4B5B6A13F0EC
:10120000020F21D1FFF70AFF401B0228F5D9032066
:101210002FE1394A136823F0F803616943EAC103F7
:101220001360DCE7354B00221A60FFF7F7FE054636
:10123000314B1B6813F0020FD1D0FFF7EFFE401BBC
:101240000228F5D9032014E10120FFF701FF2368EC
:1012500013F0040F00F09680274BDB6913F0805FDA
:1012600034D1254BDA6942F08052DA61DB6903F050
:1012700080530193019B0125214B1B6813F4807F50
:1012800026D0E368012B3DD0002B53D103F18043DE
:1012900003F504331A6A22F001021A621A6A22F074
:1012A00004021A6233E0154B0022C3F88024FFF7D2
:1012B000B5FE0546104B5B6A13F0020FC7D0FFF76F
:1012C000ADFE401B0228F5D90320D2E00025D3E76C
:1012D0000B4A136843F480731360FFF79FFE0646C2
:1012E000074B1B6813F4807FCBD1FFF797FE801B61
:1012F0006428F5D90320BCE00010024000004242FF
:10130000007000405F4A136A43F001031362E36810
:1013100033B3FFF783FE06465A4B1B6A13F0020FE6
:101320002FD1FFF77BFE801B41F288339842F3D91F
:1013300003209EE0052B09D0524B1A6A22F00102CD
:101340001A621A6A22F004021A62E0E74D4B1A6A26
:1013500042F004021A621A6A42F001021A62D6E7E7
:10136000FFF75CFE0646474B1B6A13F0020F08D0DE
:10137000FFF754FE801B41F288339842F3D90320D3
:1013800077E0E5B9E369002B72D03E4A526802F07B
:101390000C02082A56D0022B17D03B4B00221A66AB
:1013A000FFF73CFE0446374B1B6813F0007F47D025
:1013B000FFF734FE001B0228F5D9032059E0314A1B
:1013C000D36923F08053D361DCE72F4B00221A66E8
:1013D000FFF724FE05462B4B1B6813F0007F06D059
:1013E000FFF71CFE401B0228F5D9032041E0236AC9
:1013F000B3F5803F1AD023494B6823F47413226A53
:10140000606A024313434B601F4B01221A66FFF7C9
:1014100005FE04461B4B1B6813F0007F0ED1FFF73F
:10142000FDFD001B0228F5D9032022E0154A536870
:1014300023F40033A1680B435360DCE7002018E07D
:10144000002016E0012B16D00E4B5B6803F48031B0
:10145000226A914211D103F47013626A93420ED151
:10146000002006E001207047012002E0012000E09A
:10147000002002B070BD0120FBE70120F9E7012048
:10148000F7E700BF00100240000042420F4B5B68CC
:1014900003F00C02082A01D00D487047C3F38342C1
:1014A0000C49885C13F4803F0BD0084B5B68C3F396
:1014B0004043094AD35C064A02FB00F0B0FBF3F05C
:1014C0007047064B03FB00F0704700BF001002405E
:1014D00000127A00DC780008EC78000800093D0072
:1014E000002800F0A08070B50D460446524B1B68E2
:1014F00003F007038B420BD24F4A136823F0070314
:101500000B431360136803F007038B4240F08D8098
:10151000236813F0020F17D013F0040F04D0474ACA
:10152000536843F4E0635360236813F0080F04D05A
:10153000424A536843F460535360404A536823F06F
:10154000F003A1680B435360236813F0010F31D0FF
:101550006368012B20D0022B25D0384A126812F084
:10156000020F64D035494A6822F0030213434B60EE
:10157000FFF754FD0646314B5B6803F00C036268CD
:10158000B3EB820F16D0FFF749FD801B41F2883381
:101590009842F0D9032045E0284A126812F4003F2F
:1015A000E0D101203EE0254A126812F0007FD9D137
:1015B000012037E0204B1B6803F00703AB420AD938
:1015C0001D4A136823F007032B431360136803F0CD
:1015D0000703AB422DD1236813F0040F06D0174A3E
:1015E000536823F4E063E1680B435360236813F00E
:1015F000080F07D0114A536823F46053216943EA66
:10160000C1035360FFF742FF0C4B5B68C3F3031346
:101610000B4AD35CD8400B4B18600B4B186803F097
:101620009FF8002070BD012070470120FAE70120DB
:10163000F8E70120F6E700BF00200240001002405A
:10164000F07800080800002004000020014B186812
:10165000704700BF0800002008B5FFF7F7FF044BF4
:101660005B68C3F30223034AD35CD84008BD00BFC4
:1016700000100240007900080F2303600B4B5A68EA
:1016800002F0030242605A6802F0F00282605A6877
:1016900002F4E062C2605B68DB0803F4E0630361AC
:1016A000034B1B6803F007030B60704700100240F8
:1016B0000020024070B582B00024A446A6E0804D10
:1016C000AA4210D007D97F4DAA420CD005F580352B
:1016D000AA4208D013E0A5F58015AA4203D005F56B
:1016E0007025AA4207D18A68002A58D0012A51D011
:1016F0004361082403E0A5F58015AA42F3D0BEF1AA
:10170000FF0F4ED80646BEF1FF0F4CD84FEA8C02B1
:1017100033680F25954023EA050304FA02F21343C8
:1017200033604B6813F0805F6ED0674B9A6942F06C
:1017300001029A619B6903F001030193019B4FEA47
:101740009C02951C614B53F825600CF003039D002F
:101750000F23AB4026EA03065D4B984229D003F5E0
:101760008063984200F08E8003F58063984200F019
:101770008B8003F58063984219D004231AE0CC686B
:10178000BDE7CC680434BAE7CC680834B7E7CC6866
:101790000C34B4E703610824B1E70024AFE7042464
:1017A000ADE7061DAFE7ACF108029200B0E70323F6
:1017B00000E00023AB4033430232444D45F8223071
:1017C0004B6813F4801F61D0424A936843EA0E03CA
:1017D00093604B6813F4001F5ED03E4AD36843EA1F
:1017E0000E03D3604B6813F4003F5BD0394A536853
:1017F00043EA0E0353604B6813F4803F58D0354AD8
:10180000136843EA0E0313600CF1010C0A6832FA04
:101810000CF353D0012303FA0CF302EA030E33EA6C
:101820000202F1D14A68122A3FF649AF122A3FF666
:1018300066AF01A555F822F0E71600087F170008EB
:10184000891700089B170008FF160008FF160008FC
:10185000FF160008FF160008FF160008FF16000814
:10186000FF160008FF160008FF160008FF16000804
:10187000FF160008FF160008FF160008831700086F
:101880008F170008012395E7022393E7114A936815
:1018900023EA0E0393609CE70E4AD36823EA0E0303
:1018A000D3609FE70B4A536823EA0E035360A2E715
:1018B000084A136823EA0E031360A5E702B070BD5F
:1018C0000000221000003110001002400000014012
:1018D00000080140000401400AB101617047090499
:1018E000016170477047000008B5054B5B69034212
:1018F00000D108BD024B5861FFF7F4FFF9E700BFC4
:101900000004014060B310B402460168154B0B445B
:101910001548A0FB03031B099B001364134BD363FF
:10192000022382F82130086820F47F5020F0300034
:10193000536894682343D468234314692343546948
:10194000234394692343D469234303430B6000205A
:101950009063012382F8213082F8200010BC704788
:1019600001207047F8FFFDBFCDCCCCCC0000024079
:1019700038B5C36B1A6804682568016C04238B4072
:10198000134235D015F0040F32D0236813F0200F26
:1019900003D1236823F0040323600368434A93427E
:1019A00014D01432934218D01432934217D0143208
:1019B000934217D01432934217D01432934202D07C
:1019C0004FF0806203E04FF4800200E00422384BC5
:1019D0005A60C36A03B1984738BD4022F7E74FF415
:1019E0008062F4E74FF48042F1E74FF48022EEE7A3
:1019F00002238B4013423CD015F0020F39D02368EC
:101A000013F0200F06D1236823F00A03236001237B
:101A100080F821300368254A934214D0143293424F
:101A20001CD0143293421BD0143293421BD0143278
:101A300093421BD01432934202D04FF0007203E065
:101A40004FF4001200E00222194B5A60002380F884
:101A50002030836A002BBFD09847BDE72022F3E7F0
:101A60004FF40072F0E74FF40052EDE74FF400320C
:101A7000EAE7082303FA01F11142ADD015F0080F8F
:101A8000AAD0236823F00E032360026CC16B0123EC
:101A900003FA02F24A60836380F82130002380F861
:101AA0002030036B002B97D0984795E70800024041
:101AB00000000240074AD36823F4E0631B041B0CB8
:101AC000000200F4E060034343F0BF6343F40033DB
:101AD000D360704700ED00E000B5194BDB68C3F33D
:101AE0000223C3F1070CBCF1040F28BF4FF0040C14
:101AF00003F1040EBEF1060F18D9033B4FF0FF3E71
:101B00000EFA0CFC21EA0C0199400EFA03F322EACA
:101B10000303194300280BDB0901C9B200F160403F
:101B200000F5614080F800135DF804FB0023E5E751
:101B300000F00F000901C9B2024B1954F4E700BFCD
:101B400000ED00E014ED00E0002807DB00F01F02CC
:101B5000400901239340024A42F82030704700BFF9
:101B600000E100E010B4036A046A24F00104046296
:101B7000846924F0F00C4CEA021223F00A030B43B0
:101B80008261036210BC704710B4036A046A24F0D7
:101B900010040462846924F4704C4CEA023223F08D
:101BA000A00343EA01138261036210BC704783689B
:101BB00023F070030B4343F007038360704700007A
:101BC00090F83D30DBB2012B27D1022380F83D3065
:101BD0000268D36843F00103D3600368114A93425B
:101BE00010D0B3F1804F0DD0A2F59432934209D0BA
:101BF00002F58062934205D01A6842F001021A6031
:101C0000002070479A6802F00702062A07D01A6877
:101C100042F001021A600020704701207047002046
:101C2000704700BF002C01407047704770477047F5
:101C300070B504460368DE681D6915F0020F10D008
:101C400016F0020F0DD06FF002021A610123037724
:101C500003689B6913F0030F5ED0FFF7E6FF0023D4
:101C6000237715F0040F12D016F0040F0FD023685D
:101C70006FF004021A610223237723689B6913F42F
:101C8000407F4FD02046FFF7D0FF0023237715F089
:101C9000080F12D016F0080F0FD023686FF008025B
:101CA0001A61042323772368DB6913F0030F40D004
:101CB0002046FFF7BAFF0023237715F0100F12D04C
:101CC00016F0100F0FD023686FF010021A6108236E
:101CD00023772368DB6913F4407F31D02046FFF778
:101CE000A4FF0023237715F0010F02D016F0010F97
:101CF0002DD115F0800F02D016F0800F2FD115F0E6
:101D0000400F02D016F0400F31D115F0200F02D055
:101D100016F0200F33D170BDFFF786FF2046FFF786
:101D200085FF9CE72046FFF77FFF2046FFF77EFFF9
:101D3000ABE72046FFF778FF2046FFF777FFBAE7CB
:101D40002046FFF771FF2046FFF770FFC9E72368C1
:101D50006FF001021A612046FEF72AFDC9E72368E9
:101D60006FF080021A61204600F043F9C7E723684C
:101D70006FF040021A612046FFF759FFC5E723685C
:101D80006FF020021A61204600F032F9C3E700002C
:101D900003681F4A90420AD0B0F1804F07D0A2F5E5
:101DA0009432904203D002F58062904203D123F036
:101DB00070034A681343164A90420AD0B0F1804F2C
:101DC00007D0A2F59432904203D002F5806290428F
:101DD00003D123F44073CA68134323F080034A6994
:101DE000134303608B68C3620B688362084B98429D
:101DF0000AD001234361036913F0010F03D0036983
:101E000023F00103036170470B690363F1E700BF2F
:101E1000002C014040B310B5044690F83D30F3B1BA
:101E2000022384F83D30214651F8040BFFF7B0FF40
:101E3000012384F8463084F83E3084F83F3084F83B
:101E4000403084F8413084F8423084F8433084F8DC
:101E5000443084F8453084F83D30002010BD80F8CF
:101E60003C3003F0DBFBDBE70120704710B48468F3
:101E700024F47F4C42EA03220A4342EA0C028260C5
:101E800010BC704790F83C30012B78D010B5044658
:101E9000012380F83C30022380F83D3002689368CB
:101EA00023F47F4323F0770393600B68602B4CD0BF
:101EB00029D8402B54D00CD9502B22D1CA6849685C
:101EC0000068FFF74FFE50212068FFF770FE0020EA
:101ED00005E0202B0DD009D9302B0AD00120012399
:101EE00084F83D30002384F83C3010BD0BB1102B3A
:101EF00005D119462068FFF75AFE0020EFE70120C0
:101F0000EDE70120EBE7B3F5805F34D0B3F5005F78
:101F10000CD1CB684A6889680068FFF7A7FF226880
:101F2000936843F4804393600020D8E7702B24D15A
:101F3000CB684A6889680068FFF798FF2268936851
:101F400043F0770393600020C9E7CA6849680068D6
:101F5000FFF71AFE60212068FFF729FE0020BEE788
:101F6000CA6849680068FFF7FDFD40212068FFF757
:101F70001EFE0020B3E70020B1E70120AFE70220FA
:101F80007047000090F83C30012B2CD010B4012396
:101F900080F83C30022380F83D3003685A689C6822
:101FA00022F0700C0A6842EA0C025A6003680F4A79
:101FB00093420AD0B3F1804F07D0A2F594329342F6
:101FC00003D002F58062934204D124F080044A6871
:101FD00014439C60012380F83D30002380F83C309E
:101FE000184610BC70470220704700BF002C01400B
:101FF000704770477047000010B503460C4A0D4902
:102000000D48006840B10C4800680344521A9342DE
:1020100006D8094A136010BD0748084C0460F2E76F
:1020200003F040FB0C2303604FF0FF30F3E700BFE9
:10203000005000200004000068020020F821002069
:1020400010B50C4600F028FA204600F025FA10BD25
:1020500010B50C4640F0800000F01EFA552000F04C
:102060001BFA207010BD38B50D46144640F08000B4
:1020700000F012FA06E0552000F00EFA05F8010B08
:10208000013CE4B2002CF6D138BD0000F8B500F0F8
:10209000DBF9802000F000FA552000F0FDF9552012
:1020A00000F0FAF900F0DAF9962000F0A5F900F056
:1020B000CBF9802000F0F0F9552000F0EDF9552023
:1020C00000F0EAF900F0CAF9962000F095F900F066
:1020D000BBF9B6217E20FFF7B3FF00F0BFF9502017
:1020E00000F0A6F900F0B0F9802000F0D5F95520F5
:1020F00000F0D2F9552000F0CFF900F0AFF99620AA
:1021000000F07AF900F0A0F9802000F0C5F9552020
:1021100000F0C2F9552000F0BFF9044600F09EF926
:10212000962000F069F91E2C32D10024052C2DD800
:1021300000F08AF9174A04EB4403D1184E78D55CB5
:1021400031462846FFF77CFF00F088F9962000F022
:1021500053F900F079F945F0800000F09DF9552021
:1021600000F09AF9552000F097F9054600F076F94D
:10217000962000F041F9AE4202D10134E4B2D5E735
:1021800004EB4407034B1F44B87800E00020F8BD7F
:10219000FF20FCE708790008F0B583B000248DF833
:1021A000074000F065F90DF107012046FFF750FFE9
:1021B00000F068F9962000F01FF900F059F90DF1D0
:1021C00007012046FFF744FF00F05CF9962000F07D
:1021D00013F900F04DF9B6211420FFF731FF00F09C
:1021E00051F9502000F024F900F042F90DF10701F7
:1021F0002046FFF72DFF00F045F9962000F0FCF88F
:1022000000F036F90DF107012046FFF721FF00F03D
:1022100039F9962000F0F0F89DF807300F2B2ED1F9
:10222000052C29D800F024F9164A04EB4403D118F0
:102230004D78D65C29463046FFF702FF00F022F9C0
:10224000962000F0D9F800F013F90DF1070130469F
:10225000FFF7FEFE00F016F9962000F0CDF89DF88D
:1022600007309D4202D10134E4B2D9E704EB4407C0
:10227000044B1F44B87800E0002003B0F0BDFF20FD
:10228000FBE700BF1C79000810B500F0B3F800F0C0
:10229000B2F8FFF7FBFE0446FFF77EFF2043C0B213
:1022A00010BD000070B582B004464E4B93E80300A9
:1022B0000090ADF80410090C8DF8061000258DF87B
:1022C000075000F0C1F8922000F0E6F806226946B7
:1022D0001220FFF7C8FE00F0C1F89DF801301B0284
:1022E0001BB29DF800001843FDF7ECFF3E4E31682D
:1022F000FEF73CF820609DF803301B021BB29DF8EE
:10230000020036681843FDF7DDFF3146FEF72EF870
:1023100060609DF805301B021BB29DF80400184355
:10232000FDF7D0FF3146FEF721F8A06000F0A0F8DD
:10233000082269462846FFF796FE00F0A3F89DF8AC
:1023400000300F2B23D000F07FF8A22000F0A4F87B
:10235000022269462220FFF786FE00F07FF89DF8F2
:1023600000309DF80100400940EAC300B0F5806FDD
:1023700001DBA0F50060FDF7A5FF4FF07851FDF7F8
:10238000F5FF1A49FDF7EAFEE06102B070BD9DF865
:1023900003301B021BB29DF80200154A1568184352
:1023A000FDF790FF2946FDF7E1FFE0609DF805305D
:1023B0001B021BB29DF804001843FDF783FF29465A
:1023C000FDF7D4FF20619DF807301B021BB29DF87A
:1023D00006001843FDF776FF2946FDF7C7FF606149
:1023E000B1E700BF9C7800080C0000200000B84155
:1023F000100000207047704710B44FF0E0235C6974
:102400004FF0A80C0CFB00FC9B69002104E0E01AD3
:1024100002441144614509D21A464FF0E0239B69FA
:102420009A42FAD0F3D9D21A1144F3E710BC70479C
:1024300010B504E04FF47A70FFF7DEFF2046431E2C
:102440009CB20028F6D110BD08B500224FF40061FF
:102450000148FFF741FA08BD0008014008B5012214
:102460004FF400610148FFF737FA08BD000801404A
:1024700008B500224FF480510148FFF72DFA08BD3E
:102480000008014008B501224FF480510148FFF7D0
:1024900023FA08BD0008014000B587B08DF80F0091
:1024A0004FF47A73009301230DF117020DF10F0120
:1024B0000348FEF76AFC9DF8170007B05DF804FBBF
:1024C0000C020020F0B58BB0064600240794089457
:1024D00009940023049305934FF07E5306930194CF
:1024E0000294039417E02D4D2846FFF7DBFE296880
:1024F0000798FDF733FE079069680898FDF72EFEF0
:102500000890A9680998FDF729FE09900120FEF7B7
:102510008BFD0134E4B2632CE5D900240BE00AAB57
:1025200003EB84051E4955F80C0CFDF7D3FF45F865
:102530000C0C0134E4B2022CF1D907A801F0EAFB3B
:1025400004A907A801F047FC03F018FA044601AA01
:1025500004A907A801F010FC01A801F0DBFB4FF073
:102560007C512046FDF702FF054603F095F93060E7
:1025700000240FE00AAB03EB840353F8247C2846C5
:1025800003F0C2F9014601343846FDF7EFFE46F884
:102590002400E4B2012CEDD90BB0F0BD6C02002098
:1025A0000000C8422DE9F04F8FB004468A4693469A
:1025B0000569944B19682846FDF7CEFD20F00040D0
:1025C0009149FEF78FF8C8B9904B19686069FDF71B
:1025D000C3FD20F000408C49FEF784F870B98C4BA5
:1025E0001968A069FDF7B8FD20F000408649FEF7A4
:1025F00079F818B92378002B00F08880854928469F
:10260000FDF768FF05F0EEF8814682496069FDF745
:1026100061FF05F0E7F880467E49A069FDF75AFFA3
:1026200005F0E0F801907B492069FDF753FF05F0C4
:102630008DF8054677496069FDF74CFF05F086F88F
:1026400006467449A069FDF745FF05F07FF8074687
:1026500001994846FDF78AFE029031462846FDF76B
:1026600085FE3946FDF782FE01460298FDF776FDAC
:10267000694B186029464046FDF778FE674B1860A5
:1026800039464846FDF772FE039029460198FDF74A
:102690006DFE04903146FDF769FE01460398FDF793
:1026A0005BFD5F4B186031464846FDF75FFE3946DB
:1026B000FDF75CFE0499FDF74FFD5A4B186041464B
:1026C0004846FDF753FE584B186005F10040394667
:1026D000FDF74CFE054631460298FDF747FE0146E0
:1026E0002846FDF739FD514B186008F10040394686
:1026F000FDF73CFE4E4B18604E4B1E600199404664
:10270000FDF734FE4C4B18600023237000250FE0CA
:10271000AE0004EB850359685AF82500FDF726FE44
:1027200006F138030DEB030646F80C0C0135EDB24B
:10273000022DEDD90B9D384B1B6801931946284695
:10274000FDF714FE06460C9F344B1B680293194696
:102750003846FDF70BFE01463046FDF7FFFC80468C
:102760000D9E2F4B1B68039319463046FDF7FEFD67
:1027700001464046FDF7F2FCCAF80000294B1B68F1
:10278000049319462846FDF7F1FD8046264B1B6849
:10279000059319463846FDF7E9FD01464046FDF729
:1027A000DDFC8046214B1B68069319463046FDF739
:1027B000DDFD01464046FDF7D1FCCAF804001C4B84
:1027C0001B68079319462846FDF7D0FD0546194BAF
:1027D000D3F8009049463846FDF7C8FD0146284623
:1027E000FDF7BCFC0546144BD3F80080414630464B
:1027F000FDF7BCFD01462846FDF7B0FCCAF808000D
:10280000002324E0700300206F12833A6803002045
:102810006C030020E12E65423C03002040030020B1
:1028200044030020480300204C03002050030020F4
:1028300054030020580300205C0300205BF82310A1
:102840000EAA02EB830242F8181C0133DBB2022B02
:10285000F4D9089F39460198FDF788FD0546099E81
:1028600031460298FDF782FD01462846FDF776FCC9
:1028700082460A9D29460398FDF778FD0146504699
:10288000FDF76CFCCBF8000039460498FDF76EFDAF
:10289000824631460598FDF769FD01465046FDF731
:1028A0005DFC824629460698FDF760FD01465046CC
:1028B000FDF754FCCBF8040039460798FDF756FDA8
:1028C000074631464846FDF751FD01463846FDF7BB
:1028D00045FC064629464046FDF748FD0146304680
:1028E000FDF73CFCCBF808002269054B1A606269D1
:1028F000044B1A60A269044B1A600FB0BDE8F08F58
:1029000070030020680300206C0300201A4B93F82A
:1029100078300BB119487047F0B587B0164F0124D5
:1029200087F87840FFF7B0FC15481023C361FEF725
:10293000D1F9144B4FF07E555D609D60DD6000263F
:102940001E615E619E611C700024029403940494D5
:10295000059402A8FFF7B6FD019600950A4B0B4AB5
:102960000B4902A800F0B2FE0A4BBB620A4B1B687F
:102970005C62024807B0F0BDBC0200200C030020DE
:102980000C020020A0020020002474496F12833A38
:102990000000204196430B3CA02100202DE9F04F80
:1029A00083B005460E461446976839463846FDF70B
:1029B000DDFC01464FF07C50FDF7CEFB8146D4F89C
:1029C0000C8041464046FDF7D1FC01464846FDF7E4
:1029D000C3FB2968FDF7CAFC0190D4F804B059463E
:1029E0003846FDF7C3FC8146D4F800A05146404666
:1029F000FDF7BCFC01464846FDF7AEFB6968FDF7F4
:102A0000B5FC01460198FDF7A9FB814659464046B1
:102A1000FDF7ACFC804651463846FDF7A7FC014661
:102A20004046FDF79BFBA968FDF7A0FC0146484620
:102A3000FDF794FB0146FDF791FB30606768D4F821
:102A400008B059463846FDF791FC8146D4F800A0FD
:102A5000D4F80C8041465046FDF788FC01464846B4
:102A6000FDF77CFB2968FDF781FC0190394638466B
:102A7000FDF77CFC01464FF07C50FDF76DFB814675
:102A800041464046FDF772FC01464846FDF764FBAF
:102A90006968FDF76BFC01460198FDF75FFB814615
:102AA00041465846FDF762FC804651463846FDF7E0
:102AB0005DFC01464046FDF74FFBA968FDF756FC5B
:102AC00001464846FDF74AFB0146FDF747FB7060AB
:102AD0006768D4F80C9049463846FDF747FC8046B5
:102AE000D4F800A0A46821465046FDF73FFC0146FB
:102AF0004046FDF731FB2968FDF738FC804621464A
:102B00004846FDF733FC814651463846FDF72EFC1A
:102B100001464846FDF722FB6968FDF727FC0146A0
:102B20004046FDF71BFB804639463846FDF71EFC44
:102B300001464FF07C50FDF70FFB0746214620462B
:102B4000FDF714FC01463846FDF706FBA968FDF7C2
:102B50000DFC01464046FDF701FB0146FDF7FEFA7C
:102B6000B06003B0BDE8F08F2DE9F04F83B00546AB
:102B70000E461446976839463846FDF7F7FB01467E
:102B80004FF07C50FDF7E8FA8146D4F80C804146BE
:102B90004046FDF7EBFB01464846FDF7DDFA2968A4
:102BA000FDF7E4FB0190D4F804B059463846FDF730
:102BB000DDFB8146D4F800A051464046FDF7D6FB28
:102BC00001464846FDF7CAFA6968FDF7CFFB0146A2
:102BD0000198FDF7C3FA814659464046FDF7C6FB0A
:102BE000804651463846FDF7C1FB01464046FDF799
:102BF000B3FAA968FDF7BAFB01464846FDF7AEFAFD
:102C00000146FDF7ABFA30606768D4F808B0594662
:102C10003846FDF7ABFB8146D4F800A0D4F80C8011
:102C200041465046FDF7A2FB01464846FDF794FA9F
:102C30002968FDF79BFB019039463846FDF796FB66
:102C400001464FF07C50FDF787FA814641464046E9
:102C5000FDF78CFB01464846FDF77EFA6968FDF7F3
:102C600085FB01460198FDF779FA814641465846B1
:102C7000FDF77CFB804651463846FDF777FB014661
:102C80004046FDF76BFAA968FDF770FB0146484620
:102C9000FDF764FA0146FDF761FA70606768D4F8E1
:102CA0000C9049463846FDF761FB8046D4F800A0F9
:102CB000A46821465046FDF759FB01464046FDF702
:102CC0004DFA2968FDF752FB804621464846FDF73C
:102CD0004DFB814651463846FDF748FB01464846C4
:102CE000FDF73AFA6968FDF741FB01464046FDF7FA
:102CF00035FA804639463846FDF738FB01464FF035
:102D00007C50FDF729FA074621462046FDF72EFBA9
:102D100001463846FDF720FAA968FDF727FB014672
:102D20004046FDF71BFA0146FDF718FAB06003B004
:102D3000BDE8F08F2DE9F0438BB000230793089393
:102D40005C4B09935C4B1B68586A5C4B18605C4B8E
:102D50001B6898424FD9C01AFDF7B0FA5949FDF7E0
:102D6000B9FB594B1860594C574E31682068FDF734
:102D7000F5F92060564D2846FFF794FA2B68554C1C
:102D8000E3656B682366AB686366EB6823652B6954
:102D900063656B69A36504F15C0204F150014E4860
:102DA000FFF700FC33680293636E0193236E009378
:102DB000E36DA26D616D206D00F0F8FC474B0FCB09
:102DC00084E80F00224604F12C014548FFF7E6FD98
:102DD000224604F138014348FFF7E0FD224604F1A2
:102DE00044014148FFF7DAFD224604A907A8FFF78E
:102DF000BBFE00243CE0C01A00F51C501030FDF76B
:102E00005DFA3049FDF766FB2F4B1860ABE7314D9B
:102E100004F1160305EB83030AAA02EB840252F8BD
:102E2000181C5868FDF798F9274B1E683146FDF7C6
:102E30009DFA0746D5F8288041463046FDF78EF9C1
:102E4000064601463846FDF745FB074604F10409EE
:102E500055F829104046FDF789FA3146FDF73AFB4F
:102E600001463846FDF77AF945F829000134E4B205
:102E7000022CCCD9174C224604F11C0104F110009D
:102E8000FFF78CFD194BD3F8A8212267D3F8A421B2
:102E9000E266D3F8A021A266D3F8AC316367144A86
:102EA000136801331360054B1A68054B1A600BB0A9
:102EB000BDE8F083C3F51C41A021002038030020A9
:102EC0007403002000401C466403002078030020A7
:102ED0006C020020BC020020A0020020600500203F
:102EE000307900083C790008487900081004002077
:102EF0006003002000B583B00E4B5A6942F0010216
:102F00005A615B6903F001030193019B00220521D3
:102F10000E20FEF7E1FD0E20FEF716FE0022052131
:102F20000F20FEF7D9FD0F20FEF70EFE03B05DF86F
:102F300004FB00BF0010024010B504464FF07C5166
:102F4000FDF714FA01462346094CA4EB630420461E
:102F5000FDF70CFA01462046FDF708FA01464FF04E
:102F60007F50FDF7F9F801462046FDF7FFF910BD47
:102F7000865A375F2DE9F84F0546D0F8EC301F68C8
:102F8000694A17605E68694A1660D3F80880684A23
:102F9000C2F80080D3F80C90664BC3F80090394615
:102FA0003846FDF7E3F9044631463046FDF7DEF9D1
:102FB00001462046FDF7D2F8044641464046FDF75B
:102FC000D5F901462046FDF7C9F80446494648466A
:102FD000FDF7CCF901462046FDF7C0F8FFF7ACFF3E
:102FE0008246554B186000240AE0D5F8ECB05146F3
:102FF0005BF82400FDF7BAF94BF824000134E4B281
:10300000032CF2D94D4CD4F8BC113046FDF7AEF983
:10301000D5F800A14FF07C51FDF7A8F9CAF81000CF
:10302000D4F8BC114046FDF7A1F9D5F800A14FF046
:103030007C51FDF79BF9CAF8140007F10047D4F85A
:10304000BC113846FDF792F9D5F800A14FF07C513C
:10305000FDF78CF9CAF82800D4F8BC114846FDF7F2
:1030600085F9D5F800A14FF07C51FDF77FF9CAF83A
:103070002C0009F10040D4F8BC11FDF777F9D5F820
:1030800000914FF07C51FDF771F9C9F84000D4F878
:10309000BC113846FDF76AF9D5F800714FF07C5144
:1030A000FDF764F97864D4F8BC114046FDF75EF989
:1030B000D5F800714FF07C51FDF758F9B86506F16D
:1030C0000040D4F8BC11FDF751F9D5F800614FF07C
:1030D0007C51FDF74BF9F065D5F8F860D4F8D011C4
:1030E000306FFDF7F7F93067D5F8F860D4F8D011F4
:1030F000D6F88C00FDF7EEF9C6F88C00D5F8F8404C
:103100000F49206FFDF7EEFA08B10D4B2367D5F894
:10311000F8400B49D4F88C00FDF7E4FA10B1084BE5
:10312000C4F88C30BDE8F88F140600201C0600207F
:10313000240600202C060020300600201004002069
:1031400000401C4638B504469022D0F8F8100848D4
:1031500002F0DAFA48252A46D4F81C11054802F094
:10316000D3FA2A46D4F80C11034802F0CDFA38BD40
:1031700014000020C40300207C0300202DE9F04F40
:1031800083B0044600F1780600F1800B59463046C2
:1031900003F096FF84F8C800B4F87830A4F8A8309B
:1031A000B4F85A30A4F8AA3004F15803019304F19A
:1031B000A8052A461946304604F04CF884F8C800A1
:1031C000B4F8A830A4F8B030B4F88230A4F8B23023
:1031D00004F1B00A52465946284604F03BF884F8F8
:1031E000C800B4F89030A4F8A030B4F89230A4F835
:1031F000A23004F1A006324604F19001504604F0DA
:1032000033FA84F8C8005146304604F0D7F884F801
:10321000C800D4F8EC30D3F80090B34AC2F800905C
:10322000D3F80480B14AC2F800809F68B04A1760A2
:10323000DE68B04B1E60B4F87830A4F8B8300123D3
:10324000A4F8BA3031464046FDF790F80090394670
:103250004846FDF78BF801460098FCF77DFF0146D4
:10326000D4F82C310093FCF779FF009B186041469D
:103270004846FDF77BF8009031463846FDF776F872
:1032800001460098FCF76AFF0146D4F82C31009300
:10329000FCF764FF009B586049464846FDF766F816
:1032A000814641464046FDF761F801464846FCF735
:1032B00053FF804639463846FDF758F801464046E8
:1032C000FCF74AFF074631463046FDF74FF8014606
:1032D000D4F82C613846FCF741FFB06000260FE0BF
:1032E000D4F82C3153F8260020F0004002F046FBC1
:1032F00006F16002804B03EB820358600136F6B2A0
:10330000022EEDD9B4F84830A4F8C0304FF00108CF
:10331000A4F8C28004F1B80604F1C0073A46314669
:1033200004F1480003F024FF84F8C800B4F8C0306A
:10333000A4F8A830A4F8AA802A463946504603F0DB
:1033400089FF84F8C800A4F8B880B4F8C030A4F8A5
:10335000BA303146384603F0B3FE84F8C800DFF8CF
:10336000988108F5E0722946304603F073FF84F82F
:10337000C800D8F8C891D8F8CC814FF07C514046AD
:10338000FCF7F4FF01464846FDF78EF918B15A4B99
:10339000012283F8382141464846FDF7A3F9002869
:1033A00045D0554B93F83831002B40D0524B93F811
:1033B0003931DBB1504AD2F84031D2F844110133EF
:1033C00041F10001C2F84031C2F844114A4BD3F830
:1033D0004021D3F84431332A73F100030CD3002386
:1033E000454A82F8383184F82C304BE0424B0020BB
:1033F0000021C3E95001E9E7227B404D2B8803FB04
:1034000002F2D4F8EC10D4F8E80002F07DF9227B47
:103410002B8802FB03F303FB02F2D4F8FC10D4F870
:10342000F80002F071F9012384F82C30AEE0344941
:103430004046FCF79BFF01464846FDF753F9A0B113
:103440002D4B93F8383183B149464046FCF784FE52
:1034500081462C494046FCF789FF01464846FDF766
:1034600039F8254BC3F89C0104E0234B4FF07E5202
:10347000C3F89C21204B00200021C3E95001002308
:1034800084F82C30B4F85830A4F8A830B4F882305E
:10349000A4F8AA302A465946019803F0DBFE84F8C6
:1034A000C80004F1980842465146284603F0D2FE6F
:1034B00084F8C80000250CE0D4F81C910E4BD3F81A
:1034C0009C1159F82500FCF751FF49F825000135FA
:1034D000EDB2B4F89830B4F89A2002FB03F39D42A1
:1034E000EADB4FF0040913E0100600201806002064
:1034F00020060020280600201004002036060020A8
:10350000CDCCCC3D6666663F09F101095FFA89F9C9
:10351000B9F1050F1AD80025022DF5D8D4F81CB141
:1035200009EB490AAA4409F15C03314A02EB83031F
:1035300030495868FCF7CEFF01465BF82A00FCF7DB
:1035400015FF4BF82A000135EDB2E5E7B4F89830E5
:10355000A4F8B8300123A4F8BA30324639464046C0
:1035600003F078FE84F8C800214B93F83831002B23
:103570003BD1D4F8BC300022DA6004F1300231468D
:1035800004F1380004F070F884F8C80003B0BDE816
:10359000F08F0135EDB2052DEBD8D4F8BC904FEA91
:1035A000850859F825A01449114BD3F8BC01FCF744
:1035B000DDFE074601465046FDF794F808B149F88C
:1035C0002570D4F8BC9059F808A00C49084BD3F8E2
:1035D000BC01FCF7CBFE074601465046FDF764F8F8
:1035E0000028D6D049F80870D3E70425D3E700BFF8
:1035F00010040020DA0FC93F0AD7233C0AD723BCA6
:103600002DE9F0410446D0F8EC6030680146FCF743
:10361000A5FD0746284B186070680146FCF79EFD23
:103620000546264B1860B0680146FCF797FD8046BA
:10363000234B1860F0680146FCF790FD0646214BCD
:103640001860A27B204B1B8802FB03F3227B03FB49
:1036500002F20021D4F80C0102F064F8D4F80C2135
:1036600008F100431360D4F80C215660D4F80C2103
:1036700007F100419160D4F80C21D560D4F80C21F9
:103680009561D4F80C21D761D4F80C211662D4F8D6
:103690000C21C2F82480D4F80C211763D4F80C2133
:1036A00005F100455563D4F80C219363D4F80C312F
:1036B000DE63BDE8F08100BFF4050020F8050020BE
:1036C000FC050020000600203606002070B50546E7
:1036D000049E2E4C01202070C4F8B011C4F8B4210F
:1036E000C4F8B8312A4BC4F8CC31002384F83831FF
:1036F00000220023C4E95023C4E952234FF07E5135
:103700003046FCF7EFFF08B14FF07E561F4CC4F86F
:10371000D061059BC4F89031032300220621201DAF
:1037200000F0F4FB04F5E4730122114604F5E070A7
:1037300003F096FF002307E0144AD2F8EC2055F876
:10374000231042F823100133032BF5DD0F4C114BEE
:10375000C4F8D030104BC4F8D430104BC4F8D83073
:103760000F4BC4F8DC30012384F82E3084F82F305E
:1037700090252A460B49D4F8040101F0C5FF2A46DA
:103780000949D4F8FC0001F0BFFF70BD100400200F
:1037900077CC2B3245310008752F00080136000820
:1037A0007D31000854790008140000202DE9F84FFD
:1037B0000D4693461F46DDF82890DDF82C800C9EC0
:1037C0009A4CC4F8BC61D4F86011FCF7C5FC824681
:1037D000C4F86C01D4F864112846FCF7BDFC05461A
:1037E000C4F87001D4F868115846FCF7B5FC83465C
:1037F000C4F874014FF07C515046FCF7B7FD3146D8
:10380000FCF7B4FD82468A4B18604FF07C51284685
:10381000FCF7ACFD3146FCF7A9FD0546854B186069
:103820004FF07C515846FCF7A1FD3146FCF79EFD58
:103830000646814B186090228049D4F8040101F0BB
:1038400063FFD4F804210AF100435360D4F8042143
:1038500005F100419160D4F8040106F10042C26014
:10386000D4F80401C0F818A0D4F804010662D4F812
:1038700004014162D4F804110D63D4F804114A63C1
:10388000D4F80421C2F83CA0D4F804219664D4F8FA
:103890000421D564D4F804211365D4F84821D4F860
:1038A0004C31134305D1C4F87871C4F87C91C4F845
:1038B00080815E4CD4F890B15946D4F87801FCF779
:1038C00055FD0646D4F8BCA151465846FCF746FCC7
:1038D000054601463046FCF7FDFD06463946504692
:1038E000FCF744FD2946FCF7F5FD01463046FCF7A0
:1038F00035FC0646C4F87801D4F87C115846FCF72C
:1039000035FD2946FCF7E6FD074649465046FCF7DB
:103910002DFD2946FCF7DEFD01463846FCF71EFC6E
:103920000746C4F87C01D4F880115846FCF71EFD08
:103930002946FCF7CFFD814641465046FCF716FD6F
:103940002946FCF7C7FD01464846FCF707FC05463B
:10395000C4F8800131463046FCF708FD044639467C
:103960003846FCF703FD01462046FCF7F7FB04460A
:1039700029462846FCF7FAFC01462046FCF7EEFBF8
:10398000FFF7DAFA05462E4B186000240CE0274BAF
:1039900004F15E029E6853F822102846FCF7E6FC0C
:1039A00046F824000134E4B2022CF0D91F4CD4F8BC
:1039B0006C010146FCF7DAFC0646D4F870010146BA
:1039C000FCF7D4FC01463046FCF7C8FB0646D4F8A9
:1039D00074010146FCF7CAFC01463046FCF7BEFB09
:1039E000FFF7AAFA01464FF07E50FCF773FD06463A
:1039F000C4F8940129464FF07E50FCF76BFD054654
:103A0000C4F898010F493046FCF74EFE00B30E494A
:103A10002846FCF767FED8B10C492846FCF744FE5F
:103A2000B0B1012284F8392116E000BF1004002053
:103A300004060020080600200C0600205479000827
:103A4000F00500209A99993ECDCC1441CDCC24416B
:103A50008E4B002283F839218C4CD4F81851D4F8BD
:103A6000BC11D4F8B001FCF781FC2860D4F81851DF
:103A7000D4F8BC11D4F8B001FCF778FCE861D4F8B4
:103A80001851D4F8BC11D4F8B001FCF76FFCA8634E
:103A9000D4F81851D4F8BC11D4F8B001FCF766FC86
:103AA0006865D4F81851D4F8BC11D4F8B401FCF707
:103AB0005DFC2867D4F81851D4F8BC11D4F8B401CF
:103AC000FCF754FCC5F88C00D4F81C21D4F8B831AC
:103AD0001360D4F81C211361D4F81C31D4F8B82138
:103AE0001A62201D00F098FD63681F68C4F85071C9
:103AF0005E68C4F85461D3F80880C4F85881D96866
:103B0000C4F85C111A69C4F860215B69C4F86431B7
:103B10000023C4F868313846FCF728FC05464146C6
:103B20003046FCF723FC01462846FCF717FB054608
:103B300039463846FCF71AFC074631463046FCF752
:103B400015FC01463846FCF709FB0146FCF706FB6D
:103B50004FF07E51FCF700FB064629462846FCF74D
:103B6000FDFA314601F04AFF4949FCF7FFFBC4F872
:103B7000A801D4F85061D4F854113046FCF7F6FB94
:103B80000546D4F85C713946D4F85801FCF7EEFBD1
:103B900001462846FCF7E2FA054631463046FCF776
:103BA000E5FB064639463846FCF7E0FB0146304661
:103BB000FCF7D4FA0146FCF7D1FA4FF07E51FCF73E
:103BC000CBFA064629462846FCF7C8FA314601F0EA
:103BD00015FF2F49FCF7CAFBC4F8A401D4F85C1107
:103BE000D4F85401FCF7C2FB0546D4F85811D4F8B8
:103BF0005001FCF7BBFB01462846FCF7ADFA4FF03D
:103C00004041FCF7B3FB01F0D9FE2149FCF7AEFBC4
:103C1000C4F8A001D4F8A851D4F8D8112846FCF76C
:103C20009BFA04461B49FCF75DFD10B3174AB2F935
:103C3000D431013BA2F8D431144CB4F9D401FCF7CF
:103C400041FB1549FCF792FB01462846FCF786FA32
:103C5000C4F8AC01C4F8D851D4F84831D4F84C2198
:103C6000013342F10002C4F84831C4F84C21BDE8E8
:103C7000F88F0A492046FCF717FD0028DCD0034ADC
:103C8000B2F9D4310133A2F8D431D5E710040020C1
:103C9000E12E6542000034430000B443000034C309
:103CA000F8B507460021FCF709FD00282ED14FF09A
:103CB0007C513846FCF75AFB044615493846FCF758
:103CC00055FB064621462046FCF750FB3946FCF7DB
:103CD00043FA054621462046FCF740FA01462846AD
:103CE000FCF7F8FB01462046FCF736FA0446294665
:103CF0003046FCF7D9FC0028E4D106F10040294603
:103D0000FCF7F0FC0028DDD12046F8BD0024FBE7DD
:103D10006F12833A2DE9F0410446D0F80080414605
:103D20004046FCF723FB0546676839463846FCF7F2
:103D30001DFB01462846FCF711FA0546A6683146E8
:103D40003046FCF713FB01462846FCF707FAFFF75D
:103D5000A7FF054601464046FCF7BCFB206029460C
:103D60003846FCF7B7FB606029463046FCF7B2FBEB
:103D7000A0602046BDE8F081F8B504460D46164621
:103D800089684068FCF7F2FA07466968A068FCF7A2
:103D9000EDFA01463846FCF7DFF930602968A06883
:103DA000FCF7E4FA0746A9682068FCF7DFFA014649
:103DB0003846FCF7D1F9706069682068FCF7D6FADC
:103DC000074629686068FCF7D1FA01463846FCF7D7
:103DD000C3F9B060F8BD70B504460D4609680068C7
:103DE000FCF7C4FA064669686068FCF7BFFA01464A
:103DF0003046FCF7B3F90646A968A068FCF7B6FAA6
:103E000001463046FCF7AAF970BD0000F8B504463B
:103E100000250574827B3C4E338803FB02F2416827
:103E2000D0F8F40001F070FCA27B338803FB02F2AF
:103E30002946606801F076FCA27B338802FB03F31D
:103E400003FB02F22946D4F8180101F06BFC227B37
:103E5000338802FB03F3A27B03FB02F22946D4F86A
:103E60000C0101F05FFC01E00135EDB2A37BAB4238
:103E700023D9D4F8F46056F8257000213846FCF7B1
:103E800009FC0028F0D1237C46F82370626A237C69
:103E9000D554A169D4F80C21207B267C63695B5D35
:103EA00006FB003303F18043013B51F8251042F833
:103EB0002310237C01332374D6E700230CE0E06950
:103EC000616ACD5CD4F8181102FB033250F825006A
:103ED00041F822000133DBB2227C9A42EFD892B241
:103EE000A4F87820237BA4F87A30A4F88030A4F8D2
:103EF0008220A4F89020A4F89220A4F89830A4F886
:103F00009A20A4F84820F8BD360600202DE9F04795
:103F100004460D4691461E46DFF8B0830423A8F8F8
:103F20000030EB4B08221A80017380F80D908673E5
:103F300000270774304601F0DFFB606132463946E6
:103F400001F0F0FBB8F800A006FB0AFA504601F0B9
:103F5000D3FBA0615246394601F0E4FBB8F800A05B
:103F600006FB0AFA504601F0C7FBE06152463946AB
:103F700001F0D8FBB8F800A005FB0AFA504601F0A2
:103F8000BBFB20625246394601F0CCFB304601F0C3
:103F9000B3FB60623246394601F0C4FBB8F800005A
:103FA00005FB00F001F0A8FB2060B8F8002005FB3D
:103FB00002F2394601F0B6FBB8F800A006FB0AFA97
:103FC000504601F099FB60605246394601F0AAFB69
:103FD000B8F800A009FB0AFA504601F08DFBA0607A
:103FE0005246394601F09EFBB8F800A005FB0AFADC
:103FF000504601F081FBC4F8E8005246394601F012
:1040000091FBD4F8E8300122217B04F1300003F069
:1040100027FBB8F8008005FB08F8404601F06CFB70
:10402000C4F8EC004246394601F07CFBD4F8EC3091
:104030000122217B04F1380003F012FBB9F1000FDB
:1040400040F04C81DFF88482B8F8007006FB07F777
:10405000384601F051FBC4F8F4003A46002101F063
:1040600061FBD4F8F4300122A17B04F1480003F095
:10407000F7FAB8F8007005FB07F705FB07F73846B5
:1040800001F03AFBC4F8F8003A46002101F04AFB7F
:10409000217BD4F8F8300A4604F1500003F0E0FA2E
:1040A000B8F8007005FB07F705FB07F7384601F085
:1040B00023FBC4F8FC003A46002101F033FB217BCE
:1040C000D4F8FC300A4604F1580003F0C9FAB8F8F5
:1040D000007005FB07F705FB07F7384601F00CFBFE
:1040E0008246C4F80001384601F006FBC4F804011A
:1040F0003A460021504601F015FBB8F8002005FBB8
:1041000002F205FB02F20021D4F8040101F00AFBDF
:10411000217BD4F800310A4604F1600003F0A0FAD4
:10412000217BD4F804310A4604F1680003F098FAC0
:10413000B9F1000F40F0E880644FB7F800A00AFB27
:1041400006F909FB05F9484601F0D6FA8046C4F89D
:104150000C010AFB05F006FB00F001F0CDFAC4F8F3
:1041600010014A460021404601F0DCFA3A8805FB7E
:1041700002F206FB02F20021D4F8100101F0D2FA9B
:10418000D4F80C31227BA17B04F1780003F068FAAB
:10419000D4F81031A27B217B04F1800003F060FA97
:1041A000B7F8008005FB08F808FB05F8404601F069
:1041B000A3FAC4F814014246002101F0B3FA217BAE
:1041C000D4F814310A4604F1880003F049FAB7F82C
:1041D000008006FB08F808FB06F8404601F08CFA60
:1041E000C4F818014246002101F09CFAA17BD4F8E2
:1041F00018310A4604F1900003F032FA398801FBC5
:1042000005F505FB06F6304601F076FAC4F81C0108
:104210003246002101F086FAD4F81C31A27B217BC2
:1042200004F1980003F01CFA267B3F8806FB07F791
:1042300007FB06F5284601F05FFA8046C4F8200126
:10424000284601F059FAC4F82401284601F054FA2E
:10425000C4F82801384601F04FFAC4F82C0138465A
:1042600001F04AFAC4F83001B1B243460A4604F1FB
:10427000A00003F0F5F9217BD4F824310A4604F1BB
:10428000A80003F0EDF9217BD4F828310A4604F1A7
:10429000B00003F0E5F9D4F82C310122217B04F1C0
:1042A000B80003F0DDF9D4F830310122217B04F1AC
:1042B000C00003F0D5F9002384F8283084F82930B1
:1042C00084F82A3084F82B3004E000BF3606002042
:1042D0003406002084F82C30BDE8F087164B1F8888
:1042E00009FB07F7384601F007FAC4F8F0003A4630
:1042F000002101F017FAD4F8F0300122617B04F1BB
:10430000400003F0ADF99DE6B8F8002005FB02F28D
:1043100002FB09F9484601F0EFF9C4F808014A46E2
:10432000002101F0FFF9D4F80831627B217B04F110
:10433000700003F095F9FFE63606002038B5044614
:10434000C37B63B1FFF762FD627B0E4B1B8803FBEF
:1043500002F2A168D4F8F00001F0D6F938BD827BF2
:10436000084D2B8803FB02F24168D0F8F40001F0FD
:10437000CBF9A27B2B8803FB02F20021606801F0DD
:10438000D1F9E1E73606002090F82830B3BB70B5CC
:104390000446437B43B3037BA0F8B8300126A0F862
:1043A000BA6000F1B8052A4600F13001603002F031
:1043B00051FF84F8C800237BA4F8C030A4F8C26081
:1043C00004F1C006324604F1400104F1700002F02D
:1043D00041FF84F8C80004F138023146284603F052
:1043E00043F984F8C80070BD00F1380200F13001D3
:1043F000603002F02FFF84F8C800F4E77047F8B58A
:1044000090F8293003B1F8BD044600F1600600F1D0
:1044100068073946304602F053FE84F8C80004F1BC
:1044200058052A4604F15001304602F013FF84F883
:10443000C800B4F85830A4F8A830B4F86A30A4F82A
:10444000AA3004F1A80632463946284602F002FF97
:1044500084F8C8002A4604F18801304603F004F9C4
:1044600084F8C800CFE72DE9F84390F82A300BB163
:10447000BDE8F883044600F1780600F1800739466C
:10448000304602F01DFE84F8C800B4F87830A4F875
:10449000A830B4F85A30A4F8AA3004F1580804F14E
:1044A000A8052A464146304602F0D4FE84F8C800EA
:1044B000B4F8A830A4F8B030B4F88230A4F8B23020
:1044C00004F1B00632463946284602F0C3FE84F8AD
:1044D000C800B4F89030A4F8A030B4F89230A4F832
:1044E000A23004F1A0094A4604F19001304603F0DD
:1044F000BBF884F8C8003146484602F05FFF84F8F4
:10450000C800B4F85830A4F8A830B4F88230A4F841
:10451000AA302A463946404602F09CFE84F8C8007C
:1045200004F198023146284602F094FE84F8C8004F
:104530009EE790F82B3003B170472DE9F041044617
:10454000B0F87830A0F8B8300126A0F8BA6000F1D1
:10455000380700F1B8052A463946783002F07AFE6D
:1045600084F8C800B4F84830A4F8C030A4F8C26099
:1045700004F1C0084246294604F1480002F0F8FD63
:1045800084F8C800B4F89830A4F8B830A4F8BA6039
:104590002A46414604F1980002F05CFE84F8C80007
:1045A00004F130022946384603F05EF884F8C8006A
:1045B000BDE8F081F8B590F82C3003B1F8BD0446A1
:1045C000B0F89830A0F8A830B0F87A20A0F8AA2067
:1045D000A0F8B030B0F85A30A0F8B23000F1A80717
:1045E0003A4600F17801983002F034FE84F8C800B1
:1045F00004F1580504F1B00632462946384602F067
:1046000029FE84F8C80004F150023146284602F021
:10461000AFFD84F8C800D1E72DE9F0410546FFF76A
:104620008DFED5F8CC300BB1284698472846FFF7C9
:10463000ABFED5F8D0300BB1284698472846FFF797
:10464000DEFED5F8D4300BB1284698472B7C0BB949
:10465000EB7BCBB92846FFF706FFD5F8D8300BB176
:10466000284698472846FFF764FFD5F8DC300BB1A1
:10467000284698472846FFF79DFFD5F8E0300BB154
:1046800028469847002419E02A7B1F4C238803FB07
:1046900002F2D5F8EC10D5F8E80001F035F82A7BE5
:1046A000238802FB03F303FB02F2D5F8FC10D5F8D4
:1046B000F80001F029F8E0E70134E4B22E7BA642CD
:1046C00010D9D5F8F87006FB04462B6A53F82480FD
:1046D000414657F82600FBF7E7FF0028ECD047F8E3
:1046E0002680E9E7084A128806FB02F2D5F8E810AE
:1046F000286801F009F8D5F8E4300BB1284698474E
:104700002868BDE8F08100BF3606002008B56420A7
:1047100000F01AFFFBE70000034B0360034B0B6044
:1047200080231360704700BF3C0800203C06002037
:1047300010B588B00DF1040C074C0FCCACE80F009D
:1047400094E807008CE80700002101A800F0C7FEEC
:10475000024B186008B010BDA4780008380600208D
:1047600030B589B00446214BDA6942F00402DA61BF
:10477000DB6903F004030193019B02A903A8FCF782
:104780007BFF069BCBB9FCF767FF03461848A0FBED
:1047900003239B0C013B1748174A026040F2E732A3
:1047A000C26043600023036183608361FDF732FBD5
:1047B000054630B1284609B030BDFCF74DFF430037
:1047C000E4E70C48FDF7FCF905460028F2D11E206D
:1047D000FDF7BAF90F2C01D90125EBE7002221469C
:1047E0001E20FDF779F9054B1C60E3E7001002403D
:1047F00083DE1B43900800200008004004000020D6
:1048000000F1080343604FF0FF328260C360036130
:1048100000230360704700230361704743684B60C7
:104820009A688A6051609960086103680133036087
:10483000704730B40D68B5F1FF3F11D000F10803A7
:104840001C465B681A68AA42FAD963684B60996093
:104850008C606160086103680133036030BC70479D
:104860000469F2E70369416882688A6041685160BF
:104870005A68824206D0002202611A68013A1A6020
:104880001868704782685A60F5E70000084B1B689B
:104890001B6823B9074B4FF0FF321A607047044B77
:1048A0001B68DB68DB685A68024B1A60704700BF00
:1048B000DC080020B00900202DE9F04707469846A3
:1048C000089DDDF824900A9C266B02F18042013A93
:1048D00006EB820626F0070600293AD08E464FF0F6
:1048E000000CBCF10F0F0BD81EF80C2004EB0C03CE
:1048F00083F834201EF80C3013B10CF1010CF0E7F2
:10490000002384F84330062D00D90625E56265644E
:104910004FF0000AC4F848A0201DFFF77CFF04F107
:104920001800FFF778FF2461C5F10705A5616462EF
:10493000C4F84CA084F850A042463946304600F0F6
:10494000B3FC2060B9F1000F01D0C9F80040BDE808
:10495000F087002384F83430D5E7000038B5002410
:1049600007E004EB840293000E481844FFF748FF69
:104970000134062CF5D90C4D2846FFF741FF0B4CAE
:104980002046FFF73DFF0A48FFF73AFF0948FFF7C7
:1049900037FF0948FFF734FF084B1D60084B1C60C8
:1049A00038BD00BFE40800208409002098090020D9
:1049B000BC090020E8090020D4090020DC08002000
:1049C000E008002010B5044600F094FC214A13686A
:1049D00001331360204B1B685BB1204B1B686BB924
:1049E0001D4B1B68DA6AE36A9A4207D81A4B1C60AF
:1049F00004E0194B1C601368012B28D0184A136877
:104A000001331360E06A01238340164A11680B43A7
:104A1000136000EB8000211D134B03EB8000FFF7B8
:104A2000FDFE00F089FC0D4B1B687BB10A4B1B6837
:104A3000DA6AE36A9A4209D24FF0E0234FF08052DB
:104A4000C3F8042DBFF34F8FBFF36F8F10BDFFF777
:104A500085FFD3E770090020D8080020D009002086
:104A60007C09002080090020E408002010B50446DD
:104A700090F8513063B1012B11D0022B0ED04FF0C2
:104A8000500383F31188BFF36F8FBFF34F8FFEE79F
:104A9000006B00F09BFB204600F098FB10BD00F07F
:104AA00095FBFBE70F4B1B68D3B110B500F022FC60
:104AB0000D4BDB68DC68201DFFF7D4FE0B4A136842
:104AC000013B1360074A1368013B136000F034FC9C
:104AD0002046FFF7CBFF034B1B68002BE6D110BD30
:104AE000704700BF74090020E80900207009002009
:104AF00008B5FFF7D7FF074B1B68012BF9D94FF01B
:104B0000E0234FF08052C3F8042DBFF34F8FBFF363
:104B10006F8FEEE7E408002070B504460D461D4B8C
:104B20001E681D4B18680430FFF79CFE50B91A4BE5
:104B30001B68DA6A012303FA02F218490B6823EAB8
:104B400002030B60B4F1FF3F0DD03444124B1B68DD
:104B50005C60A64210D9124B18680F4B19680431DB
:104B6000FFF767FE70BD002DEFD00B4B19680431C5
:104B70000C48FFF753FEF5E70B4B1868064B196816
:104B80000431FFF756FE094B1B68A342EAD9074BD5
:104B90001C60E7E7FC090020D808002080090020FD
:104BA000E0080020D4090020DC080020B009002023
:104BB00030B587B00B9C7CB10C9DB5B154250495E4
:104BC000049D542D1AD04FF0500383F31188BFF386
:104BD0006F8FBFF34F8FFEE74FF0500383F31188C1
:104BE000BFF36F8FBFF34F8FFEE74FF0500383F398
:104BF0001188BFF36F8FBFF34F8FFEE7049D0C9DAD
:104C00002C63022485F8514000240394029505ACDE
:104C100001940A9C0094FFF74FFE0C98FFF7D2FE18
:104C2000059807B030BD2DE9F04385B007468846AA
:104C300014461E46900000F04BFA00B38146542003
:104C400000F046FA0546B0B1C0F83090E5B1002357
:104C500085F85130039302950D9B01930C9B0093B3
:104C60003346224641463846FFF726FE2846FFF7E0
:104C7000A9FE012005E0484600F0A8FAE6E74FF05B
:104C8000FF3005B0BDE8F0834FF0FF30F9E70000DA
:104C900010B588B000240594069407AA06A905A8B3
:104CA000FFF73AFD059B0293069B01930094234670
:104CB000079A0E490E48FFF77BFF0E4B186090B124
:104CC0004FF0500383F31188BFF36F8FBFF34F8F03
:104CD000094B4FF0FF321A60084B01221A60084B53
:104CE0001C6000F091FB08B010BD00BFF079000817
:104CF000F14A0008AC090020B0090020D0090020CA
:104D0000FC090020024A136801331360704700BF9A
:104D100078090020F8B53A4B1B68002B69D1394B54
:104D20001D6801351D60C5B9374B1B681B6843B151
:104D30004FF0500383F31188BFF36F8FBFF34F8F92
:104D4000FEE7314A1168314B186810601960304A2B
:104D5000136801331360FFF799FD2E4B1B68AB42BC
:104D60003DD900272C4B1B68DB6A03EB83039A00B9
:104D70002A4B9B58012B00D90127294B1B68002B7C
:104D80003CD001273AE001271F4B1B681B6843B347
:104D90001D4B1B68DB68DC6863689D4226D3261DBB
:104DA0003046FFF75FFDA36A1BB104F11800FFF75F
:104DB00059FDE36A01229A401A49086802430A60D1
:104DC00003EB83039A00314614481044FFF726FD95
:104DD000E26A114B1B68DB6A9A42D4D2D4E70027FF
:104DE000D2E70C4B4FF0FF321A60BBE7094A136061
:104DF000B8E70D4A13680133136000273846F8BD41
:104E000078090020FC090020DC080020E0080020D0
:104E1000B4090020B0090020D8080020E4080020D0
:104E2000000A002080090020B809002038B5354B61
:104E30001B6843B94FF0500383F31188BFF36F8FA2
:104E4000BFF34F8FFEE700F055FA2E4B1A68013A78
:104E50001A601B68002B4FD12B4B1B680BB9002429
:104E60004BE00024294B1B681BB3284BDB68DC6834
:104E700004F11800FFF7F6FC251D2846FFF7F2FCA9
:104E8000E06A01238340224A11680B43136000EB60
:104E9000800029461F4B03EB8000FFF7BFFCE26A4E
:104EA0001D4B1B68DB6A9A42DCD31C4B01221A6043
:104EB000D8E70CB1FFF7EAFC194B1C6884B9174B13
:104EC0001C68D4B14FF0E0234FF08052C3F8042D9A
:104ED000BFF34F8FBFF36F8F01240EE0013C07D06B
:104EE000FFF718FF0028F9D00C4B01221A60F5E7F4
:104EF0000B4B00221A60E2E7002400F01DFA204666
:104F000038BD00BF7809002070090020BC090020CE
:104F100080090020E4080020D8080020000A0020B2
:104F2000B809002010B5A8B10446104B1B6843B166
:104F30004FF0500383F31188BFF36F8FBFF34F8F90
:104F4000FEE7FFF7DFFE00212046FFF7E5FDFFF754
:104F50006DFF48B94FF0E0234FF08052C3F8042DA5
:104F6000BFF34F8FBFF36F8F10BD00BF78090020D4
:104F7000204B1B681BB1204B01221A6070471E4B4F
:104F800000221A601D4B1B68B3FA83F3DBB2C3F136
:104F90001F0303EB83018A0019498A5842B94FF075
:104FA000500383F31188BFF36F8FBFF34F8FFEE77A
:104FB000134903EB830082000A4450684068506044
:104FC00003EB830C4FEA8C0208321144884209D06B
:104FD00003EB83039A000A4B13445B68DA68094BBE
:104FE0001A607047406862469100054A0A44506062
:104FF000EEE700BF78090020000A002080090020A9
:10500000E4080020D8080020134A12F0070F1FD030
:10501000D11D21F00701C1F5BB53103313440A46DB
:105020000E480260002141601344083B23F007034F
:105030000B48036059601960991A51601360094B5D
:105040001960094B1960094B4FF000421A60704714
:1050500041F27073E4E700BF080A00208C210020B1
:10506000040A0020802100207C21002078210020DB
:10507000154B1A461B688342FBD3516802EB010CA7
:10508000844509D0416800EB010C634509D00360F9
:10509000904218D01060704740680144516010463B
:1050A000F0E710B4094C2468A3420AD05B681944A5
:1050B000416013681B680360904200D0106010BC10
:1050C00070470460F8E770478C210020040A002034
:1050D00070B50546FFF716FE364B1B68A3B1364B7D
:1050E0001B681D424ED135B1083515F0070F02D0AF
:1050F00025F007050835002D46D0304B1B68AB4224
:1051000051D32F4A146804E0FFF77EFFE7E72246F9
:105110001C466368AB4202D22368002BF7D1254BB3
:105120001B68A34241D01668083623681360636881
:105130005B1B102B10D9601910F0070F08D04FF02F
:10514000500383F31188BFF36F8FBFF34F8FFEE7D8
:1051500043606560FFF78CFF626818490B689B1A13
:105160000B60184909688B4201D216490B60124B3B
:105170001B681343636000232360134A13680133E1
:10518000136002E0002600E00026FFF74FFE16F055
:10519000070F0CD04FF0500383F31188BFF36F8FCC
:1051A000BFF34F8FFEE70026EFE70026EDE730461E
:1051B00070BD00BF040A0020782100207C2100205F
:1051C0008C2100208021002084210020002834D060
:1051D00038B50446A0F1080550F8043C174A126897
:1051E000134208D14FF0500383F31188BFF36F8F40
:1051F000BFF34F8FFEE750F8081C41B14FF050034A
:1052000083F31188BFF36F8FBFF34F8FFEE723EA5D
:10521000020340F8043CFFF775FD54F8041C084AEB
:1052200013680B4413602846FFF722FF054A1368F2
:1052300001331360FFF7FAFD38BD70477821002075
:105240007C2100208821002082B0002301930D4B97
:105250001B68B3F1FF3F08D04FF0500383F3118870
:10526000BFF36F8FBFF34F8FFEE74FF0500383F311
:105270001188BFF36F8FBFF34F8F019B002BFCD0C2
:1052800002B07047A400002006480068006880F360
:10529000088862B661B6BFF34F8FBFF36F8F00DF30
:1052A00000BF000008ED00E04FF0807340F8043CC0
:1052B00021F0010140F8081C034B40F80C3C40F879
:1052C000202C4038704700BF495200080000000001
:1052D000074B19680868B0E8F00F80F30988BFF33E
:1052E0006F8F4FF0000080F311884EF00D0E704765
:1052F000D80800204FF0500383F31188BFF36F8F5D
:10530000BFF34F8F0B4A136801331360012B00D09A
:1053100070474FF0E023D3F8043D13F0FF0FF7D0B0
:105320004FF0500383F31188BFF36F8FBFF34F8F9C
:10533000FEE700BFA4000020094B1B6843B94FF0F3
:10534000500383F31188BFF36F8FBFF34F8FFEE7D6
:10535000013B034A13600BB983F31188704700BF08
:10536000A400002000000000000000000000000079
:10537000EFF30980BFF36F8F0D4B1A6820E9F00F30
:1053800010602DE908404FF0500080F31188FFF7BE
:10539000EFFD4FF0000080F31188BDE80840196868
:1053A0000868B0E8F00F80F30988BFF36F8F70478B
:1053B000D808002008B54FF0500383F31188BFF3DD
:1053C0006F8FBFF34F8FFFF7A5FC28B14FF0E0239D
:1053D0004FF08052C3F8042D002383F3118808BDD9
:1053E0004FF0E022002313619361054B1B680549D0
:1053F000A1FB03139B09013B536107231361704712
:1054000008000020D34D621010B582B02A4B1A78E4
:10541000D2B20192FF221A701B78DBB28DF80330F2
:105420009DF8033003F05003244A1370244B0722E5
:105430001A6009E0224A1368013B13609DF80330AB
:105440005B00DBB28DF803309DF8033013F0800F62
:10545000F0D11B4B1B68032B08D04FF0500383F394
:105460001188BFF36F8FBFF34F8FFEE71B02144A03
:10547000136003F4E0631360019BDBB20E4A137008
:105480004FF0E023D3F8202D42F47002C3F8202D12
:10549000D3F8202D42F07042C3F8202DFFF7A0FF73
:1054A0000024084B1C60FFF7EFFEFFF761FDFFF7DC
:1054B000CBFE204602B010BD00E400E094210020A5
:1054C00098210020A4000020842801D003307047D8
:1054D0000020704708B5FFF7DBFB002008BD2DE971
:1054E000F04387B004460F464569BDB18669AEB149
:1054F000D0F80480D0F80090B0F90800FFF7E4FF7E
:105500000296019500903B46226949464046FFF7C6
:105510004FFB0590059807B0BDE8F08365682668E5
:10552000D4F81080B4F90800FFF7CEFF05AB019363
:1055300000903B461FFA88F231462846FFF773FB7E
:105540000128E7D00020E6E708B500B90120FFF701
:10555000E9FC002008BD08B5FDF7D8F9FDF7EAFB26
:105560000120FFF7F1FFF9E710B588B00DF1040C49
:10557000074C0FCCACE80F0094E807008CE807005C
:10558000002101A8FFF7ABFF024B186008B010BD67
:10559000C07800089C21002008B572B6FFF7E4FF30
:1055A00062B608BD00B587B000230293039304934D
:1055B00005930093019318484FF08042026041F632
:1055C0001F424260836042F20F72C2600361802317
:1055D0008361FCF71FFCA8B94FF48053029302A922
:1055E0000D48FCF74FFC80B90023009301936946F6
:1055F0000948FCF7C7FC58B90748FCF7E1FA07B0BF
:105600005DF804FBFBF7E0F8E6E7FBF7DDF8EBE716
:10561000FBF7DAF8F0E700BFA02100200368B3F140
:10562000804F00D0704700B583B003F50433DA69CA
:1056300042F00102DA61DB6903F001030193019B8F
:10564000002205211C20FCF747FA1C20FCF77CFAFD
:1056500003B05DF804FB0000FCF7CCFC0B480C49E0
:105660000C4A002302E0D458C4500433C4188C42BE
:10567000F9D3094A094C002301E013600432A24225
:10568000FBD300F015F8FBF7D3F8704700000020BB
:105690000C0100201486000810010020F8210020D1
:1056A000FEE70000014B1868704700BFA80000200B
:1056B00070B500260C4D0D4C641BA410A64209D1F8
:1056C00002F0E0F800260A4D0A4C641BA410A64222
:1056D00005D170BD55F8043B98470136EEE755F803
:1056E000043B98470136F2E70C8600080C86000858
:1056F0000C86000810860008024B0146186800F06E
:1057000039B800BFA80000200A44914200F1FF33DD
:1057100000D1704710B511F8014B914203F8014FC9
:10572000F9D110BD03460244934200D1704703F8FB
:10573000011BF9E770B50E4E0C463168054611B9EC
:1057400000F08CF830602146284600F087F8431CB2
:105750000AD0C41C24F00304A04207D0211A284612
:1057600000F07CF8013001D14FF0FF34204670BDCD
:10577000EC2100202DE9F041CD1C25F00305083572
:105780000C2D38BF0C25002D074601DBA94205D999
:105790000C2300263B603046BDE8F0812E4E00F021
:1057A0006DF833681C4634BB29463846FFF7C2FF04
:1057B000431C04464DD134682646002E40D1236850
:1057C0003146384604EB030800F048F880453AD1EA
:1057D000216803356D1A25F0030508350C2D38BFF7
:1057E0000C2538462946FFF7A5FF01302BD023684A
:1057F0002B4423600EE02268521B1ED40B2A16D9BC
:105800006119A342256018BF5960636808BF316001
:1058100062514B60384604F10B0600F035F826F073
:105820000706231DF21AB6D09B1BA350B3E762688C
:10583000A3420CBF32605A60ECE723466468B2E7CB
:1058400034467668B9E70C2338463B6000F01CF814
:10585000A1E72560DEE700BFE821002038B500237E
:10586000054D044608462B60FCF7C6FB431C02D1DD
:105870002B6803B1236038BDF0210020014800F0FF
:1058800009B800BFF4210020014800F004B800BFAF
:10589000F4210020704770471A4A20F000439342D9
:1058A0001ADD00B5B3F1FF4F83B005DB0146FAF70F
:1058B00053FC03B05DF804FB694600F0DBFB00F02D
:1058C0000302012A0BD0022A15D07AB101220199D4
:1058D000009801F0D1F9ECE7002100F095BD0199A5
:1058E000009801F0C9F900F10040E2E70199009841
:1058F00000F08AFDDDE70199009800F085FD00F1D8
:105900000040D6E7D80F493F1B4A20F0004393429E
:105910001BDD00B5B3F1FF4F83B005DB0146FAF79D
:105920001BFC03B05DF804FB694600F0A3FB00F02C
:10593000030001280DD0022816D078B101990098F3
:1059400000F062FD00F10040EBE70022002101F0D1
:1059500093B90199009800F057FDE2E701220199FF
:10596000009801F089F9DCE701220199009801F023
:1059700083F900F10040D4E7D80F493F38B5044619
:1059800000F03EF8214605462046FAF7B5FE38B944
:10599000204601F0EFFA4FF07E51FAF7A3FE08B966
:1059A000284638BDFFF77EFE2122034602481A60D2
:1059B000BDE8384001F022BBF479000838B5044650
:1059C00000F082F9214605462046FAF795FE38B9DF
:1059D000204601F0CFFA4FF07E51FAF783FE08B966
:1059E000284638BDFFF75EFE2122034602481A60B2
:1059F000BDE8384001F002BBF479000800F0B2BA0B
:105A0000F8B520F00043B3F17E5F11D0044608DC06
:105A1000B3F17C5F11DAB3F10C5F00F383809B4834
:105A2000F8BD0146FAF798FB0146FAF753FDF8BDB9
:105A3000002840F329810020F8BD0028C0F2C6806C
:105A400001464FF07E50FAF787FB4FF07C51FAF792
:105A50008DFC044600F080FC8D4906462046FAF78E
:105A600085FC8C49FAF77AFB2146FAF77FFC8A49D4
:105A7000FAF772FB2146FAF779FC8849FAF76EFBD0
:105A80002146FAF773FC8649FAF766FB2146FAF7D6
:105A90006DFC8449FAF762FB2146FAF767FC8249FC
:105AA00007462046FAF762FC8049FAF755FB214683
:105AB000FAF75CFC7E49FAF751FB2146FAF756FCEF
:105AC0007C49FAF749FB2146FAF750FC4FF07E512A
:105AD000FAF744FB01463846FAF7FCFC3146FAF780
