:020000040800F2
:1000000000500020BD930008E5140008E714000824
:10001000E9140008EB140008ED14000800000000CB
:10002000000000000000000000000000113D00087A
:10003000EF14000800000000B13D0008F53D000885
:10004000059400080594000805940008059400082C
:10005000059400080594000805940008059400081C
:1000600005940008F11400080594000805940008A0
:100070000594000805940008FD1400080D150008FB
:1000800005940008059400080594000805940008EC
:1000900005940008059400080594000805940008DC
:1000A00005940008059400080594000805940008CC
:1000B0001D1500082D1500083D15000805940008C1
:1000C00005940008059400080594000805940008AC
:1000D000059400080594000805940008059400089C
:1000E0004D15000805940008059400080000000064
:1000F0000000000000000000000000000000000000
:0C01000000000000000000005FF808F1A3
:1001100010B5054C237833B9044B13B10448AFF341
:1001200000800123237010BD80010020000000002A
:100130008496000808B5034B1BB103490348AFF38D
:10014000008008BD000000008401002084960008A3
:1001500081F0004102E000BF83F0004330B54FEA78
:1001600041044FEA430594EA050F08BF90EA020FE5
:100170001FBF54EA000C55EA020C7FEA645C7FEA78
:10018000655C00F0E2804FEA5454D4EB5555B8BF9B
:100190006D420CDD2C4480EA020281EA030382EA0C
:1001A000000083EA010180EA020281EA0303362D9E
:1001B00088BF30BD11F0004F4FEA01314FF4801C71
:1001C0004CEA113102D0404261EB410113F0004F83
:1001D0004FEA03334CEA133302D0524263EB43033A
:1001E00094EA050F00F0A780A4F10104D5F1200ED8
:1001F0000DDB02FA0EFC22FA05F2801841F1000133
:1002000003FA0EF2801843FA05F359410EE0A5F106
:1002100020050EF1200E012A03FA0EFC28BF4CF037
:10022000020C43FA05F3C01851EBE37101F00045ED
:1002300007D54FF0000EDCF1000C7EEB00006EEBFA
:100240000101B1F5801F1BD3B1F5001F0CD3490884
:100250005FEA30004FEA3C0C04F101044FEA4452DB
:1002600012F5800F80F09A80BCF1004F08BF5FEA62
:10027000500C50F1000041EB045141EA050130BD42
:100280005FEA4C0C404141EB0101013C28BFB1F554
:10029000801FE9D291F0000F04BF01460020B1FA9F
:1002A00081F308BF2033A3F10B03B3F120020CDA72
:1002B0000C3208DD02F1140CC2F10C0201FA0CF050
:1002C00021FA02F10CE002F11402D8BFC2F1200CB5
:1002D00001FA02F120FA0CFCDCBF41EA0C0190406B
:1002E000E41AA2BF01EB0451294330BD6FEA0404B4
:1002F0001F3C1CDA0C340EDC04F11404C4F120029F
:1003000020FA04F001FA02F340EA030021FA04F3B0
:1003100045EA030130BDC4F10C04C4F1200220FA07
:1003200002F001FA04F340EA0300294630BD21FA45
:1003300004F0294630BD94F0000F83F4801306BF0B
:1003400081F480110134013D4EE77FEA645C18BFFF
:100350007FEA655C29D094EA050F08BF90EA020F96
:1003600005D054EA000C04BF1946104630BD91EA8E
:10037000030F1EBF0021002030BD5FEA545C05D191
:100380004000494128BF41F0004130BD14F58004D0
:100390003CBF01F5801130BD01F0004545F0FE4144
:1003A00041F470014FF0000030BD7FEA645C1ABF79
:1003B000194610467FEA655C1CBF0B46024650EAB0
:1003C000013406BF52EA033591EA030F41F40021DC
:1003D00030BD00BF90F0000F04BF0021704730B562
:1003E0004FF4806404F132044FF000054FF0000137
:1003F00050E700BF90F0000F04BF0021704730B5F8
:100400004FF4806404F1320410F0004548BF4042CC
:100410004FF000013EE700BF42004FEAE2014FEA21
:1004200031014FEA02701FBF12F07F4393F07F4FFC
:1004300081F06051704732F07F4208BF704793F0FF
:100440007F4F04BF41F40021704730B54FF4607412
:1004500001F0004521F000411CE700BF50EA010215
:1004600008BF704730B54FF000050AE050EA0102BE
:1004700008BF704730B511F0004502D5404261EB2E
:1004800041014FF4806404F132045FEA915C3FF46F
:10049000D8AE4FF003025FEADC0C18BF03325FEA0C
:1004A000DC0C18BF033202EBDC02C2F1200300FABD
:1004B00003FC20FA02F001FA03FE40EA0E0021FAE2
:1004C00002F11444BDE600BF70B54FF0FF0C4CF4D0
:1004D000E06C1CEA11541DBF1CEA135594EA0C0F82
:1004E00095EA0C0F00F0DEF82C4481EA030621EABD
:1004F0004C5123EA4C5350EA013518BF52EA0335F8
:1005000041F4801143F4801338D0A0FB02CE4FF0A9
:100510000005E1FB02E506F00042E0FB03E54FF0D9
:100520000006E1FB03569CF0000F18BF4EF0010ED1
:10053000A4F1FF04B6F5007F64F5407404D25FEACD
:100540004E0E6D4146EB060642EAC62141EA555180
:100550004FEAC52040EA5E504FEACE2EB4F1FD0CC2
:1005600088BFBCF5E06F1ED8BEF1004F08BF5FEA40
:10057000500E50F1000041EB045170BD06F00046F2
:1005800046EA010140EA020081EA0301B4EB5C049F
:10059000C2BFD4EB0C0541EA045170BD41F4801197
:1005A0004FF0000E013C00F3AB8014F1360FDEBFBC
:1005B000002001F0004170BDC4F10004203C35DA98
:1005C0000C341BDC04F11404C4F1200500FA05F31B
:1005D00020FA04F001FA05F240EA020001F00042BC
:1005E00021F0004110EBD37021FA04F642EB060132
:1005F0005EEA430E08BF20EAD37070BDC4F10C045C
:10060000C4F1200500FA04F320FA05F001FA04F21F
:1006100040EA020001F0004110EBD37041F100010B
:100620005EEA430E08BF20EAD37070BDC4F1200516
:1006300000FA05F24EEA020E20FA04F301FA05F27E
:1006400043EA020321FA04F001F0004121FA04F226
:1006500020EA020000EBD3705EEA430E08BF20EAF6
:10066000D37070BD94F0000F0FD101F00046400030
:1006700041EB010111F4801F08BF013CF7D041EAB2
:10068000060195F0000F18BF704703F000465200B6
:1006900043EB030313F4801F08BF013DF7D043EA87
:1006A0000603704794EA0C0F0CEA135518BF95EA3D
:1006B0000C0F0CD050EA410618BF52EA4306D1D1C4
:1006C00081EA030101F000414FF0000070BD50EAE3
:1006D000410606BF1046194652EA430619D094EA6D
:1006E0000C0F02D150EA013613D195EA0C0F05D157
:1006F00052EA03361CBF104619460AD181EA0301AB
:1007000001F0004141F0FE4141F470014FF0000062
:1007100070BD41F0FE4141F4780170BD70B54FF0FD
:10072000FF0C4CF4E06C1CEA11541DBF1CEA13557D
:1007300094EA0C0F95EA0C0F00F0A7F8A4EB05045F
:1007400081EA030E52EA03354FEA013100F0888056
:100750004FEA03334FF0805545EA131343EA12631F
:100760004FEA022245EA111545EA10654FEA0026D4
:100770000EF000419D4208BF964244F1FD0404F58D
:10078000407402D25B084FEA3202B61A65EB0305E9
:100790005B084FEA32024FF480104FF4002CB6EBA6
:1007A000020E75EB030E22BFB61A754640EA0C0026
:1007B0005B084FEA3202B6EB020E75EB030E22BF66
:1007C000B61A754640EA5C005B084FEA3202B6EBA7
:1007D000020E75EB030E22BFB61A754640EA9C0066
:1007E0005B084FEA3202B6EB020E75EB030E22BF36
:1007F000B61A754640EADC0055EA060E18D04FEAF4
:10080000051545EA16754FEA06164FEAC30343EA93
:1008100052734FEAC2025FEA1C1CC0D111F4801F60
:100820000BD141EA00014FF000004FF0004CB6E759
:1008300011F4801F04BF01430020B4F1FD0C88BFF8
:10084000BCF5E06F3FF6AFAEB5EB030C04BFB6EB03
:10085000020C5FEA500C50F1000041EB045170BDF6
:100860000EF0004E4EEA113114EB5C04C2BFD4EB23
:100870000C0541EA045170BD41F480114FF0000EA7
:10088000013C90E645EA060E8DE60CEA135594EA23
:100890000C0F08BF95EA0C0F3FF43BAF94EA0C0F26
:1008A0000AD150EA01347FF434AF95EA0C0F7FF49B
:1008B00025AF104619462CE795EA0C0F06D152EAEF
:1008C00003353FF4FDAE1046194622E750EA4106D3
:1008D00018BF52EA43067FF4C5AE50EA41047FF4E4
:1008E0000DAF52EA43057FF4EBAE12E74FF0FF3C49
:1008F00006E000BF4FF0010C02E000BF4FF0010C1A
:100900004DF804CD4FEA410C7FEA6C5C4FEA430C92
:1009100018BF7FEA6C5C1BD001B050EA410C0CBFE1
:1009200052EA430C91EA030F02BF90EA020F002043
:10093000704710F1000F91EA030F58BF994208BFAA
:1009400090422CBFD8176FEAE37040F00100704767
:100950004FEA410C7FEA6C5C02D150EA013C07D1BE
:100960004FEA430C7FEA6C5CD6D152EA033CD3D009
:100970005DF8040B704700BF8446104662468C4603
:100980001946634600E000BF01B5FFF7B7FF002836
:1009900048BF10F1000F01BD4DF808EDFFF7F4FF5F
:1009A0000CBF012000205DF808FB00BF4DF808EDEA
:1009B000FFF7EAFF34BF012000205DF808FB00BF0D
:1009C0004DF808EDFFF7E0FF94BF012000205DF82F
:1009D00008FB00BF4DF808EDFFF7CEFF94BF0120E4
:1009E00000205DF808FB00BF4DF808EDFFF7C4FFDD
:1009F00034BF012000205DF808FB00BF4FEA410C26
:100A00007FEA6C5C02D150EA013C0AD14FEA430C08
:100A10007FEA6C5C02D152EA033C02D14FF0000045
:100A200070474FF0010070474FEA4102B2F1E043D6
:100A300024BFB3F5001CDCF1FE5C0DD901F0004CC5
:100A40004FEAC0024CEA5070B2F1004F40EB830015
:100A500008BF20F00100704711F0804F21D113F141
:100A60003872BCBF01F00040704741F480114FEA7A
:100A70005252C2F11802C2F1200C10FA0CF320FA03
:100A800002F018BF40F001004FEAC1234FEAD32320
:100A900003FA0CFC40EA0C0023FA02F34FEA43038A
:100AA000CCE77FEA625307D150EA01331EBF4FF013
:100AB000FE4040F44000704701F0004040F0FE402E
:100AC00040F40000704700BF80F0004002E000BF2B
:100AD00081F0004142001FBF5FEA410392EA030F29
:100AE0007FEA226C7FEA236C6AD04FEA1262D2EB73
:100AF0001363C1BFD218414048404140B8BF5B4278
:100B0000192B88BF704710F0004F40F4000020F010
:100B10007F4018BF404211F0004F41F4000121F026
:100B20007F4118BF494292EA030F3FD0A2F1010270
:100B300041FA03FC10EB0C00C3F1200301FA03F1AE
:100B400000F0004302D5494260EB4000B0F5000FD1
:100B500013D3B0F1807F06D340084FEA310102F190
:100B60000102FE2A51D2B1F1004F40EBC25008BF42
:100B700020F0010040EA03007047490040EB00000C
:100B8000013A28BFB0F5000FEDD2B0FA80FCACF10D
:100B9000080CB2EB0C0200FA0CF0AABF00EBC2503A
:100BA00052421843BCBFD0401843704792F0000F28
:100BB00081F4000106BF80F400000132013BB5E77B
:100BC0004FEA41037FEA226C18BF7FEA236C21D0F1
:100BD00092EA030F04D092F0000F08BF0846704756
:100BE00090EA010F1CBF0020704712F07F4F04D124
:100BF000400028BF40F00040704712F100723CBF37
:100C000000F50000704700F0004343F0FE4040F460
:100C1000000070477FEA226216BF08467FEA23631E
:100C20000146420206BF5FEA412390EA010F40F409
:100C3000800070474FF0000304E000BF10F0004355
:100C400048BF40425FEA000C08BF704743F096433C
:100C500001464FF000001CE050EA010208BF704757
:100C60004FF000030AE000BF50EA010208BF7047DE
:100C700011F0004302D5404261EB41015FEA010CF3
:100C800002BF84460146002043F0B64308BFA3F1EB
:100C90008053A3F50003BCFA8CF2083AA3EBC253CD
:100CA00010DB01FA02FC634400FA02FCC2F12002EC
:100CB000BCF1004F20FA02F243EB020008BF20F023
:100CC0000100704702F1200201FA02FCC2F1200289
:100CD00050EA4C0021FA02F243EB020008BF20EA7E
:100CE000DC7070474FF0FF0C1CEAD0521EBF1CEAAC
:100CF000D15392EA0C0F93EA0C0F6FD01A4480EA9A
:100D0000010C400218BF5FEA41211ED04FF0006382
:100D100043EA501043EA5111A0FB01310CF00040AE
:100D2000B1F5000F3EBF490041EAD3715B0040EAD4
:100D3000010062F17F02FD2A1DD8B3F1004F40EBA4
:100D4000C25008BF20F00100704790F0000F0CF077
:100D5000004C08BF49024CEA502040EA51207F3A3B
:100D6000C2BFD2F1FF0340EAC250704740F4000016
:100D70004FF00003013A5DDC12F1190FDCBF00F007
:100D800000407047C2F10002410021FA02F1C2F1B5
:100D9000200200FA02FC5FEA310040F1000053EA51
:100DA0004C0308BF20EADC70704792F0000F00F09F
:100DB000004C02BF400010F4000F013AF9D040EAA5
:100DC0000C0093F0000F01F0004C02BF490011F439
:100DD000000F013BF9D041EA0C018FE70CEAD15337
:100DE00092EA0C0F18BF93EA0C0F0AD030F0004CB7
:100DF00018BF31F0004CD8D180EA010000F000406B
:100E0000704790F0000F17BF90F0004F084691F028
:100E1000000F91F0004F14D092EA0C0F01D1420262
:100E20000FD193EA0C0F03D14B0218BF084608D12B
:100E300080EA010000F0004040F0FE4040F4000075
:100E4000704740F0FE4040F4400070474FF0FF0C08
:100E50001CEAD0521EBF1CEAD15392EA0C0F93EA4F
:100E60000C0F69D0A2EB030280EA010C49024FEAA1
:100E7000402037D04FF0805343EA111143EA10135A
:100E80000CF000408B4238BF5B0042F17D024FF412
:100E9000000C8B4224BF5B1A40EA0C00B3EB510FED
:100EA00024BFA3EB510340EA5C00B3EB910F24BFD6
:100EB000A3EB910340EA9C00B3EBD10F24BFA3EB5B
:100EC000D10340EADC001B0118BF5FEA1C1CE0D123
:100ED000FD2A3FF650AF8B4240EBC25008BF20F0D6
:100EE000010070470CF0004C4CEA50207F32C2BF2A
:100EF000D2F1FF0340EAC250704740F400004FF0C7
:100F00000003013A37E792F0000F00F0004C02BFF7
:100F1000400010F4000F013AF9D040EA0C0093F0C1
:100F2000000F01F0004C02BF490011F4000F013B1B
:100F3000F9D041EA0C0195E70CEAD15392EA0C0F83
:100F400008D142027FF47DAF93EA0C0F7FF470AFBB
:100F5000084676E793EA0C0F04D14B023FF44CAFFE
:100F600008466EE730F0004C18BF31F0004CCAD193
:100F700030F000427FF45CAF31F000437FF43CAFCF
:100F80005FE700BF4FF0FF3C06E000BF4FF0010CF1
:100F900002E000BF4FF0010C4DF804CD4FEA4002D3
:100FA0004FEA41037FEA226C18BF7FEA236C11D01D
:100FB00001B052EA530C18BF90EA010F58BFB2EBD0
:100FC000030088BFC81738BF6FEAE17018BF40F050
:100FD000010070477FEA226C02D15FEA402C05D104
:100FE0007FEA236CE4D15FEA412CE1D05DF8040B89
:100FF000704700BF844608466146FFE70FB5FFF71C
:10100000C9FF002848BF10F1000F0FBD4DF808EDD3
:10101000FFF7F4FF0CBF012000205DF808FB00BFC4
:101020004DF808EDFFF7EAFF34BF012000205DF81E
:1010300008FB00BF4DF808EDFFF7E0FF94BF01206B
:1010400000205DF808FB00BF4DF808EDFFF7D2FF68
:1010500094BF012000205DF808FB00BF4DF808EDAB
:10106000FFF7C8FF34BF012000205DF808FB00BF78
:101070004FEA4002B2F1FE4F0FD34FF09E03B3EBA5
:1010800012620DD94FEA002343F0004310F0004FE5
:1010900023FA02F018BF404270474FF0000070473B
:1010A00012F1610F01D1420205D110F0004008BFDA
:1010B0006FF0004070474FF00000704742000ED2C2
:1010C000B2F1FE4F0BD34FF09E03B3EB126209D483
:1010D0004FEA002343F0004323FA02F070474FF039
:1010E0000000704712F1610F01D1420202D14FF0AE
:1010F000FF3070474FF00000704700BF08B502682E
:10110000034B9A4200D008BD00F02EFCFBE700BF65
:101110000008004072B6FEE700B591B02822002119
:1011200006A808F0B9F900230193029303930493EE
:101130000593012206924FF4803307930A9202220C
:101140000D920E934FF4E0130F9306A800F048FCA5
:1011500080B90F23019302210291002303934FF4DE
:1011600080620492059301A800F06CFE20B911B0D2
:101170005DF804FBFFF7CEFFFFF7CCFF08B500F0EA
:10118000E1FBFFF7C9FF00F015F801F0FBFC00F0F0
:10119000E1F800F0BDF802F0CFFF07F09DFD03F08D
:1011A00007F802F08FFF02F063FF01F0A1FD02F0EB
:1011B000DFFEFEE72DE9F04389B000240494059496
:1011C000069407944E4B9A6942F010029A619A690C
:1011D00002F010020092009A9A6942F020029A618D
:1011E0009A6902F020020192019A9A6942F004027F
:1011F0009A619A6902F004020292029A9A6942F094
:1012000008029A619B6903F008030393039B3D4D19
:1012100022460121284601F028F8012241F6060164
:10122000284601F022F8384F22464021384601F086
:101230001CF84FF00308CDF8108011230593069495
:10124000CDF81C8004A9284600F0F6FE0423049380
:10125000012605960694CDF81C8004A9284600F0C6
:10126000EBFE10230493DFF8A490CDF81490022332
:10127000069304A9284600F0DFFE4FF4C053049300
:1012800005960696CDF81C8004A9284600F0D4FEE9
:101290004FF400430493CDF81490069404A9284613
:1012A00000F0CAFE08230493CDF81490069404A914
:1012B000384600F0C1FE4023049305960694079635
:1012C00004A9384600F0B8FE8023049305940696DE
:1012D00004A9384600F0B0FE22460521092001F09D
:1012E000C3F8092001F0F8F822460521282001F072
:1012F000BBF8282001F0F0F809B0BDE8F08300BF8A
:101300000010024000080140000C014000001110D4
:1013100008B50E480E4B03604FF482734360002300
:101320008360C360036143614FF4007282612022D5
:10133000C2610362436283620A23C36200F0C2F99E
:1013400000B908BDFFF7E6FEFBE700BF240200205E
:101350000030014008B50F480F4B03604FF4827313
:10136000436000238360C360022202610122426164
:101370004FF4007282612822C26103624362836279
:101380000A23C36200F09EF900B908BDFFF7C2FE50
:10139000FBE700BF7C0200200038004070B588B039
:1013A000002304930593069307930368444A9342EA
:1013B00005D00446434A934229D008B070BD424B41
:1013C0009A6942F480529A619A6902F480520092BA
:1013D000009A9A6942F004029A619B6903F004033F
:1013E0000193019BA02304930223059303230793F6
:1013F000364C04A9204600F01FFE4023049300232E
:101400000593069304A9204600F016FED5E72E4B5F
:10141000DA6942F48042DA61DA6902F480420292C7
:10142000029A9A6942F008029A619B6903F00803E4
:101430000393039B4FF42043049302230593032358
:101440000793234E04A9304600F0F6FD4FF4804385
:10145000049300250595069504A9304600F0ECFD9F
:101460001C481D4B0360456085608023C360056197
:10147000456185614FF44053C36100F00BFFC0B973
:10148000144BE3645C621548154B03601023436002
:10149000002383608022C2600361436183614FF453
:1014A0000053C36100F0F6FE30B90C4BA3645C62DC
:1014B00083E7FFF72FFEE3E7FFF72CFEF5E700BF1A
:1014C0000030014000380040001002400008014098
:1014D000000C01409C01002044000240E00100207B
:1014E00058000240FEE7FEE7FEE7FEE7FEE7704732
:1014F00008B5082000F0C0FE08BD000008B502488D
:1015000000F0FEFE08BD00BF9C01002008B50248A7
:1015100000F0F6FE08BD00BFE001002008B502485B
:1015200001F04DF908BD00BFD835002008B50248CC
:1015300001F045F908BD00BF2036002008B502487B
:1015400001F03DF908BD00BF083E002008B54FF48A
:10155000004000F091FE08BD00B583B0114B9A69C0
:1015600042F001029A619A6902F001020092009A27
:10157000DA6942F08052DA61DB6903F0805301934B
:10158000019B00220F216FF0010000F06DFF064A61
:10159000536823F0E06343F00073536003B05DF8D9
:1015A00004FB00BF00100240000001402DE9F0479D
:1015B00082B00546884617461E4600F0E1F90A9BB0
:1015C0001B1A03EB060900F0DBF982462B4B1B6864
:1015D000C3F3CB3309FB03F301932B689C6838EA10
:1015E00004030CBF4FF0010C4FF0000CBC4540D081
:1015F000B6F1FF3FF1D000F0C3F9A0EB0A00484577
:101600000AD2B9F1000F07D0019A02B14A46019BF4
:10161000013B01939146E0E72A68536823F0E00319
:1016200053606B68B3F5827F0BD0AB6AB3F5005F94
:1016300014D0012385F85130002385F85030032061
:1016400018E0AB68B3F5004F02D0B3F5806FECD172
:101650002A68136823F040031360E6E72A681368DA
:1016600023F4005313602A68136843F40053136093
:10167000DFE7002002B0BDE8F08700BF08000020CF
:1016800070B582B006460C46154600920B46012204
:101690000221FFF78BFF48B90095234600228021E5
:1016A0003046FFF783FF38B902B070BD736D43F069
:1016B000200373650320F7E7736D43F02003736520
:1016C0000320F1E7002856D010B50446436A33B929
:1016D0004368B3F5827F05D00023C36102E0002395
:1016E000036143610023A36294F85130002B3CD086
:1016F000022384F851302268136823F040031360FA
:10170000636803F48273A26802F404421343E2683C
:1017100002F400621343226902F002021343626979
:1017200002F001021343A26902F400721343E2695A
:1017300002F038021343226A02F080021343A26AC5
:1017400002F40052216813430B60638B226803F09C
:10175000040353602268D36923F40063D36100203B
:101760006065012384F8513010BD84F85030204664
:10177000FFF714FEBCE7012070472DE9F04383B06A
:101780000446894690461D4600F0FAF894F85160E8
:10179000F6B2012E40F0CC800746B9F1000F00F000
:1017A000C880B8F1000F00F0C48094F85030012BCD
:1017B00000F0C380012384F85030032384F85130B3
:1017C00000236365C4F83090A4F83480A4F8368010
:1017D000A363A387E38763642364A368B3F5004F1F
:1017E0001ED023681A6812F0400F03D11A6842F025
:1017F00040021A60E368B3F5006F1CD0636813B150
:10180000B8F1010F5FD1226B236812781A73236B32
:1018100001332363E38E9BB2013B9BB2E38652E02C
:101820002268136823F0400313602268136843F4AE
:1018300080431360D5E7636813B1B8F1010F15D188
:10184000226B23681288DA60236B02332363E38EF2
:101850009BB2013B9BB2E38608E000F091F8C01B0D
:10186000A84202D3B5F1FF3F15D1A5B1E38E9BB2DB
:10187000002B42D023689A6812F0020FEDD0226B41
:101880001288DA60236B02332363E38E9BB2013B41
:101890009BB2E386EAE7012384F85130002384F801
:1018A0005030032645E0226B12781A73236B013304
:1018B0002363B4F836C01FFA8CFC0CF1FF3C1FFA0E
:1018C0008CFCA4F836C0E38E9BB2B3B123689A684F
:1018D00012F0020FE7D100F053F8C01BA84202D368
:1018E000B5F1FF3F01D1002DEDD1012384F8513036
:1018F000002384F8503003261BE03A462946204650
:10190000FFF7BEFE08B120236365A36833B90193D6
:101910002368DA6801929B680193019B012384F894
:101920005130002384F85030636D13B9002600E075
:101930000226304603B0BDE8F0830226F9E790F8AE
:101940005100704708B5074A136843F0100313604D
:10195000032000F077FD0F2007F04EFCFFF7FCFDA1
:10196000002008BD00200240034A1168034B1B7889
:101970000B441360704700BFD40200200000002019
:10198000014B1868704700BFD402002038B50446E8
:10199000FFF7F6FF0546B4F1FF3F02D0044B1B787A
:1019A0001C44FFF7EDFF401BA042FAD338BD00BF37
:1019B0000000002082B0084B1B68084AA2FB0323EA
:1019C0005B0A00FB03F3019300BF019B5A1E0192C7
:1019D000002BF9D102B0704708000020D34D6210EF
:1019E000002800F0F18170B582B00446036813F05E
:1019F000010F2CD0994B5B6803F00C03042B1DD016
:101A0000964B5B6803F00C03082B12D06368B3F5A8
:101A1000803F41D0002B55D103F1804303F50433BF
:101A20001A6822F480321A601A6822F480221A603E
:101A300037E08A4B5B6813F4803FE7D0874B1B6825
:101A400013F4003F03D06368002B00F0BF812368CC
:101A500013F0020F75D0814B5B6813F00C0F5FD051
:101A60007E4B5B6803F00C03082B54D02369002BDA
:101A700000F08A807A4B01221A60FFF781FF054649
:101A8000764B1B6813F0020F75D1FFF779FF401BEF
:101A90000228F5D903209EE1704A136843F480338D
:101AA0001360636843B3FFF76BFF05466B4B1B681E
:101AB00013F4003FCBD1FFF763FF401B6428F5D937
:101AC000032088E1B3F5A02F09D0644B1A6822F4F3
:101AD00080321A601A6822F480221A60E1E703F16A
:101AE0008043A3F53C331A6842F480221A601A68D6
:101AF00042F480321A60D4E7FFF742FF0546574BA5
:101B00001B6813F4003FA2D0FFF73AFF401B642884
:101B1000F5D903205FE1514B5B6813F4803FA5D1F9
:101B20004E4B1B6813F0020F03D02369012B40F0CA
:101B30004F814A4A136823F0F803616943EAC103FD
:101B40001360236813F0080F33D0A369002B5CD017
:101B5000434B0122C3F88024FFF712FF05463F4B99
:101B60005B6A13F0020F21D1FFF70AFF401B022826
:101B7000F5D903202FE1394A136823F0F80361698E
:101B800043EAC1031360DCE7354B00221A60FFF71C
:101B9000F7FE0546314B1B6813F0020FD1D0FFF75B
:101BA000EFFE401B0228F5D9032014E10120FFF7C6
:101BB00001FF236813F0040F00F09680274BDB69C8
:101BC00013F0805F34D1254BDA6942F08052DA613C
:101BD000DB6903F080530193019B0125214B1B68B6
:101BE00013F4807F26D0E368012B3DD0002B53D126
:101BF00003F1804303F504331A6A22F001021A62EA
:101C00001A6A22F004021A6233E0154B0022C3F86C
:101C10008024FFF7B5FE0546104B5B6A13F0020FF8
:101C2000C7D0FFF7ADFE401B0228F5D90320D2E054
:101C30000025D3E70B4A136843F480731360FFF762
:101C40009FFE0646074B1B6813F4807FCBD1FFF73E
:101C500097FE801B6428F5D90320BCE000100240E9
:101C600000004242007000405F4A136A43F00103E3
:101C70001362E36833B3FFF783FE06465A4B1B6AD1
:101C800013F0020F2FD1FFF77BFE801B41F2883348
:101C90009842F3D903209EE0052B09D0524B1A6AD3
:101CA00022F001021A621A6A22F004021A62E0E7C4
:101CB0004D4B1A6A42F004021A621A6A42F001029B
:101CC0001A62D6E7FFF75CFE0646474B1B6A13F025
:101CD000020F08D0FFF754FE801B41F28833984270
:101CE000F3D9032077E0E5B9E369002B72D03E4ACF
:101CF000526802F00C02082A56D0022B17D03B4B38
:101D000000221A66FFF73CFE0446374B1B6813F0AF
:101D1000007F47D0FFF734FE001B0228F5D90320CF
:101D200059E0314AD36923F08053D361DCE72F4B6C
:101D300000221A66FFF724FE05462B4B1B6813F0A2
:101D4000007F06D0FFF71CFE401B0228F5D90320B8
:101D500041E0236AB3F5803F1AD023494B6823F44E
:101D60007413226A606A024313434B601F4B0122C3
:101D70001A66FFF705FE04461B4B1B6813F0007F35
:101D80000ED1FFF7FDFD001B0228F5D9032022E04C
:101D9000154A536823F40033A1680B435360DCE712
:101DA000002018E0002016E0012B16D00E4B5B68D7
:101DB00003F48031226A914211D103F47013626AF4
:101DC00093420ED1002006E001207047012002E07E
:101DD000012000E0002002B070BD0120FBE70120DF
:101DE000F9E70120F7E700BF00100240000042427F
:101DF0000F4B5B6803F00C02082A01D00D487047B6
:101E0000C3F383420C49885C13F4803F0BD0084B2A
:101E10005B68C3F34043094AD35C064A02FB00F007
:101E2000B0FBF3F07047064B03FB00F0704700BFB8
:101E30000010024000127A00089700081897000866
:101E400000093D00002800F0A08070B50D46044652
:101E5000524B1B6803F007038B420BD24F4A1368A7
:101E600023F007030B431360136803F007038B424F
:101E700040F08D80236813F0020F17D013F0040F89
:101E800004D0474A536843F4E0635360236813F077
:101E9000080F04D0424A536843F460535360404AE9
:101EA000536823F0F003A1680B435360236813F0D9
:101EB000010F31D06368012B20D0022B25D0384A86
:101EC000126812F0020F64D035494A6822F003020A
:101ED00013434B60FFF754FD0646314B5B6803F03C
:101EE0000C036268B3EB820F16D0FFF749FD801B2D
:101EF00041F288339842F0D9032045E0284A12681D
:101F000012F4003FE0D101203EE0254A126812F0B1
:101F1000007FD9D1012037E0204B1B6803F0070375
:101F2000AB420AD91D4A136823F007032B43136001
:101F3000136803F00703AB422DD1236813F0040F9D
:101F400006D0174A536823F4E063E1680B435360FB
:101F5000236813F0080F07D0114A536823F4605325
:101F6000216943EAC1035360FFF742FF0C4B5B68F2
:101F7000C3F303130B4AD35CD8400B4B18600B4BD5
:101F8000186807F039F9002070BD01207047012062
:101F9000FAE70120F8E70120F6E700BF0020024041
:101FA000001002401C9700080800002004000020D8
:101FB000014B1868704700BF0800002008B5FFF704
:101FC000F7FF044B5B68C3F30223034AD35CD8409A
:101FD00008BD00BF001002402C97000808B5FFF7AD
:101FE000E7FF044B5B68C3F3C223034AD35CD840CA
:101FF00008BD00BF001002402C9700080F230360AB
:102000000B4B5A6802F0030242605A6802F0F00279
:1020100082605A6802F4E062C2605B68DB0803F425
:10202000E0630361034B1B6803F007030B60704719
:10203000001002400020024070B582B00024A44687
:10204000A6E0804DAA4210D007D97F4DAA420CD0FD
:1020500005F58035AA4208D013E0A5F58015AA42FF
:1020600003D005F57025AA4207D18A68002A58D006
:10207000012A51D04361082403E0A5F58015AA4246
:10208000F3D0BEF1FF0F4ED80646BEF1FF0F4CD87D
:102090004FEA8C0233680F25954023EA050304FAC2
:1020A00002F2134333604B6813F0805F6ED0674BCE
:1020B0009A6942F001029A619B6903F0010301935E
:1020C000019B4FEA9C02951C614B53F825600CF074
:1020D00003039D000F23AB4026EA03065D4B9842A5
:1020E00029D003F58063984200F08E8003F5806369
:1020F000984200F08B8003F58063984219D0042346
:102100001AE0CC68BDE7CC680434BAE7CC68083480
:10211000B7E7CC680C34B4E703610824B1E70024C6
:10212000AFE70424ADE7061DAFE7ACF1080292006B
:10213000B0E7032300E00023AB4033430232444DB9
:1021400045F822304B6813F4801F61D0424A9368EF
:1021500043EA0E0393604B6813F4001F5ED03E4ABF
:10216000D36843EA0E03D3604B6813F4003F5BD09F
:10217000394A536843EA0E0353604B6813F4803FB7
:1021800058D0354A136843EA0E0313600CF1010C72
:102190000A6832FA0CF353D0012303FA0CF302EA73
:1021A000030E33EA0202F1D14A68122A3FF649AF20
:1021B000122A3FF666AF01A555F822F06B20000801
:1021C000032100080D2100081F21000883200008BA
:1021D0008320000883200008832000088320000853
:1021E0008320000883200008832000088320000843
:1021F0008320000883200008832000088320000833
:102200000721000813210008012395E7022393E723
:10221000114A936823EA0E0393609CE70E4AD36841
:1022200023EA0E03D3609FE70B4A536823EA0E03A9
:102230005360A2E7084A136823EA0E031360A5E778
:1022400002B070BD000022100000311000100240EA
:102250000000014000080140000401408368194269
:1022600001D001207047002070470AB1016170471A
:10227000090401617047000008B5054B5B69034222
:1022800000D108BD024B586102F08AFDF9E700BF9A
:102290000004014060B310B402460168154B0B44C2
:1022A0001548A0FB03031B099B001364134BD36366
:1022B000022382F82130086820F47F5020F030009B
:1022C000536894682343D4682343146923435469AF
:1022D000234394692343D469234303430B600020C1
:1022E0009063012382F8213082F8200010BC7047EF
:1022F00001207047F8FFFDBFCDCCCCCC00000240E0
:1023000038B5C36B1A6804682568016C04238B40D8
:10231000134235D015F0040F32D0236813F0200F8C
:1023200003D1236823F0040323600368434A9342E4
:1023300014D01432934218D01432934217D014326E
:10234000934217D01432934217D01432934202D0E2
:102350004FF0806203E04FF4800200E00422384B2B
:102360005A60C36A03B1984738BD4022F7E74FF47B
:102370008062F4E74FF48042F1E74FF48022EEE709
:1023800002238B4013423CD015F0020F39D0236852
:1023900013F0200F06D1236823F00A0323600123E2
:1023A00080F821300368254A934214D014329342B6
:1023B0001CD0143293421BD0143293421BD01432DF
:1023C00093421BD01432934202D04FF0007203E0CC
:1023D0004FF4001200E00222194B5A60002380F8EB
:1023E0002030836A002BBFD09847BDE72022F3E757
:1023F0004FF40072F0E74FF40052EDE74FF4003273
:10240000EAE7082303FA01F11142ADD015F0080FF5
:10241000AAD0236823F00E032360026CC16B012352
:1024200003FA02F24A60836380F82130002380F8C7
:102430002030036B002B97D0984795E708000240A7
:1024400000000240074AD36823F4E0631B041B0C1E
:10245000000200F4E060034343F0BF6343F4003341
:10246000D360704700ED00E000B5194BDB68C3F3A3
:102470000223C3F1070CBCF1040F28BF4FF0040C7A
:1024800003F1040EBEF1060F18D9033B4FF0FF3ED7
:102490000EFA0CFC21EA0C0199400EFA03F322EA31
:1024A0000303194300280BDB0901C9B200F16040A6
:1024B00000F5614080F800135DF804FB0023E5E7B8
:1024C00000F00F000901C9B2024B1954F4E700BF34
:1024D00000ED00E014ED00E0002807DB00F01F0233
:1024E000400901239340024A42F82030704700BF60
:1024F00000E100E000280CDB00F01F02400901238E
:1025000093402030034A42F82030BFF34F8FBFF38F
:102510006F8F704700E100E0044B0022DA61044A4B
:10252000136943F00103136101807047D802002052
:1025300000200240194BDB6813F0100305D0184A45
:10254000D36943F00203D3611023144AD26812F016
:10255000040F06D01249CA6942F00102CA6143F071
:1025600004030E4AD26912F0010F09D00C49CA695E
:1025700042F00402CA610949CA6922F00102CA6133
:1025800040F20112934202D0044AD3607047034ADA
:10259000D36923F00103D361704700BF00200240DC
:1025A000D80200200A4B1B6913F0800F0BD0084B98
:1025B000084A5A6002F188325A601B6913F0800F92
:1025C00003D100207047002070470120704700BFF2
:1025D0000020024023016745034A136943F080034A
:1025E00013610020704700BF0020024038B5044648
:1025F000FFF7C6F90546164BDB6813F0010F0AD04A
:10260000B4F1FF3FF7D024B1FFF7BAF9401BA04265
:10261000F1D903201BE00E4BDB6813F0200F02D032
:102620000B4B2022DA600A4BDB6813F0100F0BD142
:10263000074BDB6913F0010F06D1054BDB6813F084
:10264000040F01D1002002E0FFF774FF012038BD24
:10265000002002402DE9F8431E46244B1B7E012B2F
:1026600041D004460F469046204B01221A764CF288
:102670005030FFF7BBFF034678BB012C08D0022C7B
:1026800003D04FF004091C4607E04FF00209FAE7B7
:102690004FF00109F7E70134E4B24C451DD22101A6
:1026A000C1F12002A1F1200328FA01F106FA02F299
:1026B000114326FA03F3194389B207EB4400FFF7ED
:1026C0002BFF4CF25030FFF791FF094B1D6925F0AD
:1026D00001051D6103460028DDD0044A0021117662
:1026E0001846BDE8F8830223FAE700BFD8020020AD
:1026F0000020024010B4036A046A24F0010404625A
:10270000846924F0F00C4CEA021223F00A030B4314
:102710008261036210BC704710B4036A046A24F03B
:1027200010040462846924F4704C4CEA023223F0F1
:10273000A00343EA01138261036210BC70478368FF
:1027400023F070030B4343F00703836070470000DE
:1027500090F83D30DBB2012B27D1022380F83D30C9
:102760000268D36843F00103D3600368114A9342BF
:1027700010D0B3F1804F0DD0A2F59432934209D01E
:1027800002F58062934205D01A6842F001021A6095
:10279000002070479A6802F00702062A07D01A68DC
:1027A00042F001021A6000207047012070470020AB
:1027B000704700BF002C014070477047704770B5EC
:1027C00004460368DE681D6915F0020F10D016F08C
:1027D000020F0DD06FF002021A6101230377036824
:1027E0009B6913F0030F5ED006F0DAFD0023237718
:1027F00015F0040F12D016F0040F0FD023686FF0FD
:1028000004021A610223237723689B6913F4407F33
:102810004FD0204606F0C4FD0023237715F0080FA3
:1028200012D016F0080F0FD023686FF008021A615B
:10283000042323772368DB6913F0030F40D020467D
:1028400006F0AEFD0023237715F0100F12D016F01E
:10285000100F0FD023686FF010021A61082323773E
:102860002368DB6913F4407F31D0204606F098FDE1
:102870000023237715F0010F02D016F0010F2DD1A0
:1028800015F0800F02D016F0800F2FD115F0400FF9
:1028900002D016F0400F31D115F0200F02D016F003
:1028A000200F33D170BDFFF787FF2046FFF785FF6C
:1028B0009CE72046FFF780FF2046FFF77EFFABE74F
:1028C0002046FFF779FF2046FFF777FFBAE720465B
:1028D000FFF772FF2046FFF770FFC9E723686FF02C
:1028E00001021A612046FEF709FCC9E723686FF070
:1028F00080021A61204600F042F9C7E723686FF0B2
:1029000040021A612046FFF759FFC5E723686FF0C0
:1029100020021A61204600F031F9C3E703681F4A1C
:1029200090420AD0B0F1804F07D0A2F59432904285
:1029300003D002F58062904203D123F070034A680D
:102940001343164A90420AD0B0F1804F07D0A2F547
:102950009432904203D002F58062904203D123F476
:102960004073CA68134323F080034A69134303602A
:102970008B68C3620B688362084B98420AD00123BC
:102980004361036913F0010F03D0036923F00103CE
:10299000036170470B690363F1E700BF002C01403E
:1029A00040B310B5044690F83D30F3B1022384F8EB
:1029B0003D30214651F8040BFFF7B0FF012384F8A6
:1029C000463084F83E3084F83F3084F8403084F854
:1029D000413084F8423084F8433084F8443084F83D
:1029E000453084F83D30002010BD80F83C3001F0C7
:1029F00017FCDBE70120704710B4846824F47F4C97
:102A000042EA03220A4342EA0C02826010BC704789
:102A100090F83C30012B78D010B50446012380F8A3
:102A20003C30022380F83D300268936823F47F43F2
:102A300023F0770393600B68602B4CD029D8402B90
:102A400054D00CD9502B22D1CA6849680068FFF7CE
:102A500051FE50212068FFF772FE002005E0202B78
:102A60000DD009D9302B0AD00120012384F83D3044
:102A7000002384F83C3010BD0BB1102B05D1194652
:102A80002068FFF75CFE0020EFE70120EDE7012062
:102A9000EBE7B3F5805F34D0B3F5005F0CD1CB68C2
:102AA0004A6889680068FFF7A7FF2268936843F4C3
:102AB000804393600020D8E7702B24D1CB684A680C
:102AC00089680068FFF798FF2268936843F07703EE
:102AD00093600020C9E7CA6849680068FFF71CFED8
:102AE00060212068FFF72BFE0020BEE7CA68496816
:102AF0000068FFF7FFFD40212068FFF720FE00205F
:102B0000B3E70020B1E70120AFE7022070470000E3
:102B100090F83C30012B2CD010B4012380F83C30CD
:102B2000022380F83D3003685A689C6822F0700CDC
:102B30000A6842EA0C025A6003680F4A93420AD0BC
:102B4000B3F1804F07D0A2F59432934203D002F53F
:102B50008062934204D124F080044A6814439C604C
:102B6000012380F83D30002380F83C30184610BC2B
:102B700070470220704700BF002C0140704770472B
:102B80007047000000B583B00E4B5A6942F0010255
:102B90005A615B6903F001030193019B0022052147
:102BA0000E20FFF761FC0E20FFF796FC00220521A6
:102BB0000F20FFF759FC0F20FFF78EFC03B05DF8E4
:102BC00004FB00BF0010024038B505460C46FEF776
:102BD00045FA00B1254604F1004429462046FEF797
:102BE0003DFA00B92C46204638BDDDF804C0C0F8D7
:102BF00020C0DDF800C0C0F828C0016042608360DA
:102C00000023C362C36003614362C36143618361A4
:102C1000012380F83030029B436370472DE9F8436D
:102C200004460D4690F83030012B42D06561E169D1
:102C30002846FDF74FFF0746E06121692846FDF76A
:102C400047FF0646A06129462068FEF74BF88046FC
:102C5000D4F8209061683846FEF744F84946FFF7FB
:102C6000B3FF01464046FDF735FF0746A1683046F1
:102C7000FEF738F801463846FDF72CFF6062A66A79
:102C80003146FEF7EBF900B1666206F100463146C7
:102C9000606AFEF7C5F900B166622561284606F054
:102CA000C4F9616BFEF7BCF908B100236362BDE8AB
:102CB000F8832161E160002380F83030B6E700003E
:102CC00008B5044B186801F08DF9642001F08FF904
:102CD000F7E700BFF8020020034B0360034B0B60D3
:102CE00080231360704700BFFC040020FC0200201A
:102CF00010B588B00DF1040C074C0FCCACE80F00F8
:102D000094E807008CE80700002101A801F035F9DC
:102D1000024B186008B010BD9C960008F802002015
:102D200000F1080343604FF0FF328260C36003612B
:102D300000230360704700230361704743684B60C2
:102D40009A688A6051609960086103680133036082
:102D5000704730B40D68B5F1FF3F11D000F10803A2
:102D60001C465B681A68AA42FAD963684B6099608E
:102D70008C606160086103680133036030BC704798
:102D80000469F2E70369416882688A6041685160BA
:102D90005A68824206D0002202611A68013A1A601B
:102DA0001868704782685A60F5E770B504461546A2
:102DB000866B026C5AB903681BB100200136A6630A
:102DC00070BD806800F0E2FD0023A360F6E76DB9F6
:102DD000406806F053FB226C636813446360A2688A
:102DE000934219D3236863602846E7E7C06806F07A
:102DF00045FB226C5142E3689B1AE36022689342D0
:102E000002D2A3680B44E360022D01D00020D5E775
:102E100026B1013E0020D1E72846CFE70020CDE7CC
:102E200008B50346026C62B10846D9681144D960FE
:102E3000D3F808C0614501D31968D960D96806F094
:102E40001DFB08BD38B5E0B10D46044600F072FF29
:102E50002368E26B216C01FB0230A0600020A063BC
:102E60006360013A02FB0133E360FF2384F84430DE
:102E700084F84530FDB9236963B900F07DFF012076
:102E800038BD4FF0500383F31188BFF36F8FBFF34A
:102E90004F8FFEE704F1100000F032FD0028ECD067
:102EA0004FF0E0234FF08052C3F8042DBFF34F8F53
:102EB000BFF36F8FE1E704F11000FFF731FF04F17A
:102EC0002400FFF72DFFD8E710B5034602980C4603
:102ED00031B90060C36304640121FFF7B3FF10BD83
:102EE0000260F7E740B94FF0500383F31188BFF356
:102EF0006F8FBFF34F8FFEE7F0B583B00D461446DA
:102F0000064601FB00F0483000F0FEFD074650B1D8
:102F1000002380F846300090234600F148022946FD
:102F20003046FFF7D1FF384603B0F0BD2DE9F84336
:102F300090B10F4616461C460546B1B1022C20D171
:102F4000EB6B012B1DD04FF0500383F31188BFF3BF
:102F50006F8FBFF34F8FFEE74FF0500383F311885D
:102F6000BFF36F8FBFF34F8FFEE7036C002BE5D0ED
:102F70004FF0500383F31188BFF36F8FBFF34F8F70
:102F8000FEE700F0C1FFEFF311894FF0500383F328
:102F90001188BFF36F8FBFF34F8FAA6BEB6B9A4211
:102FA00006D3022C04D0002089F31188BDE8F883F1
:102FB00095F845804FFA88F8AB6B2246394628468B
:102FC000FFF7F3FEB8F1FF3F06D008F101035BB253
:102FD00085F845300120E7E76B6A0BB90120E3E78C
:102FE00005F1240000F08CFC18B126B101203060FE
:102FF000DAE70120D8E70120D6E72DE9F843B0B1A0
:103000000D4616460446D9B100F07EFFEFF3118855
:103010004FF0500383F31188BFF36F8FBFF34F8FCF
:10302000A76BCFB9002088F31188BDE8F8834FF073
:10303000500383F31188BFF36F8FBFF34F8FFEE709
:10304000036C002BE0D04FF0500383F31188BFF3E3
:103050006F8FBFF34F8FFEE794F844904FFA89F9D2
:1030600029462046FFF7DCFE013FA763B9F1FF3F89
:1030700006D009F101035BB284F844300120D2E7A5
:1030800023690BB90120CEE704F1100000F038FCF1
:1030900018B126B101203060C5E70120C3E7012047
:1030A000C1E70000084B1B681B6823B9074B4FF0B2
:1030B000FF321A607047044B1B68DB68DB685A6894
:1030C000024B1A60704700BF5405002028060020FC
:1030D0002DE9F04707469846089DDDF824900A9CA4
:1030E000266B02F18042013A06EB820626F00706C3
:1030F00000293AD08E464FF0000CBCF10F0F0BD8D0
:103100001EF80C2004EB0C0383F834201EF80C305E
:1031100013B10CF1010CF0E7002384F84330062DC5
:1031200000D90625E56265644FF0000AC4F848A09E
:10313000201DFFF700FE04F11800FFF7FCFD2461DD
:10314000C5F10705A5616462C4F84CA084F850A0DD
:1031500042463946304600F0C3FD2060B9F1000F09
:1031600001D0C9F80040BDE8F087002384F834306E
:10317000D5E7000038B5002407E004EB8402930093
:103180000E481844FFF7CCFD0134062CF5D90C4D40
:103190002846FFF7C5FD0B4C2046FFF7C1FD0A4846
:1031A000FFF7BEFD0948FFF7BBFD0948FFF7B8FD73
:1031B000084B1D60084B1C6038BD00BF5C0500203B
:1031C000FC050020100600203406002060060020C8
:1031D0004C060020540500205805002010B5044678
:1031E00000F0A8FD214A136801331360204B1B68CF
:1031F0005BB1204B1B686BB91D4B1B68DA6AE36A35
:103200009A4207D81A4B1C6004E0194B1C601368E3
:10321000012B28D0184A136801331360E06A012398
:103220008340164A11680B43136000EB8000211D98
:10323000134B03EB8000FFF781FD00F09DFD0D4B6C
:103240001B687BB10A4B1B68DA6AE36A9A4209D2AF
:103250004FF0E0234FF08052C3F8042DBFF34F8F9F
:10326000BFF36F8F10BDFFF785FFD3E7E8050020A0
:103270005005002048060020F4050020F805002035
:103280005C05002010B5044690F8513063B1012B65
:1032900011D0022B0ED04FF0500383F31188BFF3EF
:1032A0006F8FBFF34F8FFEE7006B00F0ABFC204643
:1032B00000F0A8FC10BD00F0A5FCFBE70F4B1B685D
:1032C000D3B110B500F036FD0D4BDB68DC68201D76
:1032D000FFF758FD0B4A1368013B1360074A136858
:1032E000013B136000F048FD2046FFF7CBFF034B86
:1032F0001B68002BE6D110BD704700BFEC05002015
:1033000060060020E805002008B5FFF7D7FF074B4F
:103310001B68012BF9D94FF0E0234FF08052C3F81E
:10332000042DBFF34F8FBFF36F8FEEE75C050020D6
:1033300070B504460D461D4B1E681D4B18680430C1
:10334000FFF720FD50B91A4B1B68DA6A012303FA14
:1033500002F218490B6823EA02030B60B4F1FF3F45
:103360000DD03444124B1B685C60A64210D9124B3E
:1033700018680F4B19680431FFF7EBFC70BD002D86
:10338000EFD00B4B196804310C48FFF7D7FCF5E779
:103390000B4B1868064B19680431FFF7DAFC094B30
:1033A0001B68A342EAD9074B1C60E7E774060020BC
:1033B00050050020F8050020580500204C0600208C
:1033C000540500202806002030B587B00B9C7CB146
:1033D0000C9DB5B154250495049D542D1AD04FF081
:1033E000500383F31188BFF36F8FBFF34F8FFEE756
:1033F0004FF0500383F31188BFF36F8FBFF34F8FEC
:10340000FEE74FF0500383F31188BFF36F8FBFF3D4
:103410004F8FFEE7049D0C9D2C63022485F85140DC
:1034200000240394029505AC01940A9C0094FFF7D4
:103430004FFE0C98FFF7D2FE059807B030BD2DE97E
:10344000F04385B00746884614461E46900000F0BB
:103450005BFB00B38146542000F056FB0546B0B13B
:10346000C0F83090E5B1002385F851300393029500
:103470000D9B01930C9B00933346224641463846F0
:10348000FFF726FE2846FFF7A9FE012005E0484683
:1034900000F0B8FBE6E74FF0FF3005B0BDE8F08381
:1034A0004FF0FF30F9E7000038B5044600F042FC69
:1034B000002C33D0251D2846FFF764FC68B9E26A6A
:1034C00002EB82039B002749CB5833B90123934079
:1034D00025490A6822EA03020A60A36A1BB104F1C3
:1034E0001800FFF74FFC214A136801331360204B8B
:1034F0001B68A34215D01F4A1368013B1360204686
:10350000FFF7C0FEFFF7CEFD00F036FC1A4B1B683C
:103510001BB1174B1B68A3420CD038BD144B1C6861
:10352000C8E729461548FFF709FC154A1368013317
:103530001360E9E7134B1B6843B14FF0500383F36B
:103540001188BFF36F8FBFF34F8FFEE74FF0E0237B
:103550004FF08052C3F8042DBFF34F8FBFF36F8F2E
:10356000DBE700BF5C050020F8050020F405002023
:1035700050050020E80500204806002060060020D5
:10358000EC050020F005002010B588B0002405945B
:10359000069407AA06A905A8FFF79EFB059B0293C0
:1035A000069B019300942346079A0E490E48FFF7A5
:1035B0000BFF0E4B186090B14FF0500383F311884E
:1035C000BFF36F8FBFF34F8F094B4FF0FF321A607D
:1035D000084B01221A60084B1C6000F035FC08B053
:1035E00010BD00BF409700080933000824060020E2
:1035F000280600204806002074060020024A1368AE
:1036000001331360704700BFF0050020F8B53A4B56
:103610001B68002B69D1394B1D6801351D60C5B988
:10362000374B1B681B6843B14FF0500383F311887D
:10363000BFF36F8FBFF34F8FFEE7314A1168314BF5
:10364000186810601960304A136801331360FFF77F
:1036500029FD2E4B1B68AB423DD900272C4B1B6824
:10366000DB6A03EB83039A002A4B9B58012B00D99A
:103670000127294B1B68002B3CD001273AE001278A
:103680001F4B1B681B6843B31D4B1B68DB68DC6862
:1036900063689D4226D3261D3046FFF773FBA36A5D
:1036A0001BB104F11800FFF76DFBE36A01229A4099
:1036B0001A49086802430A6003EB83039A00314603
:1036C00014481044FFF73AFBE26A114B1B68DB6AAF
:1036D0009A42D4D2D4E70027D2E70C4B4FF0FF3206
:1036E0001A60BBE7094A1360B8E70D4A1368013353
:1036F000136000273846F8BDF0050020740600204E
:1037000054050020580500202C0600202806002023
:10371000500500205C05002078060020F8050020F8
:103720003006002038B5354B1B6843B94FF05003C5
:1037300083F31188BFF36F8FBFF34F8FFEE700F065
:10374000F9FA2E4B1A68013A1A601B68002B4FD108
:103750002B4B1B680BB900244BE00024294B1B6842
:103760001BB3284BDB68DC6804F11800FFF70AFB89
:10377000251D2846FFF706FBE06A01238340224A05
:1037800011680B43136000EB800029461F4B03EBCD
:103790008000FFF7D3FAE26A1D4B1B68DB6A9A428E
:1037A000DCD31C4B01221A60D8E70CB1FFF77AFC7E
:1037B000194B1C6884B9174B1C68D4B14FF0E02337
:1037C0004FF08052C3F8042DBFF34F8FBFF36F8FBC
:1037D00001240EE0013C07D0FFF718FF0028F9D0C4
:1037E0000C4B01221A60F5E70B4B00221A60E2E74E
:1037F000002400F0C1FA204638BD00BFF0050020CB
:10380000E805002034060020F80500205C050020B3
:1038100050050020780600203006002010B5A8B121
:103820000446104B1B6843B14FF0500383F31188DB
:10383000BFF36F8FBFF34F8FFEE7FFF7DFFE00216F
:103840002046FFF775FDFFF76DFF48B94FF0E02305
:103850004FF08052C3F8042DBFF34F8FBFF36F8F2B
:1038600010BD00BFF0050020204B1B681BB1204B92
:1038700001221A6070471E4B00221A601D4B1B6804
:10388000B3FA83F3DBB2C3F11F0303EB83018A00B6
:1038900019498A5842B94FF0500383F31188BFF396
:1038A0006F8FBFF34F8FFEE7134903EB8300820056
:1038B0000A4450684068506003EB830C4FEA8C0266
:1038C00008321144884209D003EB83039A000A4B63
:1038D00013445B68DA68094B1A60704740686246B7
:1038E0009100054A0A445060EEE700BFF005002051
:1038F00078060020F80500205C0500205005002017
:1039000038B5C368DC6824B304F118052846FFF70E
:1039100039FA184B1B682BBB251D2846FFF732FAD6
:10392000E06A01238340144A11680B43136000EBE3
:1039300080002946114B03EB8000FFF7FFF9E26A94
:103940000F4B1B68DB6A9A4211D901200D4B18609E
:1039500038BD4FF0500383F31188BFF36F8FBFF36F
:103960004F8FFEE729460848FFF7E8F9E7E7002010
:10397000EEE700BFF0050020F80500205C05002000
:1039800050050020780600203406002000284CD086
:1039900038B50446274B1B68834208D04FF05003CC
:1039A00083F31188BFF36F8FBFF34F8FFEE7836CF4
:1039B00043B94FF0500383F31188BFF36F8FBFF308
:1039C0004F8FFEE7013B8364C16A426C91422ED067
:1039D0000BB1002038BD051D2846FFF7D3F970B99B
:1039E000E26A02EB82039B001349CB583BB90123E7
:1039F00003FA02F211490B6823EA02030B60606CC0
:103A0000E062C0F10703A361012404FA00F30B4A4A
:103A100011680B43136000EB80002946064B03EB53
:103A20008000FFF78BF92046D4E700207047002084
:103A3000D0E700BF500500205C050020F8050020FD
:103A4000134A12F0070F1FD0D11D21F00701C1F555
:103A50003B53203313440A460E4802600021416064
:103A60001344083B23F007030B48036059601960B7
:103A7000991A51601360094B1960094B1960094B81
:103A80004FF000421A60704742F6E063E4E700BF7F
:103A900080060020743500207C0600206835002058
:103AA0006435002060350020154B1A461B688342A0
:103AB000FBD3516802EB010C844509D0416800EB4F
:103AC000010C634509D00360904218D01060704724
:103AD0004068014451601046F0E710B4094C246876
:103AE000A3420AD05B681944416013681B680360F5
:103AF000904200D0106010BC70470460F8E7704737
:103B0000743500207C06002070B50546FFF776FD71
:103B1000364B1B68A3B1364B1B681D424ED135B1E5
:103B2000083515F0070F02D025F007050835002DE0
:103B300046D0304B1B68AB4251D32F4A146804E087
:103B4000FFF77EFFE7E722461C466368AB4202D2DE
:103B50002368002BF7D1254B1B68A34241D0166880
:103B600008362368136063685B1B102B10D960193B
:103B700010F0070F08D04FF0500383F31188BFF304
:103B80006F8FBFF34F8FFEE743606560FFF78CFFD9
:103B9000626818490B689B1A0B60184909688B42C8
:103BA00001D216490B60124B1B681343636000235C
:103BB0002360134A13680133136002E0002600E01B
:103BC0000026FFF7AFFD16F0070F0CD04FF05003A3
:103BD00083F31188BFF36F8FBFF34F8FFEE700268B
:103BE000EFE70026EDE7304670BD00BF7C06002001
:103BF00060350020643500207435002068350020D1
:103C00006C350020002834D038B50446A0F10805F2
:103C100050F8043C174A1268134208D14FF0500381
:103C200083F31188BFF36F8FBFF34F8FFEE750F818
:103C3000081C41B14FF0500383F31188BFF36F8F1D
:103C4000BFF34F8FFEE723EA020340F8043CFFF77F
:103C5000D5FC54F8041C084A13680B44136028462A
:103C6000FFF722FF054A136801331360FFF75AFD7F
:103C700038BD704760350020643500207035002065
:103C800082B0002301930D4B1B68B3F1FF3F08D0B6
:103C90004FF0500383F31188BFF36F8FBFF34F8F43
:103CA000FEE74FF0500383F31188BFF36F8FBFF32C
:103CB0004F8F019B002BFCD002B070470C000020FE
:103CC00006480068006880F3088862B661B6BFF3F2
:103CD0004F8FBFF36F8F00DF00BF000008ED00E0E3
:103CE0004FF0807340F8043C21F0010140F8081CBB
:103CF000034B40F80C3C40F8202C4038704700BF84
:103D0000813C0008000000000000000000000000EE
:103D1000074B19680868B0E8F00F80F30988BFF313
:103D20006F8F4FF0000080F311884EF00D0E70473A
:103D3000500500204FF0500383F31188BFF36F8FBD
:103D4000BFF34F8F0B4A136801331360012B00D070
:103D500070474FF0E023D3F8043D13F0FF0FF7D086
:103D60004FF0500383F31188BFF36F8FBFF34F8F72
:103D7000FEE700BF0C000020094B1B6843B94FF061
:103D8000500383F31188BFF36F8FBFF34F8FFEE7AC
:103D9000013B034A13600BB983F31188704700BFDE
:103DA0000C000020000000000000000000000000E7
:103DB000EFF30980BFF36F8F0D4B1A6820E9F00F06
:103DC00010602DE908404FF0500080F31188FFF794
:103DD0004BFD4FF0000080F31188BDE808401968E2
:103DE0000868B0E8F00F80F30988BFF36F8F704761
:103DF0005005002008B54FF0500383F31188BFF33E
:103E00006F8FBFF34F8FFFF701FC28B14FF0E02316
:103E10004FF08052C3F8042D002383F3118808BDAE
:103E20004FF0E022002313619361054B1B680549A5
:103E3000A1FB03139B09013B5361072313617047E7
:103E400008000020D34D621010B582B02A4B1A78BA
:103E5000D2B20192FF221A701B78DBB28DF80330C8
:103E60009DF8033003F05003244A1370244B0722BB
:103E70001A6009E0224A1368013B13609DF8033081
:103E80005B00DBB28DF803309DF8033013F0800F38
:103E9000F0D11B4B1B68032B08D04FF0500383F36A
:103EA0001188BFF36F8FBFF34F8FFEE71B02144AD9
:103EB000136003F4E0631360019BDBB20E4A1370DE
:103EC0004FF0E023D3F8202D42F47002C3F8202DE8
:103ED000D3F8202D42F07042C3F8202DFFF7A0FF49
:103EE0000024084B1C60FFF7EBFEFFF7BDFCFFF75B
:103EF000C7FE204602B010BD00E400E07C35002083
:103F0000803500200C000020EFF305830F2B0FD924
:103F1000114A9B5CDBB2114A12789A4208D94FF0E1
:103F2000500383F31188BFF36F8FBFF34F8FFEE70A
:103F30004FF0E023D3F80C3D03F4E063084A126825
:103F4000934208D94FF0500383F31188BFF36F8F6A
:103F5000BFF34F8FFEE77047F0E300E07C350020B1
:103F600080350020842801D003307047002070473E
:103F700008B5FFF709FB002008BD2DE9F04387B025
:103F800004460F464569BDB18669AEB1D0F80480DC
:103F9000D0F80090B0F90800FFF7E4FF0296019511
:103FA00000903B46226949464046FFF70DFA0590CE
:103FB000059807B0BDE8F08365682668D4F81080DE
:103FC000B4F90800FFF7CEFF05AB019300903B4624
:103FD0001FFA88F231462846FFF731FA0128E7D068
:103FE0000020E6E708B5FFF75FFA002008BD08B536
:103FF00000B90120FFF712FC002008BD08B500F051
:104000003FFF01F029F905F065F90120FFF7EFFF07
:10401000F7E7000010B58EB0124C0DF11C0CA6464F
:10402000BEE80F00ACE80F009EE807008CE8070030
:10403000002107A8FFF7A1FF0B4B1860EE4604F123
:104040001C0CBCE80F00AEE80F009CE807008EE8EF
:10405000070000216846FFF790FF044B18600EB080
:1040600010BD00BFB89600088C35002084350020B4
:1040700008B572B604F0E4FF05F098F8FFF7CAFF40
:1040800062B608BD08B5094B1B7813B1012B09D0E6
:1040900008BD05F005F80028FAD0044A137801336A
:1040A0001370F5E7024805F049F8F1E7883500207C
:1040B00000007A4408B5FFF7E5FF0A20FFF797FFF5
:1040C000F9E7000000B587B000230293039304933F
:1040D0000593009301931648164A026047224260F6
:1040E000836040F2E732C2600361436180238361F1
:1040F000FEF756FC90B94FF48053029302A90C4886
:10410000FEF786FC68B900230093019369460848CE
:10411000FEF7FEFC40B907B05DF804FBFCF7FAFFC0
:10412000E9E7FCF7F7FFEEE7FCF7F4FFF3E700BF82
:1041300090350020002C014000B587B00023029389
:104140000393049305930093019318484FF0804222
:10415000026041F61F424260836042F20F72C26009
:10416000036180238361FEF71BFCA8B94FF48053E1
:10417000029302A90D48FEF74BFC80B9002300937F
:10418000019369460948FEF7C3FC58B90748FEF792
:10419000DFFA07B05DF804FBFCF7BCFFE6E7FCF7CD
:1041A000B9FFEBE7FCF7B6FFF0E700BFD83500201A
:1041B00000B587B000230293039304930593009303
:1041C00001931548154A026047224260836042F21B
:1041D0000F72C260036180238361FEF7E1FB90B937
:1041E0004FF48053029302A90B48FEF711FC68B903
:1041F00000230093019369460748FEF789FC40B904
:1042000007B05DF804FBFCF785FFE9E7FCF782FFE8
:10421000EEE7FCF77FFFF3E72036002000040040C4
:1042200000B585B003681F4A934208D0B3F1804FB0
:1042300010D01D4A934221D005B05DF804FB1B4B02
:104240009A6942F400629A619B6903F400630193E6
:10425000019BF1E703F50433DA6942F00102DA6108
:10426000DB6903F001030293029B002205211C205D
:10427000FEF7FAF81C20FEF72FF9DDE70B4BDA69A1
:1042800042F00202DA61DB6903F002030393039B4D
:10429000002205211D20FEF7E7F81D20FEF71CF97E
:1042A000CAE700BF002C014000040040001002409B
:1042B00000B583B051B960F07F008DF80400012093
:1042C00001A900F075FC03B05DF804FB8C4660F0BA
:1042D0003F008DF804007F2903D88DF805100220D7
:1042E000EEE761F07F018DF80510CCF3C71C8DF867
:1042F00006C00320E4E708B50B4611460244B2F5B8
:10430000806F05DC821E0920FFF7D2FF002008BD68
:104310004FF0FF30FBE700B583B041B98DF80400E2
:10432000012001A900F076FC03B05DF804FB8C4687
:1043300040F040008DF804007F2903D88DF8051067
:104340000220EEE761F07F018DF80510CCF3C71C69
:104350008DF806C00320E4E708B503468C461146F5
:1043600062461120FFF7D7FF08BD08B503460522B6
:1043700000211720FFF7CFFF08BD08B5034605222F
:1043800000211520FFF7C7FF08BD00B583B001ABC2
:10439000042289B280B2FFF7BEFF0323002007E0AA
:1043A00003F108026A4412F8042C02EB0020013BDE
:1043B000002BF5DA03B05DF804FB08B500210846D0
:1043C000FFF7E3FF08BD00B583B001AB022289B25D
:1043D00080B2FFF7A0FF9DF805309DF8040000EBC8
:1043E000032080B203B05DF804FB00B583B00DF18B
:1043F0000703012289B280B2FFF78DFF9DF8070005
:1044000003B05DF804FB00B583B08DF807200DF113
:104410000703012289B280B2FFF74AFF03B05DF8BB
:1044200004FB00B583B08DF80420120A8DF8052036
:1044300001AB022289B280B2FFF73AFF03B05DF808
:1044400004FB08B5024641F604012E20FFF7E9FF00
:1044500008BD08B5024600211820FFF7E2FF08BD9D
:1044600000B583B0002306E003F1080CEC440CF81F
:10447000042C120A0133032BF6DD01AB042289B2AE
:1044800080B2FFF715FF03B05DF804FB08B5064BDB
:104490001B68DB68184340EA815040EAC2320021C1
:1044A0000820FFF7DDFF08BD1000002008B5024618
:1044B00004212D20FFF7B5FF032206212D20FFF751
:1044C000A2FF002206212D20FFF79DFF0A212D20AB
:1044D000FFF75BFF08BD08B5002202212C20FFF783
:1044E00092FF022211462C20FFF78DFF08BD10B568
:1044F00004466D2240F606012E20FFF784FF3CB1F2
:1045000040F2076241F606012E20FFF78AFF10BD38
:1045100041F2076241F606012E20FFF782FFF6E71F
:104520002DE9F041044605784279794B33F8128041
:104530004678013EF6B2042D00F0C680072D00F04B
:10454000C1800027E379002B40F0C080714B1A68CE
:10455000136943F4800313614FEAD8086D4B19685F
:10456000237A8B720A6922F440320A61237A1B048F
:1045700003F440331A430A6100210420FFF770FF5F
:10458000424642F604012E20FFF74BFF3046FFF76C
:10459000AEFF614B13F80580604B53F828200721CC
:1045A0002B20FFF75DFF5E4B13F808200B212B201B
:1045B000FFF729FFFFB25B4BDA5D0B212820FFF7E5
:1045C00022FF594B53F828200C212820FFF748FFE1
:1045D000E279A37903EB4203544A32F81320022113
:1045E0002720FFF71EFF524B33F816200421272007
:1045F000FFF717FFE379002B6FD0A378042B72D05D
:10460000202206212720FFF70CFF28222621272021
:10461000FFF7F9FEE37803EB8603464A52F82320BE
:1046200008212720FFF71CFF638913B941F24103DA
:104630006381628920212720FFF7F3FE3E4F3A680D
:104640000C212320FFF70CFF07EB4606B28804215C
:104650002320FFF7E6FEA279002A4FD1114605F08C
:104660000F032D01EDB22B436078800400F440204D
:104670000343120502F4401213434A0402F40032C9
:1046800013432279920502F0F8621343627943EAF8
:10469000C26200211F20FFF7E3FEA2786378134374
:1046A000E27952031B49096842EA0342CA600021C9
:1046B0000820FFF7D5FE422200210D20FFF7A3FEC0
:1046C000BDE8F08101273DE701273BE7114B1A6860
:1046D000136923F48003136140E764220621272035
:1046E000FFF79FFE96E7102206212720FFF799FE8D
:1046F000102226212720FFF786FE8BE7E3790F4A59
:10470000D25C00212120FFF77EFE01210322A6E7D3
:10471000B0970008100000206097000890970008EC
:10472000A8970008E4970008F4970008E8970008A5
:104730008897000868970008589700088C97000829
:1047400010B5044600211A20FFF71FFE000D0005DA
:10475000C4F31302024300211A20FFF781FE10BDAB
:1047600010B582B0044601AB022200213620FFF7CB
:10477000D2FD0E2C12D8DFE804F020082911111107
:1047800011324111114E555C650000238DF8043043
:104790009DF8053003F0FE038DF8053001AB0122D2
:1047A00000213620FFF784FD0DF10503012211469B
:1047B0003620FFF77DFD02B010BD9DF9043023F0D7
:1047C000030343F001038DF80430E7E79DF904305B
:1047D00023F0030343F002038DF80430DEE79DF974
:1047E000043023F04C0343F048038DF804309DF867
:1047F000053063F07F038DF80530CFE79DF8043076
:1048000003F0B3038DF804309DF8053003F07F0307
:104810008DF80530C2E79DF8053043F002038DF8AE
:104820000530BBE79DF8053003F0FD038DF805303A
:10483000B4E79DF9043023F0300343F020038DF8F2
:104840000430ABE701238DF8043003238DF80530E5
:10485000A4E708B50E20FFF783FF4FF400420621BE
:104860002D20FFF7DEFD012000F09EF90120FFF76B
:1048700077FF08BD08B50020FFF772FF0022042172
:104880003620FFF7CEFD08BD08B5024601210A20FB
:10489000FFF7E6FD08BD000008B510F0020204D0E5
:1048A000134B1B6801225A75802210F0010F16D09D
:1048B00042F0060200210D20FFF7A5FD03210F2085
:1048C000FFF781FD10F4816F01D100200EE040223E
:1048D00000210D20FFF797FD4FF0FF3006E042F07A
:1048E000020200210D20FFF78EFD002008BD00BF51
:1048F0001000002038B5054603210420FFF775FDA0
:10490000044695B12A4600210C20FFF78AFD44F0A9
:1049100010020C4B19680B6943F080530B61D2B243
:1049200003210420FFF76FFD38BD064B1A68136999
:1049300023F08053136100F0EF0203210420FFF7FE
:1049400062FDF1E71000002008B50246242127206F
:10495000FFF767FD08BD08B5E02203213620FFF709
:1049600052FDF02203213620FFF74DFD08BD000067
:1049700008B5FFF77FFF002211462C20FFF751FDFD
:10498000002206212C20FFF73EFDFFF7A4FD0022A8
:1049900003213620FFF737FD012000F005F9F02252
:1049A00003213620FFF72FFD024B1B6800225A75AA
:1049B00008BD00BF1000002008B500F01F0242F043
:1049C00060020E212B20FFF71EFD08BD70B50446C6
:1049D0006B4B1B6800221A755A75DA829A62DA628A
:1049E0001A635A63FFF7E9FC664B984240F0C480B3
:1049F00014F002051CD015B114F0F80F02D10020FC
:104A0000FFF7AEFE042200212420FFF7FCFCF5B9DD
:104A10000420FFF74BFD10F0FF0F0CD12DB304F075
:104A20000A030A2B21D0564B1A680023D37225E0C3
:104A3000FFF79EFFDFE7022212212D20FFF7E3FCA4
:104A40004F4B1A68D38A43F48053D382E6E7302170
:104A50002820FFF79AFCB0F1883FDFD0484B1A6856
:104A6000D38A43F48053D382D8E71E20FFF71EFD7C
:104A700083B2434A1268C0F30720D07235B913F0ED
:104A80001F0F00D11023D8B2FFF796FF14F0100FBC
:104A900040D13B4B1B6800221A6014F0200F40D11C
:104AA000374B1B6800225A6014F0400F40D1344B42
:104AB0001B6800221A7214F0800F40D1304B1B6823
:104AC00000225A72002D4DD114F0010F3ED0FFF795
:104AD000C0FE2B4B1A68D38A43F40063D3820120B3
:104AE000FFF73EFE00220A212C20FFF78CFC244C0D
:104AF000256800210420FFF748FC28612468638AA8
:104B000003F00303A37200210820FFF73EFCE060DE
:104B1000002070BD1A4B1E680620FFF7C7FC3060EE
:104B2000BBE7174B1E680720FFF7C0FC7060BBE7B0
:104B30000820FFF7BBFC124B1B681872BBE709206B
:104B4000FFF7B4FC0E4B1B685872BBE705213620FB
:104B5000FFF739FC20F4007292B205213620FFF7EE
:104B600060FCBCE714F0040FB9D1054B1A68D38A76
:104B700043F40063D382B2E74FF0FF30C9E700BFD0
:104B8000100000203001CADE10B500F037F90446ED
:104B900008B9204610BD00F01DF9FAE700B97047CA
:104BA00008B500F023F908BD08B500F080F808BD8D
:104BB0002DE9F0478246894617469846FFF7E4FFFD
:104BC0000646124D2846FCF7BAFE01280446F9D1E4
:104BD000002204210E48FDF748FB524649464FF09B
:104BE000FF330A48FCF7C9FD4FF0FF334146BAB224
:104BF0000648FCF7C2FD224604210548FDF735FBB7
:104C00003046FFF7CBFF0020BDE8F08724020020EC
:104C1000000801402DE9F84380460C4617461D4622
:104C2000FFF7B2FF0646DFF874904846FCF787FEB0
:104C30000128FAD1002204211948FDF716FBB8F12A
:104C4000000F0CD0DFF85490A044012221464FF011
:104C5000FF3314444846FCF790FD4445F5D18FB12D
:104C60004FF0000C0D4CE819226891688907FCD5BB
:104C7000C2F80CC09168CB07FCD5D36805F8013B9E
:104C80008542F1D1012204210548FDF7EEFA3046B4
:104C9000FFF784FF0020BDE8F88300BF2402002056
:104CA0000008014008B5FCF771FE002008BD08B5FA
:104CB000FCF76CFE08BD00004209054B53F822309A
:104CC00000F01F0023FA00F000F00100704700BF61
:104CD00000E100E030B585B098B101230093144B9A
:104CE00001930024029469461248FDF7A5F90720B4
:104CF000FDF7F2FB224603210720FDF7B5FB05B0C7
:104D000030BD0720FDF7F6FB012400941123019329
:104D10000023029303230393064D69462846FDF7BB
:104D20008BF9224621462846FDF79FFAE7E700BFA8
:104D3000000011100008014070B584B001240094F7
:104D400011230193022503950A4E69463046FDF76B
:104D500073F9002221463046FDF787FA2046FFF717
:104D6000A1FF0020FFF7B6FF2846FCF70FFE04B0B6
:104D700070BD00BF0008014008B503482023C3618F
:104D8000FCF7A0FC08BD00BF2402002008B50348C2
:104D90000823C361FCF796FC08BD00BF2402002075
:104DA00008B5012802D0102807D008BD064B012203
:104DB0001A60FAE7054B1B68984710210448FDF775
:104DC0004DFA0028F6D1F0E7A4360020A0360020E6
:104DD00000080140044B4FF40002C3F88020BFF3E9
:104DE0004F8FBFF36F8F704700E100E0024B4FF42D
:104DF00000021A60704700BF00E100E008B517200C
:104E0000FFF75AFF08BD002105E04254120A42EAAA
:104E100003621B0A01310329F7DD704700B583B037
:104E20006846FFF7A2FA0423002001460AE00902BF
:104E300041EA106103F108026A4412F8082C42EAC0
:104E40000020013B002BF2DA03B05DF804FB00B553
:104E500083B06846FFF791FA0423002001460AE078
:104E6000090241EA106103F108026A4412F8082CB1
:104E700042EA0020013B002BF2DA03B05DF804FBAC
:104E800008B5FFF759FFFFF777FF0120FFF79EFDF9
:104E9000B0F1FF3F00D1FEE7FFF778FF0B48FFF7C7
:104EA0003FFB44F24C00FFF7CCFA44F23400FFF72A
:104EB000D0FA4FF49670FFF743FC40F68C20FFF7D2
:104EC00019FD0820FFF740FD08BD00BF14000020B9
:104ED0002DE9F04F8BB00968099112680892D3F858
:104EE00000C0CDF81CC0149BD3F800E0CDF818E04A
:104EF0000B46C9B28DF81310C3F307248DF8124086
:104F0000C3F307452C468DF81150C3F307658DF8A0
:104F10001050D5B28DF80F50C2F307268DF80E60F1
:104F2000C2F307473E468DF80D70C2F307678DF850
:104F30000C705FFA8CF78DF80B70CCF307288DF8A6
:104F40000A80CCF30749C8468DF80990CCF307696D
:104F50008DF808905FFA8EFA8DF807A0CEF3072936
:104F60008DF80690CEF3074BD9468DF805B0CEF3F9
:104F7000076B8DF804B04FEA092909EB1E69A0F808
:104F80000090CEF3072E0EEB0A2EA0F802E04FEAB7
:104F9000082E0EEB1C6EA0F804E0CCF3072C0CEBF3
:104FA000072CA0F806C04FEA062C0CEB126CA0F8F8
:104FB00008C0C2F3072202EB05224281220202EB63
:104FC00013628281C3F3072303EB0123C381082209
:104FD0000146034803F00CFE0BB0BDE8F08F00BFA4
:104FE00000F800082DE9F04F91B003910492059369
:104FF00005885FFA85FB8DF82CB02D0A8DF82D50B1
:1050000044885FFA84FA8DF82EA0240A8DF82F4088
:10501000B0F804E05FFA8EF98DF830904FEA1E2E5A
:105020008DF831E0B0F806C05FFA8CF88DF8328068
:105030004FEA1C2C8DF833C00389DEB201968DF83F
:1050400034601E0A02968DF835604189CFB28DF822
:105050003670090A8DF837108289D6B28DF838601B
:10506000120A8DF83920C389D8B28DF83A001B0A8C
:105070008DF83B308DF81FB08DF81E508DF81DA0B7
:105080008DF81C408DF823908DF822E08DF821805A
:105090008DF820C0019C8DF82740029C8DF8264099
:1050A0008DF825708DF824108DF82B608DF82A204E
:1050B0008DF829008DF828300A9B03990B60099B15
:1050C000049A1360089B059A13601A9B079A1A604A
:1050D00011B0BDE8F08F0000F8B50446144B1B6812
:1050E000994206DD591C124A1160124A42F8230007
:1050F000F8BD0E464D1E0F4FAA00391D384604F06C
:10510000BDF947F825400024002507E0094B53F876
:1051100025102046FBF7DEFC04460135AE42F5DCE7
:105120003046FBF78BFD01462046FBF78FFEDFE79D
:1051300084380020E8370020F8B50446144B1B687B
:10514000994206DD591C124A1160124A42F82300A6
:10515000F8BD0E464D1E0F4FAA00391D384604F00B
:105160008DF947F825400024002507E0094B53F846
:1051700025102046FBF7AEFC04460135AE42F5DCB7
:105180003046FBF75BFD01462046FBF75FFEDFE79D
:105190008038002098370020F8B50446144B1B686F
:1051A000994206DD591C124A1160124A42F8230046
:1051B000F8BD0E464D1E0F4FAA00391D384604F0AB
:1051C0005DF947F825400024002507E0094B53F816
:1051D00025102046FBF77EFC04460135AE42F5DC87
:1051E0003046FBF72BFD01462046FBF72FFEDFE79D
:1051F0007C38002048370020F8B50446144B1B6863
:10520000994206DD591C124A1160124A42F82300E5
:10521000F8BD0E464D1E0F4FAA00391D384604F04A
:105220002DF947F825400024002507E0094B53F8E5
:1052300025102046FBF74EFC04460135AE42F5DC56
:105240003046FBF7FBFC01462046FBF7FFFDDFE79E
:1052500078380020F83600202DE9F04F83B0BD4BA0
:105260001B78012B05D0022B00F02A8503B0BDE886
:10527000F08FB949B94B1B788B7000220C20FFF7D7
:105280003AF8012200210C20FFF700F90220FFF775
:1052900003FB00210F20FFF778F8B14B1860B14BEA
:1052A0000340002BF5D010F4804F00F088804FF4BD
:1052B000814200210F20FFF7D3F800211020FFF7D3
:1052C00064F800F07F01142974D9A7480023837083
:1052D0000A22A64904F0C2F8002877D1A24AD17A5E
:1052E000137BA34A126803EB01231380A14B188898
:1052F000FBF7A0FCA049FBF7A9FDA04B1860FFF746
:105300008DFD9F4DC5E90001FFF7A1FD9D4E306069
:1053100071609D4C001941F10001040A44EA0164E6
:105320002046FFF7B1FA0027230223F4FF7323F08E
:105330000103240E44F234029B1844F10004DFF808
:105340004C82C8F80030C8F80440914CD5E90023DD
:1053500004F10A00FFF757FDD6E9002304F10E001F
:10536000FFF751FDD8E9002304F11200FFF74BFDD0
:105370007A4B1B78A3703A4621461820FEF7BBFFF4
:10538000012239461820FFF781F80120FFF784FA3F
:10539000E0B900210F20FEF7F8FF10F0800FF8D0E1
:1053A000802200210F20FFF75BF86C4A137801334D
:1053B00013700BE000226C48FEF7CEFF85E7754ABC
:1053C00000210F20FFF74CF8FFF7C5FA6B4D0A21BB
:1053D0002868FFF781FE044628606F49FBF73EFE10
:1053E000002800F0ED806D4B00221A706C4B1A788B
:1053F0005A4B1B789A4200F0E780694A1370142BCD
:1054000004D9664B1B78012B00F0E2806549664B9E
:105410001B788B7000220C20FEF76DFF012200210B
:105420000C20FFF733F80220FFF736FA00210F2097
:10543000FEF7ABFF4A4B18604A4B0340002BF5D0F8
:1054400010F4804F00F0D4804FF4814200210F20EF
:10545000FFF706F800211020FEF797FF00F07F010C
:10546000142940F2C0804048002383700A224F492B
:1054700003F0F4FF002840F0C2803B4AD17A137B4E
:105480004B4A126803EB012313804A4B1888FBF741
:10549000D1FB3949FBF7DAFC474B1860FFF7BEFC3C
:1054A000374DC5E90001FFF7D2FC364E3060716020
:1054B000354C001941F10001040A44EA0164204618
:1054C000FFF7E2F90027230223F4FF7323F001031F
:1054D000240E44F234029B1844F10004DFF8AC803F
:1054E000C8F80030C8F80440344CD5E9002304F172
:1054F0000A00FFF788FCD6E9002304F10E00FFF74D
:1055000082FCD8E9002304F11200FFF77CFC264B53
:105510001B78A3703A4621461820FEF7ECFE0122C4
:1055200039461820FEF7B2FF0120FFF7B5F9002831
:1055300065D100210F20FEF728FF10F0800FF8D072
:10554000802200210F20FEF78BFF174A13780133CA
:10555000137054E030000020E4000020A838002040
:10556000F438002000D02724E03800204400002038
:1055700034000020983800200000C842C8380020BD
:10558000C0380020D838002000001C0CA0380020B3
:10559000840000200090272400002041383800209B
:1055A00072380020F0000020A938002054000020AC
:1055B000380000209A380020CC3800209C000020C1
:1055C0007D4B01221A7011E77B4A0021117014E70C
:1055D0007A4D21462868FBF77DFA2860784A1378CF
:1055E0000133137012E700227648FEF7B5FE3AE762
:1055F000754A00210F20FEF733FFFFF7ACF9734D1A
:105600000A212868FFF798FD044628607049FBF7D7
:1056100025FD002800F0B7806E4B00221A706E4BFB
:105620001A786E4B1B789A4200F0B1806A4A137068
:10563000142B04D9674B1B78012B00F0AC80684910
:10564000684B1B788B7000220C20FEF754FE012261
:1056500000210C20FEF71AFF0220FFF71DF90021A0
:105660000F20FEF792FE604B1860604B0340002B4A
:10567000F5D010F4804F00F0D3804FF48142002128
:105680000F20FEF7EDFE00211020FEF77EFE00F059
:105690007F01142940F28A804A48002383700A223D
:1056A000534903F0DBFE002840F0C180454AD17A1F
:1056B000137B504A126803EB012313804E4B18886A
:1056C000FBF7B8FA4D49FBF7C1FB4D4B1860FFF7EC
:1056D000A5FB4C4DC5E90001FFF7B9FB4A4E306010
:1056E00071604A4C001941F10001040A44EA016466
:1056F0002046FFF7C9F80027230223F4FF7323F0A5
:105700000103240E44F234029B1844F10004DFF834
:105710000081C8F80030C8F804403E4CD5E90023A9
:1057200004F10A00FFF76FFBD6E9002304F10E0035
:10573000FFF769FBD8E9002304F11200FFF763FBD0
:10574000284B1B78A3703A4621461820FEF7D3FD5C
:10575000012239461820FEF799FE0120FFF79CF838
:10576000002864D100210F20FEF70FFE10F0800FFB
:10577000F8D0802200210F20FEF772FE194A13781C
:105780000133137053E0134B01221A7047E7114A9B
:10579000002111704AE7204D21462868FBF79AF94D
:1057A00028601E4A13780133137048E70022054829
:1057B000FEF7D2FD70E700BF38380020883800209F
:1057C0006E380020E038002000902724CC380020DC
:1057D000000020413938002073380020A93800200B
:1057E000FC000020AA380020F438002000D0272434
:1057F000640000203C0000209C3800200000C842CB
:10580000D0380020C0380020D838002000001C0C00
:10581000A0380020B40000208C3800206F38002011
:10582000714A00210F20FEF71BFEFFF794F86F4D21
:105830000A212868FFF7B0FC044628606C49FBF792
:105840000DFC002800F0B7806A4B00221A706A4BEA
:105850001A786A4B1B789A4200F0B180664A13703E
:10586000142B04D9634B1B78012B00F0AC806449E6
:10587000644B1B788B7000220C20FEF73CFD01224C
:1058800000210C20FEF702FE0220FFF705F80021A0
:105890000F20FEF77AFD5C4B18605C4B0340002B39
:1058A000F5D010F4804F00F0CD804FF481420021FC
:1058B0000F20FEF7D5FD00211020FEF766FD00F059
:1058C0007F01142940F28A805148002383700A2204
:1058D000504903F0C3FD002840F0BB804C4AD17A08
:1058E000137B4D4A126803EB012313804B4B18883E
:1058F000FBF7A0F94A49FBF7A9FA4A4B1860FFF7F2
:105900008DFA494DC5E90001FFF7A1FA474E306015
:105910007160474C001941F10001040A44EA016436
:105920002046FEF7B1FF0027230223F4FF7323F084
:105930000103240E44F234029B1844F10004DFF802
:10594000F480C8F80030C8F804403B4CD5E9002387
:1059500004F10A00FFF757FAD6E9002304F10E001C
:10596000FFF751FAD8E9002304F11200FFF74BFAD0
:10597000244B1B78A3703A4621461820FEF7BBFC47
:10598000012239461820FEF781FD0120FEF784FF31
:1059900000285ED100210F20FEF7F7FC10F0800FE9
:1059A000F8D0802200210F20FEF75AFD154A137807
:1059B000013313704DE00F4B01221A7047E70D4A77
:1059C000002111704AE71D4D21462868FBF782F837
:1059D00028601B4A13780133137048E700220C48F3
:1059E000FEF7BAFC70E700BF00902724D0380020F3
:1059F000000020413A38002074380020AA380020E6
:105A000008010020AB380020F438002000D0272403
:105A1000E038002074000020400000209E38002064
:105A20000000C842D4380020C0380020D8380020F8
:105A300000001C0CA0380020CC0000209038002072
:105A400070380020804A00210F20FEF709FDFEF784
:105A500082FF7E4C0A212068FFF7CEFB05462060BE
:105A60007B49FBF7FBFA002800F0CF80794B00223E
:105A70001A70794B1B78794A1478A34200F0C980D8
:105A8000754B1C70142C04D9724B1B78012B00F041
:105A9000C480642C7FF6EAAB714B1B78642B7FF6D5
:105AA000E5AB704A117864297FF6E0AB6E4A107856
:105AB00064287FF6DBAB6D4A2C25157012255570D6
:105AC0009070D17013715471DFF8A48198F8003090
:105AD0009371DFF8A09199F80030D371DFF898A1A5
